{"project/contracts/CryptoIslandToken.sol":{"CryptoIslandToken":{"abi":[{"inputs":[{"internalType":"address","name":"_treasury","type":"address"}],"stateMutability":"nonpayable","type":"constructor"},{"inputs":[{"internalType":"address","name":"spender","type":"address"},{"internalType":"uint256","name":"allowance","type":"uint256"},{"internalType":"uint256","name":"needed","type":"uint256"}],"name":"ERC20InsufficientAllowance","type":"error"},{"inputs":[{"internalType":"address","name":"sender","type":"address"},{"internalType":"uint256","name":"balance","type":"uint256"},{"internalType":"uint256","name":"needed","type":"uint256"}],"name":"ERC20InsufficientBalance","type":"error"},{"inputs":[{"internalType":"address","name":"approver","type":"address"}],"name":"ERC20InvalidApprover","type":"error"},{"inputs":[{"internalType":"address","name":"receiver","type":"address"}],"name":"ERC20InvalidReceiver","type":"error"},{"inputs":[{"internalType":"address","name":"sender","type":"address"}],"name":"ERC20InvalidSender","type":"error"},{"inputs":[{"internalType":"address","name":"spender","type":"address"}],"name":"ERC20InvalidSpender","type":"error"},{"inputs":[],"name":"EnforcedPause","type":"error"},{"inputs":[],"name":"ExpectedPause","type":"error"},{"inputs":[{"internalType":"address","name":"owner","type":"address"}],"name":"OwnableInvalidOwner","type":"error"},{"inputs":[{"internalType":"address","name":"account","type":"address"}],"name":"OwnableUnauthorizedAccount","type":"error"},{"inputs":[],"name":"ReentrancyGuardReentrantCall","type":"error"},{"anonymous":false,"inputs":[{"indexed":true,"internalType":"address","name":"owner","type":"address"},{"indexed":true,"internalType":"address","name":"spender","type":"address"},{"indexed":false,"internalType":"uint256","name":"value","type":"uint256"}],"name":"Approval","type":"event"},{"anonymous":false,"inputs":[{"indexed":true,"internalType":"address","name":"player","type":"address"},{"indexed":false,"internalType":"uint256","name":"amount","type":"uint256"},{"indexed":false,"internalType":"string","name":"gameAction","type":"string"}],"name":"GameRewardEarned","type":"event"},{"anonymous":false,"inputs":[{"indexed":true,"internalType":"address","name":"previousOwner","type":"address"},{"indexed":true,"internalType":"address","name":"newOwner","type":"address"}],"name":"OwnershipTransferred","type":"event"},{"anonymous":false,"inputs":[{"indexed":false,"internalType":"address","name":"account","type":"address"}],"name":"Paused","type":"event"},{"anonymous":false,"inputs":[{"indexed":true,"internalType":"address","name":"staker","type":"address"},{"indexed":false,"internalType":"uint256","name":"netReward","type":"uint256"},{"indexed":false,"internalType":"uint256","name":"fee","type":"uint256"},{"indexed":false,"internalType":"uint256","name":"timestamp","type":"uint256"}],"name":"RewardsClaimed","type":"event"},{"anonymous":false,"inputs":[{"indexed":true,"internalType":"address","name":"player","type":"address"},{"indexed":false,"internalType":"uint256","name":"multiplierBps","type":"uint256"}],"name":"ScoreMultiplierUpdated","type":"event"},{"anonymous":false,"inputs":[{"indexed":true,"internalType":"address","name":"to","type":"address"},{"indexed":false,"internalType":"uint256","name":"amount","type":"uint256"},{"indexed":false,"internalType":"uint256","name":"timestamp","type":"uint256"}],"name":"TokensMinted","type":"event"},{"anonymous":false,"inputs":[{"indexed":true,"internalType":"address","name":"staker","type":"address"},{"indexed":false,"internalType":"uint256","name":"amount","type":"uint256"},{"indexed":false,"internalType":"uint256","name":"timestamp","type":"uint256"}],"name":"TokensStaked","type":"event"},{"anonymous":false,"inputs":[{"indexed":true,"internalType":"address","name":"staker","type":"address"},{"indexed":false,"internalType":"uint256","name":"amount","type":"uint256"},{"indexed":false,"internalType":"uint256","name":"timestamp","type":"uint256"}],"name":"TokensUnstaked","type":"event"},{"anonymous":false,"inputs":[{"indexed":true,"internalType":"address","name":"from","type":"address"},{"indexed":true,"internalType":"address","name":"to","type":"address"},{"indexed":false,"internalType":"uint256","name":"value","type":"uint256"}],"name":"Transfer","type":"event"},{"anonymous":false,"inputs":[{"indexed":true,"internalType":"address","name":"treasury","type":"address"},{"indexed":false,"internalType":"uint256","name":"amount","type":"uint256"},{"indexed":false,"internalType":"uint256","name":"timestamp","type":"uint256"}],"name":"TreasuryFeeCollected","type":"event"},{"anonymous":false,"inputs":[{"indexed":false,"internalType":"address","name":"account","type":"address"}],"name":"Unpaused","type":"event"},{"inputs":[],"name":"BPS_DENOMINATOR","outputs":[{"internalType":"uint256","name":"","type":"uint256"}],"stateMutability":"view","type":"function"},{"inputs":[],"name":"BRONZE_APY","outputs":[{"internalType":"uint256","name":"","type":"uint256"}],"stateMutability":"view","type":"function"},{"inputs":[],"name":"GOLD_APY","outputs":[{"internalType":"uint256","name":"","type":"uint256"}],"stateMutability":"view","type":"function"},{"inputs":[],"name":"GOLD_THRESHOLD","outputs":[{"internalType":"uint256","name":"","type":"uint256"}],"stateMutability":"view","type":"function"},{"inputs":[],"name":"INITIAL_SUPPLY","outputs":[{"internalType":"uint256","name":"","type":"uint256"}],"stateMutability":"view","type":"function"},{"inputs":[],"name":"MAX_MULTIPLIER","outputs":[{"internalType":"uint256","name":"","type":"uint256"}],"stateMutability":"view","type":"function"},{"inputs":[],"name":"MAX_SUPPLY","outputs":[{"internalType":"uint256","name":"","type":"uint256"}],"stateMutability":"view","type":"function"},{"inputs":[],"name":"MINT_PRICE","outputs":[{"internalType":"uint256","name":"","type":"uint256"}],"stateMutability":"view","type":"function"},{"inputs":[],"name":"REWARD_INTERVAL","outputs":[{"internalType":"uint256","name":"","type":"uint256"}],"stateMutability":"view","type":"function"},{"inputs":[],"name":"SILVER_APY","outputs":[{"internalType":"uint256","name":"","type":"uint256"}],"stateMutability":"view","type":"function"},{"inputs":[],"name":"SILVER_THRESHOLD","outputs":[{"internalType":"uint256","name":"","type":"uint256"}],"stateMutability":"view","type":"function"},{"inputs":[],"name":"TREASURY_FEE_BPS","outputs":[{"internalType":"uint256","name":"","type":"uint256"}],"stateMutability":"view","type":"function"},{"inputs":[{"internalType":"address","name":"gameContract","type":"address"}],"name":"addGameContract","outputs":[],"stateMutability":"nonpayable","type":"function"},{"inputs":[{"internalType":"address","name":"owner","type":"address"},{"internalType":"address","name":"spender","type":"address"}],"name":"allowance","outputs":[{"internalType":"uint256","name":"","type":"uint256"}],"stateMutability":"view","type":"function"},{"inputs":[{"internalType":"address","name":"spender","type":"address"},{"internalType":"uint256","name":"value","type":"uint256"}],"name":"approve","outputs":[{"internalType":"bool","name":"","type":"bool"}],"stateMutability":"nonpayable","type":"function"},{"inputs":[{"internalType":"address","name":"account","type":"address"}],"name":"balanceOf","outputs":[{"internalType":"uint256","name":"","type":"uint256"}],"stateMutability":"view","type":"function"},{"inputs":[{"internalType":"address","name":"stakerAddr","type":"address"}],"name":"calculateNetRewards","outputs":[{"internalType":"uint256","name":"net","type":"uint256"},{"internalType":"uint256","name":"fee","type":"uint256"}],"stateMutability":"view","type":"function"},{"inputs":[{"internalType":"address","name":"stakerAddr","type":"address"}],"name":"calculateRewards","outputs":[{"internalType":"uint256","name":"","type":"uint256"}],"stateMutability":"view","type":"function"},{"inputs":[],"name":"claimRewards","outputs":[],"stateMutability":"nonpayable","type":"function"},{"inputs":[],"name":"decimals","outputs":[{"internalType":"uint8","name":"","type":"uint8"}],"stateMutability":"view","type":"function"},{"inputs":[{"internalType":"address","name":"player","type":"address"},{"internalType":"uint256","name":"amount","type":"uint256"},{"internalType":"string","name":"gameAction","type":"string"}],"name":"earnGameReward","outputs":[],"stateMutability":"nonpayable","type":"function"},{"inputs":[{"internalType":"address","name":"","type":"address"}],"name":"gameContracts","outputs":[{"internalType":"bool","name":"","type":"bool"}],"stateMutability":"view","type":"function"},{"inputs":[{"internalType":"address","name":"","type":"address"}],"name":"gameRewards","outputs":[{"internalType":"uint256","name":"","type":"uint256"}],"stateMutability":"view","type":"function"},{"inputs":[{"internalType":"address","name":"stakerAddr","type":"address"}],"name":"getStakerInfo","outputs":[{"internalType":"uint256","name":"stakedAmount","type":"uint256"},{"internalType":"uint256","name":"stakingTimestamp","type":"uint256"},{"internalType":"uint256","name":"pendingRewards","type":"uint256"},{"internalType":"bool","name":"isStaking","type":"bool"},{"internalType":"string","name":"tier","type":"string"},{"internalType":"uint256","name":"multiplierBps_","type":"uint256"},{"internalType":"uint256","name":"currentAPY","type":"uint256"}],"stateMutability":"view","type":"function"},{"inputs":[{"internalType":"address","name":"stakerAddr","type":"address"}],"name":"getStakerTier","outputs":[{"internalType":"string","name":"","type":"string"}],"stateMutability":"view","type":"function"},{"inputs":[{"internalType":"address","name":"to","type":"address"}],"name":"initializeSupply","outputs":[],"stateMutability":"nonpayable","type":"function"},{"inputs":[{"internalType":"address","name":"to","type":"address"},{"internalType":"uint256","name":"amount","type":"uint256"}],"name":"mintTokens","outputs":[],"stateMutability":"nonpayable","type":"function"},{"inputs":[{"internalType":"uint256","name":"amount","type":"uint256"}],"name":"mintWithAVAX","outputs":[],"stateMutability":"payable","type":"function"},{"inputs":[],"name":"name","outputs":[{"internalType":"string","name":"","type":"string"}],"stateMutability":"view","type":"function"},{"inputs":[],"name":"owner","outputs":[{"internalType":"address","name":"","type":"address"}],"stateMutability":"view","type":"function"},{"inputs":[],"name":"pause","outputs":[],"stateMutability":"nonpayable","type":"function"},{"inputs":[],"name":"paused","outputs":[{"internalType":"bool","name":"","type":"bool"}],"stateMutability":"view","type":"function"},{"inputs":[{"internalType":"address","name":"gameContract","type":"address"}],"name":"removeGameContract","outputs":[],"stateMutability":"nonpayable","type":"function"},{"inputs":[],"name":"renounceOwnership","outputs":[],"stateMutability":"nonpayable","type":"function"},{"inputs":[{"internalType":"address","name":"","type":"address"}],"name":"scoreMultiplierBps","outputs":[{"internalType":"uint256","name":"","type":"uint256"}],"stateMutability":"view","type":"function"},{"inputs":[{"internalType":"address","name":"player","type":"address"},{"internalType":"uint256","name":"multiplierBps","type":"uint256"}],"name":"setPlayerScoreMultiplier","outputs":[],"stateMutability":"nonpayable","type":"function"},{"inputs":[{"internalType":"address","name":"_treasury","type":"address"}],"name":"setTreasury","outputs":[],"stateMutability":"nonpayable","type":"function"},{"inputs":[{"internalType":"address","name":"player","type":"address"},{"internalType":"uint256","name":"amount","type":"uint256"}],"name":"spendGameTokens","outputs":[],"stateMutability":"nonpayable","type":"function"},{"inputs":[{"internalType":"uint256","name":"amount","type":"uint256"}],"name":"stakeTokens","outputs":[],"stateMutability":"nonpayable","type":"function"},{"inputs":[{"internalType":"address","name":"","type":"address"}],"name":"stakers","outputs":[{"internalType":"uint256","name":"stakedAmount","type":"uint256"},{"internalType":"uint256","name":"stakingTimestamp","type":"uint256"},{"internalType":"bool","name":"isStaking","type":"bool"}],"stateMutability":"view","type":"function"},{"inputs":[],"name":"symbol","outputs":[{"internalType":"string","name":"","type":"string"}],"stateMutability":"view","type":"function"},{"inputs":[],"name":"totalStaked","outputs":[{"internalType":"uint256","name":"","type":"uint256"}],"stateMutability":"view","type":"function"},{"inputs":[],"name":"totalSupply","outputs":[{"internalType":"uint256","name":"","type":"uint256"}],"stateMutability":"view","type":"function"},{"inputs":[],"name":"totalTreasuryCollected","outputs":[{"internalType":"uint256","name":"","type":"uint256"}],"stateMutability":"view","type":"function"},{"inputs":[{"internalType":"address","name":"to","type":"address"},{"internalType":"uint256","name":"value","type":"uint256"}],"name":"transfer","outputs":[{"internalType":"bool","name":"","type":"bool"}],"stateMutability":"nonpayable","type":"function"},{"inputs":[{"internalType":"address","name":"from","type":"address"},{"internalType":"address","name":"to","type":"address"},{"internalType":"uint256","name":"value","type":"uint256"}],"name":"transferFrom","outputs":[{"internalType":"bool","name":"","type":"bool"}],"stateMutability":"nonpayable","type":"function"},{"inputs":[{"internalType":"address","name":"newOwner","type":"address"}],"name":"transferOwnership","outputs":[],"stateMutability":"nonpayable","type":"function"},{"inputs":[],"name":"treasury","outputs":[{"internalType":"address","name":"","type":"address"}],"stateMutability":"view","type":"function"},{"inputs":[],"name":"unpause","outputs":[],"stateMutability":"nonpayable","type":"function"},{"inputs":[],"name":"unstakeTokens","outputs":[],"stateMutability":"nonpayable","type":"function"},{"inputs":[],"name":"withdrawAVAX","outputs":[],"stateMutability":"nonpayable","type":"function"}],"evm":{"bytecode":{"linkReferences":{},"object":"608060405234801562000010575f80fd5b506040516200271138038062002711833981016040819052620000339162000178565b336040518060400160405280601381526020017f43727970746f2049736c616e6420546f6b656e000000000000000000000000008152506040518060400160405280600381526020016210d25560ea1b815250816003908162000097919062000245565b506004620000a6828262000245565b5050506001600160a01b038116620000d757604051631e4fbdf760e01b81525f600482015260240160405180910390fd5b620000e28162000127565b5060016006556001600160a01b038116620000fe573362000100565b805b600780546001600160a01b0319166001600160a01b03929092169190911790555062000311565b600580546001600160a01b038381166001600160a01b0319831681179093556040519116919082907f8be0079c531659141344cd1fd0a4f28419497f9722a3daafe3b4186f6b6457e0905f90a35050565b5f6020828403121562000189575f80fd5b81516001600160a01b0381168114620001a0575f80fd5b9392505050565b634e487b7160e01b5f52604160045260245ffd5b600181811c90821680620001d057607f821691505b602082108103620001ef57634e487b7160e01b5f52602260045260245ffd5b50919050565b601f8211156200024057805f5260205f20601f840160051c810160208510156200021c5750805b601f840160051c820191505b818110156200023d575f815560010162000228565b50505b505050565b81516001600160401b03811115620002615762000261620001a7565b6200027981620002728454620001bb565b84620001f5565b602080601f831160018114620002af575f8415620002975750858301515b5f19600386901b1c1916600185901b17855562000309565b5f85815260208120601f198616915b82811015620002df57888601518255948401946001909101908401620002be565b5085821015620002fd57878501515f19600388901b60f8161c191681555b505060018460011b0185555b505050505050565b6123f2806200031f5f395ff3fe6080604052600436106102d9575f3560e01c8063715018a611610189578063a9059cbb116100d8578063dd62ed3e11610092578063f06d3d311161006d578063f06d3d31146108b1578063f0dda65c146108d0578063f0f44260146108ef578063f2fde38b1461090e575f80fd5b8063dd62ed3e14610844578063e1a4521814610888578063e3b1a1f41461089d575f80fd5b8063a9059cbb14610798578063abce145b146107b7578063b273890b146107cb578063c002d23d146107ff578063c1a0db3014610819578063d642aa021461082f575f80fd5b80638da5cb5b116101435780639168ae721161011e5780639168ae721461070157806395d89b411461075b5780639bcf2f611461076f578063a5ce413b14610784575f80fd5b80638da5cb5b146106bd5780638dc9c26b146106da5780638f5b8ee2146106ee575f80fd5b8063715018a614610610578063733bdef0146106245780637547c7a314610656578063817b1cd21461067557806381cd08ee1461068a5780638456cb59146106a9575f80fd5b806346565bed1161024557806361d027b3116101ff5780636d0efaeb116101da5780636d0efaeb1461056f5780636ddd474d146105835780636e6bab4b146105b157806370a08231146105dc575f80fd5b806361d027b3146104fa57806364ab8675146105315780636aa679d414610550575f80fd5b806346565bed1461045c578063569739741461047b5780635c74e025146104915780635c975abb146104b05780635d6a618d146104ce5780635dbdda69146104e3575f80fd5b80632ff2e9dc116102965780632ff2e9dc146103bf578063313ce567146103dc57806332cb6b0c146103f7578063372500ab1461041557806339b6ae94146104295780633f4ba83a14610448575f80fd5b8063023b14a5146102dd57806306fdde031461031b578063095ea7b31461033c5780630bdc0cda1461036b57806318160ddd1461038c57806323b872dd146103a0575b5f80fd5b3480156102e8575f80fd5b506103086102f7366004611f75565b600b6020525f908152604090205481565b6040519081526020015b60405180910390f35b348015610326575f80fd5b5061032f61092d565b6040516103129190611fd8565b348015610347575f80fd5b5061035b610356366004611fea565b6109bd565b6040519015158152602001610312565b348015610376575f80fd5b5061038a610385366004611f75565b6109d6565b005b348015610397575f80fd5b50600254610308565b3480156103ab575f80fd5b5061035b6103ba366004612012565b610a40565b3480156103ca575f80fd5b5061030869d3c21bcecceda100000081565b3480156103e7575f80fd5b5060405160128152602001610312565b348015610402575f80fd5b506103086a084595161401484a00000081565b348015610420575f80fd5b5061038a610a63565b348015610434575f80fd5b5061038a610443366004611fea565b610b20565b348015610453575f80fd5b5061038a610c13565b348015610467575f80fd5b5061038a610476366004611fea565b610c23565b348015610486575f80fd5b5061030862278d0081565b34801561049c575f80fd5b5061038a6104ab366004611f75565b610ca5565b3480156104bb575f80fd5b50600554600160a01b900460ff1661035b565b3480156104d9575f80fd5b50610308614e2081565b3480156104ee575f80fd5b506103086301e1338081565b348015610505575f80fd5b50600754610519906001600160a01b031681565b6040516001600160a01b039091168152602001610312565b34801561053c575f80fd5b5061030861054b366004611f75565b610ccd565b34801561055b575f80fd5b5061038a61056a36600461205f565b610dc6565b34801561057a575f80fd5b50610308600f81565b34801561058e575f80fd5b5061035b61059d366004611f75565b600a6020525f908152604090205460ff1681565b3480156105bc575f80fd5b506103086105cb366004611f75565b60096020525f908152604090205481565b3480156105e7575f80fd5b506103086105f6366004611f75565b6001600160a01b03165f9081526020819052604090205490565b34801561061b575f80fd5b5061038a610ef7565b34801561062f575f80fd5b5061064361063e366004611f75565b610f08565b6040516103129796959493929190612123565b348015610661575f80fd5b5061038a610670366004612165565b6110a3565b348015610680575f80fd5b50610308600c5481565b348015610695575f80fd5b5061038a6106a4366004611f75565b6111fb565b3480156106b4575f80fd5b5061038a611226565b3480156106c8575f80fd5b506005546001600160a01b0316610519565b3480156106e5575f80fd5b50610308600a81565b61038a6106fc366004612165565b611236565b34801561070c575f80fd5b5061073e61071b366004611f75565b60086020525f908152604090208054600182015460029092015490919060ff1683565b604080519384526020840192909252151590820152606001610312565b348015610766575f80fd5b5061032f6113fa565b34801561077a575f80fd5b50610308600d5481565b34801561078f575f80fd5b5061038a611409565b3480156107a3575f80fd5b5061035b6107b2366004611fea565b61154b565b3480156107c2575f80fd5b5061038a611558565b3480156107d6575f80fd5b506107ea6107e5366004611f75565b61163a565b60408051928352602083019190915201610312565b34801561080a575f80fd5b5061030866038d7ea4c6800081565b348015610824575f80fd5b5061030862093a8081565b34801561083a575f80fd5b506103086101f481565b34801561084f575f80fd5b5061030861085e36600461217c565b6001600160a01b039182165f90815260016020908152604080832093909416825291909152205490565b348015610893575f80fd5b5061030861271081565b3480156108a8575f80fd5b50610308601481565b3480156108bc575f80fd5b5061032f6108cb366004611f75565b611675565b3480156108db575f80fd5b5061038a6108ea366004611fea565b611776565b3480156108fa575f80fd5b5061038a610909366004611f75565b61183e565b348015610919575f80fd5b5061038a610928366004611f75565b6118ad565b60606003805461093c906121ad565b80601f0160208091040260200160405190810160405280929190818152602001828054610968906121ad565b80156109b35780601f1061098a576101008083540402835291602001916109b3565b820191905f5260205f20905b81548152906001019060200180831161099657829003601f168201915b5050505050905090565b5f336109ca8185856118e7565b60019150505b92915050565b6109de6118f4565b60025415610a295760405162461bcd60e51b8152602060048201526013602482015272105b1c9958591e481a5b9a5d1a585b1a5e9959606a1b60448201526064015b60405180910390fd5b610a3d8169d3c21bcecceda1000000611921565b50565b5f33610a4d858285611955565b610a588585856119cb565b506001949350505050565b610a6b611a28565b610a73611a53565b335f9081526008602052604090206002015460ff16610ac25760405162461bcd60e51b815260206004820152600b60248201526a4e6f74207374616b696e6760a81b6044820152606401610a20565b5f610acc33610ccd565b90505f8111610b0a5760405162461bcd60e51b815260206004820152600a6024820152694e6f207265776172647360b01b6044820152606401610a20565b610b1333611a7d565b50610b1e6001600655565b565b610b286118f4565b612710811015610b725760405162461bcd60e51b81526020600482015260156024820152744d757374206265203e3d203178202831303030302960581b6044820152606401610a20565b614e20811115610bbb5760405162461bcd60e51b8152602060048201526014602482015273436170706564206174203278202832303030302960601b6044820152606401610a20565b6001600160a01b0382165f8181526009602052604090819020839055517ffb12832a43f90dcf2e6eb6ea0b977f34217c2802c7bab9c6a387d8f52ce8e3d190610c079084815260200190565b60405180910390a25050565b610c1b6118f4565b610b1e611c12565b335f908152600a602052604090205460ff16610c775760405162461bcd60e51b81526020600482015260136024820152724f6e6c792067616d6520636f6e74726163747360681b6044820152606401610a20565b5f8111610c965760405162461bcd60e51b8152600401610a20906121e5565b610ca18230836119cb565b5050565b610cad6118f4565b6001600160a01b03165f908152600a60205260409020805460ff19169055565b6001600160a01b0381165f9081526008602090815260408083208151606081018352815481526001820154938101939093526002015460ff161580159183019190915280610d1a57508051155b15610d2757505f92915050565b5f816020015142610d389190612225565b90505f610d488360200151611c67565b6001600160a01b0386165f90815260096020526040812054919250819003610d6f57506127105b5f610d7f6301e133806064612238565b85518590610d8e908690612238565b610d989190612238565b610da2919061224f565b9050612710610db18383612238565b610dbb919061224f565b979650505050505050565b335f908152600a602052604090205460ff16610e1a5760405162461bcd60e51b81526020600482015260136024820152724f6e6c792067616d6520636f6e74726163747360681b6044820152606401610a20565b5f8211610e395760405162461bcd60e51b8152600401610a20906121e5565b6a084595161401484a00000082610e4f60025490565b610e59919061226e565b1115610e775760405162461bcd60e51b8152600401610a2090612281565b610e818383611921565b6001600160a01b0383165f908152600b602052604081208054849290610ea890849061226e565b92505081905550826001600160a01b03167f9dfcf239a23b6ad6a240ce003294522254489e0b77b4a2b547169aab4240a9cc8383604051610eea9291906122ae565b60405180910390a2505050565b610eff6118f4565b610b1e5f611ca4565b6001600160a01b0381165f9081526008602090815260408083208151606081810184528254808352600184015495830186905260029093015460ff16151593820193909352909391829182908190610f5f89610ccd565b6040808301516001600160a01b038c165f90815260096020529190912054919750955015610fa4576001600160a01b0389165f90815260096020526040902054610fa8565b6127105b92508060400151610fb9575f610fc6565b610fc68160200151611c67565b91505f8160400151610fd8575f610fe7565b6020820151610fe79042612225565b9050816040015161101657604051806040016040528060048152602001634e6f6e6560e01b8152509450611096565b62278d008110611044576040518060400160405280600481526020016311dbdb1960e21b8152509450611096565b62093a808110611074576040518060400160405280600681526020016529b4b63b32b960d11b8152509450611096565b6040518060400160405280600681526020016542726f6e7a6560d01b81525094505b5050919395979092949650565b6110ab611a28565b6110b3611a53565b5f81116110d25760405162461bcd60e51b8152600401610a20906121e5565b335f908152602081905260409020548111156111275760405162461bcd60e51b8152602060048201526014602482015273496e73756666696369656e742062616c616e636560601b6044820152606401610a20565b335f9081526008602052604090206002015460ff161561114a5761114a33611a7d565b6111553330836119cb565b335f908152600860205260408120805483929061117390849061226e565b9091555050335f908152600860205260408120426001808301919091556002909101805460ff19169091179055600c80548392906111b290849061226e565b90915550506040805182815242602082015233917fdd2a19c3bdd089cbe77c04f5655f83de0504d6140d12c8667646f55d0557c4dc910160405180910390a2610a3d6001600655565b6112036118f4565b6001600160a01b03165f908152600a60205260409020805460ff19166001179055565b61122e6118f4565b610b1e611cf5565b61123e611a28565b5f61124b6012600a6123ae565b6112559083612238565b90505f82116112765760405162461bcd60e51b8152600401610a20906121e5565b6a084595161401484a0000008161128c60025490565b611296919061226e565b11156112b45760405162461bcd60e51b8152600401610a2090612281565b6112c566038d7ea4c6800083612238565b3410156113085760405162461bcd60e51b8152602060048201526011602482015270092dce6eaccccd2c6d2cadce84082ac82b607b1b6044820152606401610a20565b6113123382611921565b6040805182815242602082015233917f2e8ac5177a616f2aec08c3048f5021e4e9743ece034e8d83ba5caf76688bb475910160405180910390a25f61135e66038d7ea4c6800084612238565b9050803411156113f5575f336113748334612225565b6040515f81818185875af1925050503d805f81146113ad576040519150601f19603f3d011682016040523d82523d5f602084013e6113b2565b606091505b50509050806113f35760405162461bcd60e51b815260206004820152600d60248201526c1499599d5b990819985a5b1959609a1b6044820152606401610a20565b505b505050565b60606004805461093c906121ad565b611411611a28565b611419611a53565b335f9081526008602052604090206002015460ff166114685760405162461bcd60e51b815260206004820152600b60248201526a4e6f74207374616b696e6760a81b6044820152606401610a20565b335f90815260086020526040902054806114b75760405162461bcd60e51b815260206004820152601060248201526f139bc81d1bdad95b9cc81cdd185ad95960821b6044820152606401610a20565b6114c033611a7d565b335f90815260086020526040812081815560018101829055600201805460ff19169055600c80548392906114f5908490612225565b9091555061150690503033836119cb565b6040805182815242602082015233917f6f2d3e000c89d37446b7c0374c0125068ff316d1e3ee302336478a8cd03c2336910160405180910390a250610b1e6001600655565b5f336109ca8185856119cb565b6115606118f4565b47806115985760405162461bcd60e51b815260206004820152600760248201526609cde4082ac82b60cb1b6044820152606401610a20565b5f6115ab6005546001600160a01b031690565b6001600160a01b0316826040515f6040518083038185875af1925050503d805f81146115f2576040519150601f19603f3d011682016040523d82523d5f602084013e6115f7565b606091505b5050905080610ca15760405162461bcd60e51b815260206004820152600f60248201526e15da5d1a191c985dc819985a5b1959608a1b6044820152606401610a20565b5f805f61164684610ccd565b90506127106116576101f483612238565b611661919061224f565b915061166d8282612225565b925050915091565b6001600160a01b0381165f908152600860209081526040918290208251606081810185528254825260018301549382019390935260029091015460ff16151592810183905290916116e25750506040805180820190915260048152634e6f6e6560e01b6020820152919050565b5f8160200151426116f39190612225565b905062278d00811061172257505060408051808201909152600481526311dbdb1960e21b602082015292915050565b62093a80811061175157505060408051808201909152600681526529b4b63b32b960d11b602082015292915050565b505060408051808201909152600681526542726f6e7a6560d01b602082015292915050565b61177e6118f4565b5f61178b6012600a6123ae565b6117959083612238565b90505f82116117b65760405162461bcd60e51b8152600401610a20906121e5565b6a084595161401484a000000816117cc60025490565b6117d6919061226e565b11156117f45760405162461bcd60e51b8152600401610a2090612281565b6117fe8382611921565b604080518281524260208201526001600160a01b038516917f2e8ac5177a616f2aec08c3048f5021e4e9743ece034e8d83ba5caf76688bb4759101610eea565b6118466118f4565b6001600160a01b03811661188b5760405162461bcd60e51b815260206004820152600c60248201526b5a65726f206164647265737360a01b6044820152606401610a20565b600780546001600160a01b0319166001600160a01b0392909216919091179055565b6118b56118f4565b6001600160a01b0381166118de57604051631e4fbdf760e01b81525f6004820152602401610a20565b610a3d81611ca4565b6113f58383836001611d38565b6005546001600160a01b03163314610b1e5760405163118cdaa760e01b8152336004820152602401610a20565b6001600160a01b03821661194a5760405163ec442f0560e01b81525f6004820152602401610a20565b610ca15f8383611e0a565b6001600160a01b038381165f908152600160209081526040808320938616835292905220545f198110156113f357818110156119bd57604051637dc7a0d960e11b81526001600160a01b03841660048201526024810182905260448101839052606401610a20565b6113f384848484035f611d38565b6001600160a01b0383166119f457604051634b637e8f60e11b81525f6004820152602401610a20565b6001600160a01b038216611a1d5760405163ec442f0560e01b81525f6004820152602401610a20565b6113f5838383611e0a565b600554600160a01b900460ff1615610b1e5760405163d93c066560e01b815260040160405180910390fd5b600260065403611a7657604051633ee5aeb560e01b815260040160405180910390fd5b6002600655565b5f611a8782610ccd565b9050805f03611a94575050565b5f612710611aa46101f484612238565b611aae919061224f565b90505f611abb8284612225565b6001600160a01b0385165f90815260086020526040812042600190910155600d80549293508492909190611af090849061226e565b90915550508115801590611b2257506a084595161401484a00000082611b1560025490565b611b1f919061226e565b11155b15611b8557600754611b3d906001600160a01b031683611921565b600754604080518481524260208201526001600160a01b03909216917f6c067797988a2dd3bd54cb977e9c67efe4c19657b78b2fab848e46a571375c84910160405180910390a25b5f81118015611bb257506a084595161401484a00000081611ba560025490565b611baf919061226e565b11155b15611bc157611bc18482611921565b6040805182815260208101849052428183015290516001600160a01b038616917f56253d287efacdb2c4cd76dd03624a4821c1ce721d1152e8f5f5718f6087c9bf919081900360600190a250505050565b611c1a611f30565b6005805460ff60a01b191690557f5db9ee0a495bf2e6ff9c91a7834c1ba4fdd244a5e8aa4e537bd38aeae4b073aa335b6040516001600160a01b03909116815260200160405180910390a1565b5f80611c738342612225565b905062278d008110611c885750601492915050565b62093a808110611c9b5750600f92915050565b50600a92915050565b600580546001600160a01b038381166001600160a01b0319831681179093556040519116919082907f8be0079c531659141344cd1fd0a4f28419497f9722a3daafe3b4186f6b6457e0905f90a35050565b611cfd611a28565b6005805460ff60a01b1916600160a01b1790557f62e78cea01bee320cd4e420270b5ea74000d11b0c9f74754ebdbfc544b05a258611c4a3390565b6001600160a01b038416611d615760405163e602df0560e01b81525f6004820152602401610a20565b6001600160a01b038316611d8a57604051634a1406b160e11b81525f6004820152602401610a20565b6001600160a01b038085165f90815260016020908152604080832093871683529290522082905580156113f357826001600160a01b0316846001600160a01b03167f8c5be1e5ebec7d5bd14f71427d1e84f3dd0314c0f7b2291e5b200ac8c7c3b92584604051611dfc91815260200190565b60405180910390a350505050565b6001600160a01b038316611e34578060025f828254611e29919061226e565b90915550611ea49050565b6001600160a01b0383165f9081526020819052604090205481811015611e865760405163391434e360e21b81526001600160a01b03851660048201526024810182905260448101839052606401610a20565b6001600160a01b0384165f9081526020819052604090209082900390555b6001600160a01b038216611ec057600280548290039055611ede565b6001600160a01b0382165f9081526020819052604090208054820190555b816001600160a01b0316836001600160a01b03167fddf252ad1be2c89b69c2b068fc378daa952ba7f163c4a11628f55a4df523b3ef83604051611f2391815260200190565b60405180910390a3505050565b600554600160a01b900460ff16610b1e57604051638dfc202b60e01b815260040160405180910390fd5b80356001600160a01b0381168114611f70575f80fd5b919050565b5f60208284031215611f85575f80fd5b611f8e82611f5a565b9392505050565b5f81518084525f5b81811015611fb957602081850181015186830182015201611f9d565b505f602082860101526020601f19601f83011685010191505092915050565b602081525f611f8e6020830184611f95565b5f8060408385031215611ffb575f80fd5b61200483611f5a565b946020939093013593505050565b5f805f60608486031215612024575f80fd5b61202d84611f5a565b925061203b60208501611f5a565b9150604084013590509250925092565b634e487b7160e01b5f52604160045260245ffd5b5f805f60608486031215612071575f80fd5b61207a84611f5a565b925060208401359150604084013567ffffffffffffffff8082111561209d575f80fd5b818601915086601f8301126120b0575f80fd5b8135818111156120c2576120c261204b565b604051601f8201601f19908116603f011681019083821181831017156120ea576120ea61204b565b81604052828152896020848701011115612102575f80fd5b826020860160208301375f6020848301015280955050505050509250925092565b878152866020820152856040820152841515606082015260e060808201525f61214f60e0830186611f95565b60a08301949094525060c0015295945050505050565b5f60208284031215612175575f80fd5b5035919050565b5f806040838503121561218d575f80fd5b61219683611f5a565b91506121a460208401611f5a565b90509250929050565b600181811c908216806121c157607f821691505b6020821081036121df57634e487b7160e01b5f52602260045260245ffd5b50919050565b6020808252601290820152710416d6f756e74206d757374206265203e20360741b604082015260600190565b634e487b7160e01b5f52601160045260245ffd5b818103818111156109d0576109d0612211565b80820281158282048414176109d0576109d0612211565b5f8261226957634e487b7160e01b5f52601260045260245ffd5b500490565b808201808211156109d0576109d0612211565b60208082526013908201527213585e081cdd5c1c1b1e48195e18d959591959606a1b604082015260600190565b828152604060208201525f6122c66040830184611f95565b949350505050565b600181815b8085111561230857815f19048211156122ee576122ee612211565b808516156122fb57918102915b93841c93908002906122d3565b509250929050565b5f8261231e575060016109d0565b8161232a57505f6109d0565b8160018114612340576002811461234a57612366565b60019150506109d0565b60ff84111561235b5761235b612211565b50506001821b6109d0565b5060208310610133831016604e8410600b8410161715612389575081810a6109d0565b61239383836122ce565b805f19048211156123a6576123a6612211565b029392505050565b5f611f8e60ff84168361231056fea2646970667358221220c36524378322ae5b41fae136733fe5a84dfa5b872d7ec9371b9c8354919a6c6164736f6c63430008170033","opcodes":"PUSH1 0x80 PUSH1 0x40 MSTORE CALLVALUE DUP1 ISZERO PUSH3 0x10 JUMPI PUSH0 DUP1 REVERT JUMPDEST POP PUSH1 0x40 MLOAD PUSH3 0x2711 CODESIZE SUB DUP1 PUSH3 0x2711 DUP4 CODECOPY DUP2 ADD PUSH1 0x40 DUP2 SWAP1 MSTORE PUSH3 0x33 SWAP2 PUSH3 0x178 JUMP JUMPDEST CALLER PUSH1 0x40 MLOAD DUP1 PUSH1 0x40 ADD PUSH1 0x40 MSTORE DUP1 PUSH1 0x13 DUP2 MSTORE PUSH1 0x20 ADD PUSH32 0x43727970746F2049736C616E6420546F6B656E00000000000000000000000000 DUP2 MSTORE POP PUSH1 0x40 MLOAD DUP1 PUSH1 0x40 ADD PUSH1 0x40 MSTORE DUP1 PUSH1 0x3 DUP2 MSTORE PUSH1 0x20 ADD PUSH3 0x10D255 PUSH1 0xEA SHL DUP2 MSTORE POP DUP2 PUSH1 0x3 SWAP1 DUP2 PUSH3 0x97 SWAP2 SWAP1 PUSH3 0x245 JUMP JUMPDEST POP PUSH1 0x4 PUSH3 0xA6 DUP3 DUP3 PUSH3 0x245 JUMP JUMPDEST POP POP POP PUSH1 0x1 PUSH1 0x1 PUSH1 0xA0 SHL SUB DUP2 AND PUSH3 0xD7 JUMPI PUSH1 0x40 MLOAD PUSH4 0x1E4FBDF7 PUSH1 0xE0 SHL DUP2 MSTORE PUSH0 PUSH1 0x4 DUP3 ADD MSTORE PUSH1 0x24 ADD PUSH1 0x40 MLOAD DUP1 SWAP2 SUB SWAP1 REVERT JUMPDEST PUSH3 0xE2 DUP2 PUSH3 0x127 JUMP JUMPDEST POP PUSH1 0x1 PUSH1 0x6 SSTORE PUSH1 0x1 PUSH1 0x1 PUSH1 0xA0 SHL SUB DUP2 AND PUSH3 0xFE JUMPI CALLER PUSH3 0x100 JUMP JUMPDEST DUP1 JUMPDEST PUSH1 0x7 DUP1 SLOAD PUSH1 0x1 PUSH1 0x1 PUSH1 0xA0 SHL SUB NOT AND PUSH1 0x1 PUSH1 0x1 PUSH1 0xA0 SHL SUB SWAP3 SWAP1 SWAP3 AND SWAP2 SWAP1 SWAP2 OR SWAP1 SSTORE POP PUSH3 0x311 JUMP JUMPDEST PUSH1 0x5 DUP1 SLOAD PUSH1 0x1 PUSH1 0x1 PUSH1 0xA0 SHL SUB DUP4 DUP2 AND PUSH1 0x1 PUSH1 0x1 PUSH1 0xA0 SHL SUB NOT DUP4 AND DUP2 OR SWAP1 SWAP4 SSTORE PUSH1 0x40 MLOAD SWAP2 AND SWAP2 SWAP1 DUP3 SWAP1 PUSH32 0x8BE0079C531659141344CD1FD0A4F28419497F9722A3DAAFE3B4186F6B6457E0 SWAP1 PUSH0 SWAP1 LOG3 POP POP JUMP JUMPDEST PUSH0 PUSH1 0x20 DUP3 DUP5 SUB SLT ISZERO PUSH3 0x189 JUMPI PUSH0 DUP1 REVERT JUMPDEST DUP2 MLOAD PUSH1 0x1 PUSH1 0x1 PUSH1 0xA0 SHL SUB DUP2 AND DUP2 EQ PUSH3 0x1A0 JUMPI PUSH0 DUP1 REVERT JUMPDEST SWAP4 SWAP3 POP POP POP JUMP JUMPDEST PUSH4 0x4E487B71 PUSH1 0xE0 SHL PUSH0 MSTORE PUSH1 0x41 PUSH1 0x4 MSTORE PUSH1 0x24 PUSH0 REVERT JUMPDEST PUSH1 0x1 DUP2 DUP2 SHR SWAP1 DUP3 AND DUP1 PUSH3 0x1D0 JUMPI PUSH1 0x7F DUP3 AND SWAP2 POP JUMPDEST PUSH1 0x20 DUP3 LT DUP2 SUB PUSH3 0x1EF JUMPI PUSH4 0x4E487B71 PUSH1 0xE0 SHL PUSH0 MSTORE PUSH1 0x22 PUSH1 0x4 MSTORE PUSH1 0x24 PUSH0 REVERT JUMPDEST POP SWAP2 SWAP1 POP JUMP JUMPDEST PUSH1 0x1F DUP3 GT ISZERO PUSH3 0x240 JUMPI DUP1 PUSH0 MSTORE PUSH1 0x20 PUSH0 KECCAK256 PUSH1 0x1F DUP5 ADD PUSH1 0x5 SHR DUP2 ADD PUSH1 0x20 DUP6 LT ISZERO PUSH3 0x21C JUMPI POP DUP1 JUMPDEST PUSH1 0x1F DUP5 ADD PUSH1 0x5 SHR DUP3 ADD SWAP2 POP JUMPDEST DUP2 DUP2 LT ISZERO PUSH3 0x23D JUMPI PUSH0 DUP2 SSTORE PUSH1 0x1 ADD PUSH3 0x228 JUMP JUMPDEST POP POP JUMPDEST POP POP POP JUMP JUMPDEST DUP2 MLOAD PUSH1 0x1 PUSH1 0x1 PUSH1 0x40 SHL SUB DUP2 GT ISZERO PUSH3 0x261 JUMPI PUSH3 0x261 PUSH3 0x1A7 JUMP JUMPDEST PUSH3 0x279 DUP2 PUSH3 0x272 DUP5 SLOAD PUSH3 0x1BB JUMP JUMPDEST DUP5 PUSH3 0x1F5 JUMP JUMPDEST PUSH1 0x20 DUP1 PUSH1 0x1F DUP4 GT PUSH1 0x1 DUP2 EQ PUSH3 0x2AF JUMPI PUSH0 DUP5 ISZERO PUSH3 0x297 JUMPI POP DUP6 DUP4 ADD MLOAD JUMPDEST PUSH0 NOT PUSH1 0x3 DUP7 SWAP1 SHL SHR NOT AND PUSH1 0x1 DUP6 SWAP1 SHL OR DUP6 SSTORE PUSH3 0x309 JUMP JUMPDEST PUSH0 DUP6 DUP2 MSTORE PUSH1 0x20 DUP2 KECCAK256 PUSH1 0x1F NOT DUP7 AND SWAP2 JUMPDEST DUP3 DUP2 LT ISZERO PUSH3 0x2DF JUMPI DUP9 DUP7 ADD MLOAD DUP3 SSTORE SWAP5 DUP5 ADD SWAP5 PUSH1 0x1 SWAP1 SWAP2 ADD SWAP1 DUP5 ADD PUSH3 0x2BE JUMP JUMPDEST POP DUP6 DUP3 LT ISZERO PUSH3 0x2FD JUMPI DUP8 DUP6 ADD MLOAD PUSH0 NOT PUSH1 0x3 DUP9 SWAP1 SHL PUSH1 0xF8 AND SHR NOT AND DUP2 SSTORE JUMPDEST POP POP PUSH1 0x1 DUP5 PUSH1 0x1 SHL ADD DUP6 SSTORE JUMPDEST POP POP POP POP POP POP JUMP JUMPDEST PUSH2 0x23F2 DUP1 PUSH3 0x31F PUSH0 CODECOPY PUSH0 RETURN INVALID PUSH1 0x80 PUSH1 0x40 MSTORE PUSH1 0x4 CALLDATASIZE LT PUSH2 0x2D9 JUMPI PUSH0 CALLDATALOAD PUSH1 0xE0 SHR DUP1 PUSH4 0x715018A6 GT PUSH2 0x189 JUMPI DUP1 PUSH4 0xA9059CBB GT PUSH2 0xD8 JUMPI DUP1 PUSH4 0xDD62ED3E GT PUSH2 0x92 JUMPI DUP1 PUSH4 0xF06D3D31 GT PUSH2 0x6D JUMPI DUP1 PUSH4 0xF06D3D31 EQ PUSH2 0x8B1 JUMPI DUP1 PUSH4 0xF0DDA65C EQ PUSH2 0x8D0 JUMPI DUP1 PUSH4 0xF0F44260 EQ PUSH2 0x8EF JUMPI DUP1 PUSH4 0xF2FDE38B EQ PUSH2 0x90E JUMPI PUSH0 DUP1 REVERT JUMPDEST DUP1 PUSH4 0xDD62ED3E EQ PUSH2 0x844 JUMPI DUP1 PUSH4 0xE1A45218 EQ PUSH2 0x888 JUMPI DUP1 PUSH4 0xE3B1A1F4 EQ PUSH2 0x89D JUMPI PUSH0 DUP1 REVERT JUMPDEST DUP1 PUSH4 0xA9059CBB EQ PUSH2 0x798 JUMPI DUP1 PUSH4 0xABCE145B EQ PUSH2 0x7B7 JUMPI DUP1 PUSH4 0xB273890B EQ PUSH2 0x7CB JUMPI DUP1 PUSH4 0xC002D23D EQ PUSH2 0x7FF JUMPI DUP1 PUSH4 0xC1A0DB30 EQ PUSH2 0x819 JUMPI DUP1 PUSH4 0xD642AA02 EQ PUSH2 0x82F JUMPI PUSH0 DUP1 REVERT JUMPDEST DUP1 PUSH4 0x8DA5CB5B GT PUSH2 0x143 JUMPI DUP1 PUSH4 0x9168AE72 GT PUSH2 0x11E JUMPI DUP1 PUSH4 0x9168AE72 EQ PUSH2 0x701 JUMPI DUP1 PUSH4 0x95D89B41 EQ PUSH2 0x75B JUMPI DUP1 PUSH4 0x9BCF2F61 EQ PUSH2 0x76F JUMPI DUP1 PUSH4 0xA5CE413B EQ PUSH2 0x784 JUMPI PUSH0 DUP1 REVERT JUMPDEST DUP1 PUSH4 0x8DA5CB5B EQ PUSH2 0x6BD JUMPI DUP1 PUSH4 0x8DC9C26B EQ PUSH2 0x6DA JUMPI DUP1 PUSH4 0x8F5B8EE2 EQ PUSH2 0x6EE JUMPI PUSH0 DUP1 REVERT JUMPDEST DUP1 PUSH4 0x715018A6 EQ PUSH2 0x610 JUMPI DUP1 PUSH4 0x733BDEF0 EQ PUSH2 0x624 JUMPI DUP1 PUSH4 0x7547C7A3 EQ PUSH2 0x656 JUMPI DUP1 PUSH4 0x817B1CD2 EQ PUSH2 0x675 JUMPI DUP1 PUSH4 0x81CD08EE EQ PUSH2 0x68A JUMPI DUP1 PUSH4 0x8456CB59 EQ PUSH2 0x6A9 JUMPI PUSH0 DUP1 REVERT JUMPDEST DUP1 PUSH4 0x46565BED GT PUSH2 0x245 JUMPI DUP1 PUSH4 0x61D027B3 GT PUSH2 0x1FF JUMPI DUP1 PUSH4 0x6D0EFAEB GT PUSH2 0x1DA JUMPI DUP1 PUSH4 0x6D0EFAEB EQ PUSH2 0x56F JUMPI DUP1 PUSH4 0x6DDD474D EQ PUSH2 0x583 JUMPI DUP1 PUSH4 0x6E6BAB4B EQ PUSH2 0x5B1 JUMPI DUP1 PUSH4 0x70A08231 EQ PUSH2 0x5DC JUMPI PUSH0 DUP1 REVERT JUMPDEST DUP1 PUSH4 0x61D027B3 EQ PUSH2 0x4FA JUMPI DUP1 PUSH4 0x64AB8675 EQ PUSH2 0x531 JUMPI DUP1 PUSH4 0x6AA679D4 EQ PUSH2 0x550 JUMPI PUSH0 DUP1 REVERT JUMPDEST DUP1 PUSH4 0x46565BED EQ PUSH2 0x45C JUMPI DUP1 PUSH4 0x56973974 EQ PUSH2 0x47B JUMPI DUP1 PUSH4 0x5C74E025 EQ PUSH2 0x491 JUMPI DUP1 PUSH4 0x5C975ABB EQ PUSH2 0x4B0 JUMPI DUP1 PUSH4 0x5D6A618D EQ PUSH2 0x4CE JUMPI DUP1 PUSH4 0x5DBDDA69 EQ PUSH2 0x4E3 JUMPI PUSH0 DUP1 REVERT JUMPDEST DUP1 PUSH4 0x2FF2E9DC GT PUSH2 0x296 JUMPI DUP1 PUSH4 0x2FF2E9DC EQ PUSH2 0x3BF JUMPI DUP1 PUSH4 0x313CE567 EQ PUSH2 0x3DC JUMPI DUP1 PUSH4 0x32CB6B0C EQ PUSH2 0x3F7 JUMPI DUP1 PUSH4 0x372500AB EQ PUSH2 0x415 JUMPI DUP1 PUSH4 0x39B6AE94 EQ PUSH2 0x429 JUMPI DUP1 PUSH4 0x3F4BA83A EQ PUSH2 0x448 JUMPI PUSH0 DUP1 REVERT JUMPDEST DUP1 PUSH4 0x23B14A5 EQ PUSH2 0x2DD JUMPI DUP1 PUSH4 0x6FDDE03 EQ PUSH2 0x31B JUMPI DUP1 PUSH4 0x95EA7B3 EQ PUSH2 0x33C JUMPI DUP1 PUSH4 0xBDC0CDA EQ PUSH2 0x36B JUMPI DUP1 PUSH4 0x18160DDD EQ PUSH2 0x38C JUMPI DUP1 PUSH4 0x23B872DD EQ PUSH2 0x3A0 JUMPI JUMPDEST PUSH0 DUP1 REVERT JUMPDEST CALLVALUE DUP1 ISZERO PUSH2 0x2E8 JUMPI PUSH0 DUP1 REVERT JUMPDEST POP PUSH2 0x308 PUSH2 0x2F7 CALLDATASIZE PUSH1 0x4 PUSH2 0x1F75 JUMP JUMPDEST PUSH1 0xB PUSH1 0x20 MSTORE PUSH0 SWAP1 DUP2 MSTORE PUSH1 0x40 SWAP1 KECCAK256 SLOAD DUP2 JUMP JUMPDEST PUSH1 0x40 MLOAD SWAP1 DUP2 MSTORE PUSH1 0x20 ADD JUMPDEST PUSH1 0x40 MLOAD DUP1 SWAP2 SUB SWAP1 RETURN JUMPDEST CALLVALUE DUP1 ISZERO PUSH2 0x326 JUMPI PUSH0 DUP1 REVERT JUMPDEST POP PUSH2 0x32F PUSH2 0x92D JUMP JUMPDEST PUSH1 0x40 MLOAD PUSH2 0x312 SWAP2 SWAP1 PUSH2 0x1FD8 JUMP JUMPDEST CALLVALUE DUP1 ISZERO PUSH2 0x347 JUMPI PUSH0 DUP1 REVERT JUMPDEST POP PUSH2 0x35B PUSH2 0x356 CALLDATASIZE PUSH1 0x4 PUSH2 0x1FEA JUMP JUMPDEST PUSH2 0x9BD JUMP JUMPDEST PUSH1 0x40 MLOAD SWAP1 ISZERO ISZERO DUP2 MSTORE PUSH1 0x20 ADD PUSH2 0x312 JUMP JUMPDEST CALLVALUE DUP1 ISZERO PUSH2 0x376 JUMPI PUSH0 DUP1 REVERT JUMPDEST POP PUSH2 0x38A PUSH2 0x385 CALLDATASIZE PUSH1 0x4 PUSH2 0x1F75 JUMP JUMPDEST PUSH2 0x9D6 JUMP JUMPDEST STOP JUMPDEST CALLVALUE DUP1 ISZERO PUSH2 0x397 JUMPI PUSH0 DUP1 REVERT JUMPDEST POP PUSH1 0x2 SLOAD PUSH2 0x308 JUMP JUMPDEST CALLVALUE DUP1 ISZERO PUSH2 0x3AB JUMPI PUSH0 DUP1 REVERT JUMPDEST POP PUSH2 0x35B PUSH2 0x3BA CALLDATASIZE PUSH1 0x4 PUSH2 0x2012 JUMP JUMPDEST PUSH2 0xA40 JUMP JUMPDEST CALLVALUE DUP1 ISZERO PUSH2 0x3CA JUMPI PUSH0 DUP1 REVERT JUMPDEST POP PUSH2 0x308 PUSH10 0xD3C21BCECCEDA1000000 DUP2 JUMP JUMPDEST CALLVALUE DUP1 ISZERO PUSH2 0x3E7 JUMPI PUSH0 DUP1 REVERT JUMPDEST POP PUSH1 0x40 MLOAD PUSH1 0x12 DUP2 MSTORE PUSH1 0x20 ADD PUSH2 0x312 JUMP JUMPDEST CALLVALUE DUP1 ISZERO PUSH2 0x402 JUMPI PUSH0 DUP1 REVERT JUMPDEST POP PUSH2 0x308 PUSH11 0x84595161401484A000000 DUP2 JUMP JUMPDEST CALLVALUE DUP1 ISZERO PUSH2 0x420 JUMPI PUSH0 DUP1 REVERT JUMPDEST POP PUSH2 0x38A PUSH2 0xA63 JUMP JUMPDEST CALLVALUE DUP1 ISZERO PUSH2 0x434 JUMPI PUSH0 DUP1 REVERT JUMPDEST POP PUSH2 0x38A PUSH2 0x443 CALLDATASIZE PUSH1 0x4 PUSH2 0x1FEA JUMP JUMPDEST PUSH2 0xB20 JUMP JUMPDEST CALLVALUE DUP1 ISZERO PUSH2 0x453 JUMPI PUSH0 DUP1 REVERT JUMPDEST POP PUSH2 0x38A PUSH2 0xC13 JUMP JUMPDEST CALLVALUE DUP1 ISZERO PUSH2 0x467 JUMPI PUSH0 DUP1 REVERT JUMPDEST POP PUSH2 0x38A PUSH2 0x476 CALLDATASIZE PUSH1 0x4 PUSH2 0x1FEA JUMP JUMPDEST PUSH2 0xC23 JUMP JUMPDEST CALLVALUE DUP1 ISZERO PUSH2 0x486 JUMPI PUSH0 DUP1 REVERT JUMPDEST POP PUSH2 0x308 PUSH3 0x278D00 DUP2 JUMP JUMPDEST CALLVALUE DUP1 ISZERO PUSH2 0x49C JUMPI PUSH0 DUP1 REVERT JUMPDEST POP PUSH2 0x38A PUSH2 0x4AB CALLDATASIZE PUSH1 0x4 PUSH2 0x1F75 JUMP JUMPDEST PUSH2 0xCA5 JUMP JUMPDEST CALLVALUE DUP1 ISZERO PUSH2 0x4BB JUMPI PUSH0 DUP1 REVERT JUMPDEST POP PUSH1 0x5 SLOAD PUSH1 0x1 PUSH1 0xA0 SHL SWAP1 DIV PUSH1 0xFF AND PUSH2 0x35B JUMP JUMPDEST CALLVALUE DUP1 ISZERO PUSH2 0x4D9 JUMPI PUSH0 DUP1 REVERT JUMPDEST POP PUSH2 0x308 PUSH2 0x4E20 DUP2 JUMP JUMPDEST CALLVALUE DUP1 ISZERO PUSH2 0x4EE JUMPI PUSH0 DUP1 REVERT JUMPDEST POP PUSH2 0x308 PUSH4 0x1E13380 DUP2 JUMP JUMPDEST CALLVALUE DUP1 ISZERO PUSH2 0x505 JUMPI PUSH0 DUP1 REVERT JUMPDEST POP PUSH1 0x7 SLOAD PUSH2 0x519 SWAP1 PUSH1 0x1 PUSH1 0x1 PUSH1 0xA0 SHL SUB AND DUP2 JUMP JUMPDEST PUSH1 0x40 MLOAD PUSH1 0x1 PUSH1 0x1 PUSH1 0xA0 SHL SUB SWAP1 SWAP2 AND DUP2 MSTORE PUSH1 0x20 ADD PUSH2 0x312 JUMP JUMPDEST CALLVALUE DUP1 ISZERO PUSH2 0x53C JUMPI PUSH0 DUP1 REVERT JUMPDEST POP PUSH2 0x308 PUSH2 0x54B CALLDATASIZE PUSH1 0x4 PUSH2 0x1F75 JUMP JUMPDEST PUSH2 0xCCD JUMP JUMPDEST CALLVALUE DUP1 ISZERO PUSH2 0x55B JUMPI PUSH0 DUP1 REVERT JUMPDEST POP PUSH2 0x38A PUSH2 0x56A CALLDATASIZE PUSH1 0x4 PUSH2 0x205F JUMP JUMPDEST PUSH2 0xDC6 JUMP JUMPDEST CALLVALUE DUP1 ISZERO PUSH2 0x57A JUMPI PUSH0 DUP1 REVERT JUMPDEST POP PUSH2 0x308 PUSH1 0xF DUP2 JUMP JUMPDEST CALLVALUE DUP1 ISZERO PUSH2 0x58E JUMPI PUSH0 DUP1 REVERT JUMPDEST POP PUSH2 0x35B PUSH2 0x59D CALLDATASIZE PUSH1 0x4 PUSH2 0x1F75 JUMP JUMPDEST PUSH1 0xA PUSH1 0x20 MSTORE PUSH0 SWAP1 DUP2 MSTORE PUSH1 0x40 SWAP1 KECCAK256 SLOAD PUSH1 0xFF AND DUP2 JUMP JUMPDEST CALLVALUE DUP1 ISZERO PUSH2 0x5BC JUMPI PUSH0 DUP1 REVERT JUMPDEST POP PUSH2 0x308 PUSH2 0x5CB CALLDATASIZE PUSH1 0x4 PUSH2 0x1F75 JUMP JUMPDEST PUSH1 0x9 PUSH1 0x20 MSTORE PUSH0 SWAP1 DUP2 MSTORE PUSH1 0x40 SWAP1 KECCAK256 SLOAD DUP2 JUMP JUMPDEST CALLVALUE DUP1 ISZERO PUSH2 0x5E7 JUMPI PUSH0 DUP1 REVERT JUMPDEST POP PUSH2 0x308 PUSH2 0x5F6 CALLDATASIZE PUSH1 0x4 PUSH2 0x1F75 JUMP JUMPDEST PUSH1 0x1 PUSH1 0x1 PUSH1 0xA0 SHL SUB AND PUSH0 SWAP1 DUP2 MSTORE PUSH1 0x20 DUP2 SWAP1 MSTORE PUSH1 0x40 SWAP1 KECCAK256 SLOAD SWAP1 JUMP JUMPDEST CALLVALUE DUP1 ISZERO PUSH2 0x61B JUMPI PUSH0 DUP1 REVERT JUMPDEST POP PUSH2 0x38A PUSH2 0xEF7 JUMP JUMPDEST CALLVALUE DUP1 ISZERO PUSH2 0x62F JUMPI PUSH0 DUP1 REVERT JUMPDEST POP PUSH2 0x643 PUSH2 0x63E CALLDATASIZE PUSH1 0x4 PUSH2 0x1F75 JUMP JUMPDEST PUSH2 0xF08 JUMP JUMPDEST PUSH1 0x40 MLOAD PUSH2 0x312 SWAP8 SWAP7 SWAP6 SWAP5 SWAP4 SWAP3 SWAP2 SWAP1 PUSH2 0x2123 JUMP JUMPDEST CALLVALUE DUP1 ISZERO PUSH2 0x661 JUMPI PUSH0 DUP1 REVERT JUMPDEST POP PUSH2 0x38A PUSH2 0x670 CALLDATASIZE PUSH1 0x4 PUSH2 0x2165 JUMP JUMPDEST PUSH2 0x10A3 JUMP JUMPDEST CALLVALUE DUP1 ISZERO PUSH2 0x680 JUMPI PUSH0 DUP1 REVERT JUMPDEST POP PUSH2 0x308 PUSH1 0xC SLOAD DUP2 JUMP JUMPDEST CALLVALUE DUP1 ISZERO PUSH2 0x695 JUMPI PUSH0 DUP1 REVERT JUMPDEST POP PUSH2 0x38A PUSH2 0x6A4 CALLDATASIZE PUSH1 0x4 PUSH2 0x1F75 JUMP JUMPDEST PUSH2 0x11FB JUMP JUMPDEST CALLVALUE DUP1 ISZERO PUSH2 0x6B4 JUMPI PUSH0 DUP1 REVERT JUMPDEST POP PUSH2 0x38A PUSH2 0x1226 JUMP JUMPDEST CALLVALUE DUP1 ISZERO PUSH2 0x6C8 JUMPI PUSH0 DUP1 REVERT JUMPDEST POP PUSH1 0x5 SLOAD PUSH1 0x1 PUSH1 0x1 PUSH1 0xA0 SHL SUB AND PUSH2 0x519 JUMP JUMPDEST CALLVALUE DUP1 ISZERO PUSH2 0x6E5 JUMPI PUSH0 DUP1 REVERT JUMPDEST POP PUSH2 0x308 PUSH1 0xA DUP2 JUMP JUMPDEST PUSH2 0x38A PUSH2 0x6FC CALLDATASIZE PUSH1 0x4 PUSH2 0x2165 JUMP JUMPDEST PUSH2 0x1236 JUMP JUMPDEST CALLVALUE DUP1 ISZERO PUSH2 0x70C JUMPI PUSH0 DUP1 REVERT JUMPDEST POP PUSH2 0x73E PUSH2 0x71B CALLDATASIZE PUSH1 0x4 PUSH2 0x1F75 JUMP JUMPDEST PUSH1 0x8 PUSH1 0x20 MSTORE PUSH0 SWAP1 DUP2 MSTORE PUSH1 0x40 SWAP1 KECCAK256 DUP1 SLOAD PUSH1 0x1 DUP3 ADD SLOAD PUSH1 0x2 SWAP1 SWAP3 ADD SLOAD SWAP1 SWAP2 SWAP1 PUSH1 0xFF AND DUP4 JUMP JUMPDEST PUSH1 0x40 DUP1 MLOAD SWAP4 DUP5 MSTORE PUSH1 0x20 DUP5 ADD SWAP3 SWAP1 SWAP3 MSTORE ISZERO ISZERO SWAP1 DUP3 ADD MSTORE PUSH1 0x60 ADD PUSH2 0x312 JUMP JUMPDEST CALLVALUE DUP1 ISZERO PUSH2 0x766 JUMPI PUSH0 DUP1 REVERT JUMPDEST POP PUSH2 0x32F PUSH2 0x13FA JUMP JUMPDEST CALLVALUE DUP1 ISZERO PUSH2 0x77A JUMPI PUSH0 DUP1 REVERT JUMPDEST POP PUSH2 0x308 PUSH1 0xD SLOAD DUP2 JUMP JUMPDEST CALLVALUE DUP1 ISZERO PUSH2 0x78F JUMPI PUSH0 DUP1 REVERT JUMPDEST POP PUSH2 0x38A PUSH2 0x1409 JUMP JUMPDEST CALLVALUE DUP1 ISZERO PUSH2 0x7A3 JUMPI PUSH0 DUP1 REVERT JUMPDEST POP PUSH2 0x35B PUSH2 0x7B2 CALLDATASIZE PUSH1 0x4 PUSH2 0x1FEA JUMP JUMPDEST PUSH2 0x154B JUMP JUMPDEST CALLVALUE DUP1 ISZERO PUSH2 0x7C2 JUMPI PUSH0 DUP1 REVERT JUMPDEST POP PUSH2 0x38A PUSH2 0x1558 JUMP JUMPDEST CALLVALUE DUP1 ISZERO PUSH2 0x7D6 JUMPI PUSH0 DUP1 REVERT JUMPDEST POP PUSH2 0x7EA PUSH2 0x7E5 CALLDATASIZE PUSH1 0x4 PUSH2 0x1F75 JUMP JUMPDEST PUSH2 0x163A JUMP JUMPDEST PUSH1 0x40 DUP1 MLOAD SWAP3 DUP4 MSTORE PUSH1 0x20 DUP4 ADD SWAP2 SWAP1 SWAP2 MSTORE ADD PUSH2 0x312 JUMP JUMPDEST CALLVALUE DUP1 ISZERO PUSH2 0x80A JUMPI PUSH0 DUP1 REVERT JUMPDEST POP PUSH2 0x308 PUSH7 0x38D7EA4C68000 DUP2 JUMP JUMPDEST CALLVALUE DUP1 ISZERO PUSH2 0x824 JUMPI PUSH0 DUP1 REVERT JUMPDEST POP PUSH2 0x308 PUSH3 0x93A80 DUP2 JUMP JUMPDEST CALLVALUE DUP1 ISZERO PUSH2 0x83A JUMPI PUSH0 DUP1 REVERT JUMPDEST POP PUSH2 0x308 PUSH2 0x1F4 DUP2 JUMP JUMPDEST CALLVALUE DUP1 ISZERO PUSH2 0x84F JUMPI PUSH0 DUP1 REVERT JUMPDEST POP PUSH2 0x308 PUSH2 0x85E CALLDATASIZE PUSH1 0x4 PUSH2 0x217C JUMP JUMPDEST PUSH1 0x1 PUSH1 0x1 PUSH1 0xA0 SHL SUB SWAP2 DUP3 AND PUSH0 SWAP1 DUP2 MSTORE PUSH1 0x1 PUSH1 0x20 SWAP1 DUP2 MSTORE PUSH1 0x40 DUP1 DUP4 KECCAK256 SWAP4 SWAP1 SWAP5 AND DUP3 MSTORE SWAP2 SWAP1 SWAP2 MSTORE KECCAK256 SLOAD SWAP1 JUMP JUMPDEST CALLVALUE DUP1 ISZERO PUSH2 0x893 JUMPI PUSH0 DUP1 REVERT JUMPDEST POP PUSH2 0x308 PUSH2 0x2710 DUP2 JUMP JUMPDEST CALLVALUE DUP1 ISZERO PUSH2 0x8A8 JUMPI PUSH0 DUP1 REVERT JUMPDEST POP PUSH2 0x308 PUSH1 0x14 DUP2 JUMP JUMPDEST CALLVALUE DUP1 ISZERO PUSH2 0x8BC JUMPI PUSH0 DUP1 REVERT JUMPDEST POP PUSH2 0x32F PUSH2 0x8CB CALLDATASIZE PUSH1 0x4 PUSH2 0x1F75 JUMP JUMPDEST PUSH2 0x1675 JUMP JUMPDEST CALLVALUE DUP1 ISZERO PUSH2 0x8DB JUMPI PUSH0 DUP1 REVERT JUMPDEST POP PUSH2 0x38A PUSH2 0x8EA CALLDATASIZE PUSH1 0x4 PUSH2 0x1FEA JUMP JUMPDEST PUSH2 0x1776 JUMP JUMPDEST CALLVALUE DUP1 ISZERO PUSH2 0x8FA JUMPI PUSH0 DUP1 REVERT JUMPDEST POP PUSH2 0x38A PUSH2 0x909 CALLDATASIZE PUSH1 0x4 PUSH2 0x1F75 JUMP JUMPDEST PUSH2 0x183E JUMP JUMPDEST CALLVALUE DUP1 ISZERO PUSH2 0x919 JUMPI PUSH0 DUP1 REVERT JUMPDEST POP PUSH2 0x38A PUSH2 0x928 CALLDATASIZE PUSH1 0x4 PUSH2 0x1F75 JUMP JUMPDEST PUSH2 0x18AD JUMP JUMPDEST PUSH1 0x60 PUSH1 0x3 DUP1 SLOAD PUSH2 0x93C SWAP1 PUSH2 0x21AD JUMP JUMPDEST DUP1 PUSH1 0x1F ADD PUSH1 0x20 DUP1 SWAP2 DIV MUL PUSH1 0x20 ADD PUSH1 0x40 MLOAD SWAP1 DUP2 ADD PUSH1 0x40 MSTORE DUP1 SWAP3 SWAP2 SWAP1 DUP2 DUP2 MSTORE PUSH1 0x20 ADD DUP3 DUP1 SLOAD PUSH2 0x968 SWAP1 PUSH2 0x21AD JUMP JUMPDEST DUP1 ISZERO PUSH2 0x9B3 JUMPI DUP1 PUSH1 0x1F LT PUSH2 0x98A JUMPI PUSH2 0x100 DUP1 DUP4 SLOAD DIV MUL DUP4 MSTORE SWAP2 PUSH1 0x20 ADD SWAP2 PUSH2 0x9B3 JUMP JUMPDEST DUP3 ADD SWAP2 SWAP1 PUSH0 MSTORE PUSH1 0x20 PUSH0 KECCAK256 SWAP1 JUMPDEST DUP2 SLOAD DUP2 MSTORE SWAP1 PUSH1 0x1 ADD SWAP1 PUSH1 0x20 ADD DUP1 DUP4 GT PUSH2 0x996 JUMPI DUP3 SWAP1 SUB PUSH1 0x1F AND DUP3 ADD SWAP2 JUMPDEST POP POP POP POP POP SWAP1 POP SWAP1 JUMP JUMPDEST PUSH0 CALLER PUSH2 0x9CA DUP2 DUP6 DUP6 PUSH2 0x18E7 JUMP JUMPDEST PUSH1 0x1 SWAP2 POP POP JUMPDEST SWAP3 SWAP2 POP POP JUMP JUMPDEST PUSH2 0x9DE PUSH2 0x18F4 JUMP JUMPDEST PUSH1 0x2 SLOAD ISZERO PUSH2 0xA29 JUMPI PUSH1 0x40 MLOAD PUSH3 0x461BCD PUSH1 0xE5 SHL DUP2 MSTORE PUSH1 0x20 PUSH1 0x4 DUP3 ADD MSTORE PUSH1 0x13 PUSH1 0x24 DUP3 ADD MSTORE PUSH19 0x105B1C9958591E481A5B9A5D1A585B1A5E9959 PUSH1 0x6A SHL PUSH1 0x44 DUP3 ADD MSTORE PUSH1 0x64 ADD JUMPDEST PUSH1 0x40 MLOAD DUP1 SWAP2 SUB SWAP1 REVERT JUMPDEST PUSH2 0xA3D DUP2 PUSH10 0xD3C21BCECCEDA1000000 PUSH2 0x1921 JUMP JUMPDEST POP JUMP JUMPDEST PUSH0 CALLER PUSH2 0xA4D DUP6 DUP3 DUP6 PUSH2 0x1955 JUMP JUMPDEST PUSH2 0xA58 DUP6 DUP6 DUP6 PUSH2 0x19CB JUMP JUMPDEST POP PUSH1 0x1 SWAP5 SWAP4 POP POP POP POP JUMP JUMPDEST PUSH2 0xA6B PUSH2 0x1A28 JUMP JUMPDEST PUSH2 0xA73 PUSH2 0x1A53 JUMP JUMPDEST CALLER PUSH0 SWAP1 DUP2 MSTORE PUSH1 0x8 PUSH1 0x20 MSTORE PUSH1 0x40 SWAP1 KECCAK256 PUSH1 0x2 ADD SLOAD PUSH1 0xFF AND PUSH2 0xAC2 JUMPI PUSH1 0x40 MLOAD PUSH3 0x461BCD PUSH1 0xE5 SHL DUP2 MSTORE PUSH1 0x20 PUSH1 0x4 DUP3 ADD MSTORE PUSH1 0xB PUSH1 0x24 DUP3 ADD MSTORE PUSH11 0x4E6F74207374616B696E67 PUSH1 0xA8 SHL PUSH1 0x44 DUP3 ADD MSTORE PUSH1 0x64 ADD PUSH2 0xA20 JUMP JUMPDEST PUSH0 PUSH2 0xACC CALLER PUSH2 0xCCD JUMP JUMPDEST SWAP1 POP PUSH0 DUP2 GT PUSH2 0xB0A JUMPI PUSH1 0x40 MLOAD PUSH3 0x461BCD PUSH1 0xE5 SHL DUP2 MSTORE PUSH1 0x20 PUSH1 0x4 DUP3 ADD MSTORE PUSH1 0xA PUSH1 0x24 DUP3 ADD MSTORE PUSH10 0x4E6F2072657761726473 PUSH1 0xB0 SHL PUSH1 0x44 DUP3 ADD MSTORE PUSH1 0x64 ADD PUSH2 0xA20 JUMP JUMPDEST PUSH2 0xB13 CALLER PUSH2 0x1A7D JUMP JUMPDEST POP PUSH2 0xB1E PUSH1 0x1 PUSH1 0x6 SSTORE JUMP JUMPDEST JUMP JUMPDEST PUSH2 0xB28 PUSH2 0x18F4 JUMP JUMPDEST PUSH2 0x2710 DUP2 LT ISZERO PUSH2 0xB72 JUMPI PUSH1 0x40 MLOAD PUSH3 0x461BCD PUSH1 0xE5 SHL DUP2 MSTORE PUSH1 0x20 PUSH1 0x4 DUP3 ADD MSTORE PUSH1 0x15 PUSH1 0x24 DUP3 ADD MSTORE PUSH21 0x4D757374206265203E3D2031782028313030303029 PUSH1 0x58 SHL PUSH1 0x44 DUP3 ADD MSTORE PUSH1 0x64 ADD PUSH2 0xA20 JUMP JUMPDEST PUSH2 0x4E20 DUP2 GT ISZERO PUSH2 0xBBB JUMPI PUSH1 0x40 MLOAD PUSH3 0x461BCD PUSH1 0xE5 SHL DUP2 MSTORE PUSH1 0x20 PUSH1 0x4 DUP3 ADD MSTORE PUSH1 0x14 PUSH1 0x24 DUP3 ADD MSTORE PUSH20 0x4361707065642061742032782028323030303029 PUSH1 0x60 SHL PUSH1 0x44 DUP3 ADD MSTORE PUSH1 0x64 ADD PUSH2 0xA20 JUMP JUMPDEST PUSH1 0x1 PUSH1 0x1 PUSH1 0xA0 SHL SUB DUP3 AND PUSH0 DUP2 DUP2 MSTORE PUSH1 0x9 PUSH1 0x20 MSTORE PUSH1 0x40 SWAP1 DUP2 SWAP1 KECCAK256 DUP4 SWAP1 SSTORE MLOAD PUSH32 0xFB12832A43F90DCF2E6EB6EA0B977F34217C2802C7BAB9C6A387D8F52CE8E3D1 SWAP1 PUSH2 0xC07 SWAP1 DUP5 DUP2 MSTORE PUSH1 0x20 ADD SWAP1 JUMP JUMPDEST PUSH1 0x40 MLOAD DUP1 SWAP2 SUB SWAP1 LOG2 POP POP JUMP JUMPDEST PUSH2 0xC1B PUSH2 0x18F4 JUMP JUMPDEST PUSH2 0xB1E PUSH2 0x1C12 JUMP JUMPDEST CALLER PUSH0 SWAP1 DUP2 MSTORE PUSH1 0xA PUSH1 0x20 MSTORE PUSH1 0x40 SWAP1 KECCAK256 SLOAD PUSH1 0xFF AND PUSH2 0xC77 JUMPI PUSH1 0x40 MLOAD PUSH3 0x461BCD PUSH1 0xE5 SHL DUP2 MSTORE PUSH1 0x20 PUSH1 0x4 DUP3 ADD MSTORE PUSH1 0x13 PUSH1 0x24 DUP3 ADD MSTORE PUSH19 0x4F6E6C792067616D6520636F6E747261637473 PUSH1 0x68 SHL PUSH1 0x44 DUP3 ADD MSTORE PUSH1 0x64 ADD PUSH2 0xA20 JUMP JUMPDEST PUSH0 DUP2 GT PUSH2 0xC96 JUMPI PUSH1 0x40 MLOAD PUSH3 0x461BCD PUSH1 0xE5 SHL DUP2 MSTORE PUSH1 0x4 ADD PUSH2 0xA20 SWAP1 PUSH2 0x21E5 JUMP JUMPDEST PUSH2 0xCA1 DUP3 ADDRESS DUP4 PUSH2 0x19CB JUMP JUMPDEST POP POP JUMP JUMPDEST PUSH2 0xCAD PUSH2 0x18F4 JUMP JUMPDEST PUSH1 0x1 PUSH1 0x1 PUSH1 0xA0 SHL SUB AND PUSH0 SWAP1 DUP2 MSTORE PUSH1 0xA PUSH1 0x20 MSTORE PUSH1 0x40 SWAP1 KECCAK256 DUP1 SLOAD PUSH1 0xFF NOT AND SWAP1 SSTORE JUMP JUMPDEST PUSH1 0x1 PUSH1 0x1 PUSH1 0xA0 SHL SUB DUP2 AND PUSH0 SWAP1 DUP2 MSTORE PUSH1 0x8 PUSH1 0x20 SWAP1 DUP2 MSTORE PUSH1 0x40 DUP1 DUP4 KECCAK256 DUP2 MLOAD PUSH1 0x60 DUP2 ADD DUP4 MSTORE DUP2 SLOAD DUP2 MSTORE PUSH1 0x1 DUP3 ADD SLOAD SWAP4 DUP2 ADD SWAP4 SWAP1 SWAP4 MSTORE PUSH1 0x2 ADD SLOAD PUSH1 0xFF AND ISZERO DUP1 ISZERO SWAP2 DUP4 ADD SWAP2 SWAP1 SWAP2 MSTORE DUP1 PUSH2 0xD1A JUMPI POP DUP1 MLOAD ISZERO JUMPDEST ISZERO PUSH2 0xD27 JUMPI POP PUSH0 SWAP3 SWAP2 POP POP JUMP JUMPDEST PUSH0 DUP2 PUSH1 0x20 ADD MLOAD TIMESTAMP PUSH2 0xD38 SWAP2 SWAP1 PUSH2 0x2225 JUMP JUMPDEST SWAP1 POP PUSH0 PUSH2 0xD48 DUP4 PUSH1 0x20 ADD MLOAD PUSH2 0x1C67 JUMP JUMPDEST PUSH1 0x1 PUSH1 0x1 PUSH1 0xA0 SHL SUB DUP7 AND PUSH0 SWAP1 DUP2 MSTORE PUSH1 0x9 PUSH1 0x20 MSTORE PUSH1 0x40 DUP2 KECCAK256 SLOAD SWAP2 SWAP3 POP DUP2 SWAP1 SUB PUSH2 0xD6F JUMPI POP PUSH2 0x2710 JUMPDEST PUSH0 PUSH2 0xD7F PUSH4 0x1E13380 PUSH1 0x64 PUSH2 0x2238 JUMP JUMPDEST DUP6 MLOAD DUP6 SWAP1 PUSH2 0xD8E SWAP1 DUP7 SWAP1 PUSH2 0x2238 JUMP JUMPDEST PUSH2 0xD98 SWAP2 SWAP1 PUSH2 0x2238 JUMP JUMPDEST PUSH2 0xDA2 SWAP2 SWAP1 PUSH2 0x224F JUMP JUMPDEST SWAP1 POP PUSH2 0x2710 PUSH2 0xDB1 DUP4 DUP4 PUSH2 0x2238 JUMP JUMPDEST PUSH2 0xDBB SWAP2 SWAP1 PUSH2 0x224F JUMP JUMPDEST SWAP8 SWAP7 POP POP POP POP POP POP POP JUMP JUMPDEST CALLER PUSH0 SWAP1 DUP2 MSTORE PUSH1 0xA PUSH1 0x20 MSTORE PUSH1 0x40 SWAP1 KECCAK256 SLOAD PUSH1 0xFF AND PUSH2 0xE1A JUMPI PUSH1 0x40 MLOAD PUSH3 0x461BCD PUSH1 0xE5 SHL DUP2 MSTORE PUSH1 0x20 PUSH1 0x4 DUP3 ADD MSTORE PUSH1 0x13 PUSH1 0x24 DUP3 ADD MSTORE PUSH19 0x4F6E6C792067616D6520636F6E747261637473 PUSH1 0x68 SHL PUSH1 0x44 DUP3 ADD MSTORE PUSH1 0x64 ADD PUSH2 0xA20 JUMP JUMPDEST PUSH0 DUP3 GT PUSH2 0xE39 JUMPI PUSH1 0x40 MLOAD PUSH3 0x461BCD PUSH1 0xE5 SHL DUP2 MSTORE PUSH1 0x4 ADD PUSH2 0xA20 SWAP1 PUSH2 0x21E5 JUMP JUMPDEST PUSH11 0x84595161401484A000000 DUP3 PUSH2 0xE4F PUSH1 0x2 SLOAD SWAP1 JUMP JUMPDEST PUSH2 0xE59 SWAP2 SWAP1 PUSH2 0x226E JUMP JUMPDEST GT ISZERO PUSH2 0xE77 JUMPI PUSH1 0x40 MLOAD PUSH3 0x461BCD PUSH1 0xE5 SHL DUP2 MSTORE PUSH1 0x4 ADD PUSH2 0xA20 SWAP1 PUSH2 0x2281 JUMP JUMPDEST PUSH2 0xE81 DUP4 DUP4 PUSH2 0x1921 JUMP JUMPDEST PUSH1 0x1 PUSH1 0x1 PUSH1 0xA0 SHL SUB DUP4 AND PUSH0 SWAP1 DUP2 MSTORE PUSH1 0xB PUSH1 0x20 MSTORE PUSH1 0x40 DUP2 KECCAK256 DUP1 SLOAD DUP5 SWAP3 SWAP1 PUSH2 0xEA8 SWAP1 DUP5 SWAP1 PUSH2 0x226E JUMP JUMPDEST SWAP3 POP POP DUP2 SWAP1 SSTORE POP DUP3 PUSH1 0x1 PUSH1 0x1 PUSH1 0xA0 SHL SUB AND PUSH32 0x9DFCF239A23B6AD6A240CE003294522254489E0B77B4A2B547169AAB4240A9CC DUP4 DUP4 PUSH1 0x40 MLOAD PUSH2 0xEEA SWAP3 SWAP2 SWAP1 PUSH2 0x22AE JUMP JUMPDEST PUSH1 0x40 MLOAD DUP1 SWAP2 SUB SWAP1 LOG2 POP POP POP JUMP JUMPDEST PUSH2 0xEFF PUSH2 0x18F4 JUMP JUMPDEST PUSH2 0xB1E PUSH0 PUSH2 0x1CA4 JUMP JUMPDEST PUSH1 0x1 PUSH1 0x1 PUSH1 0xA0 SHL SUB DUP2 AND PUSH0 SWAP1 DUP2 MSTORE PUSH1 0x8 PUSH1 0x20 SWAP1 DUP2 MSTORE PUSH1 0x40 DUP1 DUP4 KECCAK256 DUP2 MLOAD PUSH1 0x60 DUP2 DUP2 ADD DUP5 MSTORE DUP3 SLOAD DUP1 DUP4 MSTORE PUSH1 0x1 DUP5 ADD SLOAD SWAP6 DUP4 ADD DUP7 SWAP1 MSTORE PUSH1 0x2 SWAP1 SWAP4 ADD SLOAD PUSH1 0xFF AND ISZERO ISZERO SWAP4 DUP3 ADD SWAP4 SWAP1 SWAP4 MSTORE SWAP1 SWAP4 SWAP2 DUP3 SWAP2 DUP3 SWAP1 DUP2 SWAP1 PUSH2 0xF5F DUP10 PUSH2 0xCCD JUMP JUMPDEST PUSH1 0x40 DUP1 DUP4 ADD MLOAD PUSH1 0x1 PUSH1 0x1 PUSH1 0xA0 SHL SUB DUP13 AND PUSH0 SWAP1 DUP2 MSTORE PUSH1 0x9 PUSH1 0x20 MSTORE SWAP2 SWAP1 SWAP2 KECCAK256 SLOAD SWAP2 SWAP8 POP SWAP6 POP ISZERO PUSH2 0xFA4 JUMPI PUSH1 0x1 PUSH1 0x1 PUSH1 0xA0 SHL SUB DUP10 AND PUSH0 SWAP1 DUP2 MSTORE PUSH1 0x9 PUSH1 0x20 MSTORE PUSH1 0x40 SWAP1 KECCAK256 SLOAD PUSH2 0xFA8 JUMP JUMPDEST PUSH2 0x2710 JUMPDEST SWAP3 POP DUP1 PUSH1 0x40 ADD MLOAD PUSH2 0xFB9 JUMPI PUSH0 PUSH2 0xFC6 JUMP JUMPDEST PUSH2 0xFC6 DUP2 PUSH1 0x20 ADD MLOAD PUSH2 0x1C67 JUMP JUMPDEST SWAP2 POP PUSH0 DUP2 PUSH1 0x40 ADD MLOAD PUSH2 0xFD8 JUMPI PUSH0 PUSH2 0xFE7 JUMP JUMPDEST PUSH1 0x20 DUP3 ADD MLOAD PUSH2 0xFE7 SWAP1 TIMESTAMP PUSH2 0x2225 JUMP JUMPDEST SWAP1 POP DUP2 PUSH1 0x40 ADD MLOAD PUSH2 0x1016 JUMPI PUSH1 0x40 MLOAD DUP1 PUSH1 0x40 ADD PUSH1 0x40 MSTORE DUP1 PUSH1 0x4 DUP2 MSTORE PUSH1 0x20 ADD PUSH4 0x4E6F6E65 PUSH1 0xE0 SHL DUP2 MSTORE POP SWAP5 POP PUSH2 0x1096 JUMP JUMPDEST PUSH3 0x278D00 DUP2 LT PUSH2 0x1044 JUMPI PUSH1 0x40 MLOAD DUP1 PUSH1 0x40 ADD PUSH1 0x40 MSTORE DUP1 PUSH1 0x4 DUP2 MSTORE PUSH1 0x20 ADD PUSH4 0x11DBDB19 PUSH1 0xE2 SHL DUP2 MSTORE POP SWAP5 POP PUSH2 0x1096 JUMP JUMPDEST PUSH3 0x93A80 DUP2 LT PUSH2 0x1074 JUMPI PUSH1 0x40 MLOAD DUP1 PUSH1 0x40 ADD PUSH1 0x40 MSTORE DUP1 PUSH1 0x6 DUP2 MSTORE PUSH1 0x20 ADD PUSH6 0x29B4B63B32B9 PUSH1 0xD1 SHL DUP2 MSTORE POP SWAP5 POP PUSH2 0x1096 JUMP JUMPDEST PUSH1 0x40 MLOAD DUP1 PUSH1 0x40 ADD PUSH1 0x40 MSTORE DUP1 PUSH1 0x6 DUP2 MSTORE PUSH1 0x20 ADD PUSH6 0x42726F6E7A65 PUSH1 0xD0 SHL DUP2 MSTORE POP SWAP5 POP JUMPDEST POP POP SWAP2 SWAP4 SWAP6 SWAP8 SWAP1 SWAP3 SWAP5 SWAP7 POP JUMP JUMPDEST PUSH2 0x10AB PUSH2 0x1A28 JUMP JUMPDEST PUSH2 0x10B3 PUSH2 0x1A53 JUMP JUMPDEST PUSH0 DUP2 GT PUSH2 0x10D2 JUMPI PUSH1 0x40 MLOAD PUSH3 0x461BCD PUSH1 0xE5 SHL DUP2 MSTORE PUSH1 0x4 ADD PUSH2 0xA20 SWAP1 PUSH2 0x21E5 JUMP JUMPDEST CALLER PUSH0 SWAP1 DUP2 MSTORE PUSH1 0x20 DUP2 SWAP1 MSTORE PUSH1 0x40 SWAP1 KECCAK256 SLOAD DUP2 GT ISZERO PUSH2 0x1127 JUMPI PUSH1 0x40 MLOAD PUSH3 0x461BCD PUSH1 0xE5 SHL DUP2 MSTORE PUSH1 0x20 PUSH1 0x4 DUP3 ADD MSTORE PUSH1 0x14 PUSH1 0x24 DUP3 ADD MSTORE PUSH20 0x496E73756666696369656E742062616C616E6365 PUSH1 0x60 SHL PUSH1 0x44 DUP3 ADD MSTORE PUSH1 0x64 ADD PUSH2 0xA20 JUMP JUMPDEST CALLER PUSH0 SWAP1 DUP2 MSTORE PUSH1 0x8 PUSH1 0x20 MSTORE PUSH1 0x40 SWAP1 KECCAK256 PUSH1 0x2 ADD SLOAD PUSH1 0xFF AND ISZERO PUSH2 0x114A JUMPI PUSH2 0x114A CALLER PUSH2 0x1A7D JUMP JUMPDEST PUSH2 0x1155 CALLER ADDRESS DUP4 PUSH2 0x19CB JUMP JUMPDEST CALLER PUSH0 SWAP1 DUP2 MSTORE PUSH1 0x8 PUSH1 0x20 MSTORE PUSH1 0x40 DUP2 KECCAK256 DUP1 SLOAD DUP4 SWAP3 SWAP1 PUSH2 0x1173 SWAP1 DUP5 SWAP1 PUSH2 0x226E JUMP JUMPDEST SWAP1 SWAP2 SSTORE POP POP CALLER PUSH0 SWAP1 DUP2 MSTORE PUSH1 0x8 PUSH1 0x20 MSTORE PUSH1 0x40 DUP2 KECCAK256 TIMESTAMP PUSH1 0x1 DUP1 DUP4 ADD SWAP2 SWAP1 SWAP2 SSTORE PUSH1 0x2 SWAP1 SWAP2 ADD DUP1 SLOAD PUSH1 0xFF NOT AND SWAP1 SWAP2 OR SWAP1 SSTORE PUSH1 0xC DUP1 SLOAD DUP4 SWAP3 SWAP1 PUSH2 0x11B2 SWAP1 DUP5 SWAP1 PUSH2 0x226E JUMP JUMPDEST SWAP1 SWAP2 SSTORE POP POP PUSH1 0x40 DUP1 MLOAD DUP3 DUP2 MSTORE TIMESTAMP PUSH1 0x20 DUP3 ADD MSTORE CALLER SWAP2 PUSH32 0xDD2A19C3BDD089CBE77C04F5655F83DE0504D6140D12C8667646F55D0557C4DC SWAP2 ADD PUSH1 0x40 MLOAD DUP1 SWAP2 SUB SWAP1 LOG2 PUSH2 0xA3D PUSH1 0x1 PUSH1 0x6 SSTORE JUMP JUMPDEST PUSH2 0x1203 PUSH2 0x18F4 JUMP JUMPDEST PUSH1 0x1 PUSH1 0x1 PUSH1 0xA0 SHL SUB AND PUSH0 SWAP1 DUP2 MSTORE PUSH1 0xA PUSH1 0x20 MSTORE PUSH1 0x40 SWAP1 KECCAK256 DUP1 SLOAD PUSH1 0xFF NOT AND PUSH1 0x1 OR SWAP1 SSTORE JUMP JUMPDEST PUSH2 0x122E PUSH2 0x18F4 JUMP JUMPDEST PUSH2 0xB1E PUSH2 0x1CF5 JUMP JUMPDEST PUSH2 0x123E PUSH2 0x1A28 JUMP JUMPDEST PUSH0 PUSH2 0x124B PUSH1 0x12 PUSH1 0xA PUSH2 0x23AE JUMP JUMPDEST PUSH2 0x1255 SWAP1 DUP4 PUSH2 0x2238 JUMP JUMPDEST SWAP1 POP PUSH0 DUP3 GT PUSH2 0x1276 JUMPI PUSH1 0x40 MLOAD PUSH3 0x461BCD PUSH1 0xE5 SHL DUP2 MSTORE PUSH1 0x4 ADD PUSH2 0xA20 SWAP1 PUSH2 0x21E5 JUMP JUMPDEST PUSH11 0x84595161401484A000000 DUP2 PUSH2 0x128C PUSH1 0x2 SLOAD SWAP1 JUMP JUMPDEST PUSH2 0x1296 SWAP2 SWAP1 PUSH2 0x226E JUMP JUMPDEST GT ISZERO PUSH2 0x12B4 JUMPI PUSH1 0x40 MLOAD PUSH3 0x461BCD PUSH1 0xE5 SHL DUP2 MSTORE PUSH1 0x4 ADD PUSH2 0xA20 SWAP1 PUSH2 0x2281 JUMP JUMPDEST PUSH2 0x12C5 PUSH7 0x38D7EA4C68000 DUP4 PUSH2 0x2238 JUMP JUMPDEST CALLVALUE LT ISZERO PUSH2 0x1308 JUMPI PUSH1 0x40 MLOAD PUSH3 0x461BCD PUSH1 0xE5 SHL DUP2 MSTORE PUSH1 0x20 PUSH1 0x4 DUP3 ADD MSTORE PUSH1 0x11 PUSH1 0x24 DUP3 ADD MSTORE PUSH17 0x92DCE6EACCCCD2C6D2CADCE84082AC82B PUSH1 0x7B SHL PUSH1 0x44 DUP3 ADD MSTORE PUSH1 0x64 ADD PUSH2 0xA20 JUMP JUMPDEST PUSH2 0x1312 CALLER DUP3 PUSH2 0x1921 JUMP JUMPDEST PUSH1 0x40 DUP1 MLOAD DUP3 DUP2 MSTORE TIMESTAMP PUSH1 0x20 DUP3 ADD MSTORE CALLER SWAP2 PUSH32 0x2E8AC5177A616F2AEC08C3048F5021E4E9743ECE034E8D83BA5CAF76688BB475 SWAP2 ADD PUSH1 0x40 MLOAD DUP1 SWAP2 SUB SWAP1 LOG2 PUSH0 PUSH2 0x135E PUSH7 0x38D7EA4C68000 DUP5 PUSH2 0x2238 JUMP JUMPDEST SWAP1 POP DUP1 CALLVALUE GT ISZERO PUSH2 0x13F5 JUMPI PUSH0 CALLER PUSH2 0x1374 DUP4 CALLVALUE PUSH2 0x2225 JUMP JUMPDEST PUSH1 0x40 MLOAD PUSH0 DUP2 DUP2 DUP2 DUP6 DUP8 GAS CALL SWAP3 POP POP POP RETURNDATASIZE DUP1 PUSH0 DUP2 EQ PUSH2 0x13AD JUMPI PUSH1 0x40 MLOAD SWAP2 POP PUSH1 0x1F NOT PUSH1 0x3F RETURNDATASIZE ADD AND DUP3 ADD PUSH1 0x40 MSTORE RETURNDATASIZE DUP3 MSTORE RETURNDATASIZE PUSH0 PUSH1 0x20 DUP5 ADD RETURNDATACOPY PUSH2 0x13B2 JUMP JUMPDEST PUSH1 0x60 SWAP2 POP JUMPDEST POP POP SWAP1 POP DUP1 PUSH2 0x13F3 JUMPI PUSH1 0x40 MLOAD PUSH3 0x461BCD PUSH1 0xE5 SHL DUP2 MSTORE PUSH1 0x20 PUSH1 0x4 DUP3 ADD MSTORE PUSH1 0xD PUSH1 0x24 DUP3 ADD MSTORE PUSH13 0x1499599D5B990819985A5B1959 PUSH1 0x9A SHL PUSH1 0x44 DUP3 ADD MSTORE PUSH1 0x64 ADD PUSH2 0xA20 JUMP JUMPDEST POP JUMPDEST POP POP POP JUMP JUMPDEST PUSH1 0x60 PUSH1 0x4 DUP1 SLOAD PUSH2 0x93C SWAP1 PUSH2 0x21AD JUMP JUMPDEST PUSH2 0x1411 PUSH2 0x1A28 JUMP JUMPDEST PUSH2 0x1419 PUSH2 0x1A53 JUMP JUMPDEST CALLER PUSH0 SWAP1 DUP2 MSTORE PUSH1 0x8 PUSH1 0x20 MSTORE PUSH1 0x40 SWAP1 KECCAK256 PUSH1 0x2 ADD SLOAD PUSH1 0xFF AND PUSH2 0x1468 JUMPI PUSH1 0x40 MLOAD PUSH3 0x461BCD PUSH1 0xE5 SHL DUP2 MSTORE PUSH1 0x20 PUSH1 0x4 DUP3 ADD MSTORE PUSH1 0xB PUSH1 0x24 DUP3 ADD MSTORE PUSH11 0x4E6F74207374616B696E67 PUSH1 0xA8 SHL PUSH1 0x44 DUP3 ADD MSTORE PUSH1 0x64 ADD PUSH2 0xA20 JUMP JUMPDEST CALLER PUSH0 SWAP1 DUP2 MSTORE PUSH1 0x8 PUSH1 0x20 MSTORE PUSH1 0x40 SWAP1 KECCAK256 SLOAD DUP1 PUSH2 0x14B7 JUMPI PUSH1 0x40 MLOAD PUSH3 0x461BCD PUSH1 0xE5 SHL DUP2 MSTORE PUSH1 0x20 PUSH1 0x4 DUP3 ADD MSTORE PUSH1 0x10 PUSH1 0x24 DUP3 ADD MSTORE PUSH16 0x139BC81D1BDAD95B9CC81CDD185AD959 PUSH1 0x82 SHL PUSH1 0x44 DUP3 ADD MSTORE PUSH1 0x64 ADD PUSH2 0xA20 JUMP JUMPDEST PUSH2 0x14C0 CALLER PUSH2 0x1A7D JUMP JUMPDEST CALLER PUSH0 SWAP1 DUP2 MSTORE PUSH1 0x8 PUSH1 0x20 MSTORE PUSH1 0x40 DUP2 KECCAK256 DUP2 DUP2 SSTORE PUSH1 0x1 DUP2 ADD DUP3 SWAP1 SSTORE PUSH1 0x2 ADD DUP1 SLOAD PUSH1 0xFF NOT AND SWAP1 SSTORE PUSH1 0xC DUP1 SLOAD DUP4 SWAP3 SWAP1 PUSH2 0x14F5 SWAP1 DUP5 SWAP1 PUSH2 0x2225 JUMP JUMPDEST SWAP1 SWAP2 SSTORE POP PUSH2 0x1506 SWAP1 POP ADDRESS CALLER DUP4 PUSH2 0x19CB JUMP JUMPDEST PUSH1 0x40 DUP1 MLOAD DUP3 DUP2 MSTORE TIMESTAMP PUSH1 0x20 DUP3 ADD MSTORE CALLER SWAP2 PUSH32 0x6F2D3E000C89D37446B7C0374C0125068FF316D1E3EE302336478A8CD03C2336 SWAP2 ADD PUSH1 0x40 MLOAD DUP1 SWAP2 SUB SWAP1 LOG2 POP PUSH2 0xB1E PUSH1 0x1 PUSH1 0x6 SSTORE JUMP JUMPDEST PUSH0 CALLER PUSH2 0x9CA DUP2 DUP6 DUP6 PUSH2 0x19CB JUMP JUMPDEST PUSH2 0x1560 PUSH2 0x18F4 JUMP JUMPDEST SELFBALANCE DUP1 PUSH2 0x1598 JUMPI PUSH1 0x40 MLOAD PUSH3 0x461BCD PUSH1 0xE5 SHL DUP2 MSTORE PUSH1 0x20 PUSH1 0x4 DUP3 ADD MSTORE PUSH1 0x7 PUSH1 0x24 DUP3 ADD MSTORE PUSH7 0x9CDE4082AC82B PUSH1 0xCB SHL PUSH1 0x44 DUP3 ADD MSTORE PUSH1 0x64 ADD PUSH2 0xA20 JUMP JUMPDEST PUSH0 PUSH2 0x15AB PUSH1 0x5 SLOAD PUSH1 0x1 PUSH1 0x1 PUSH1 0xA0 SHL SUB AND SWAP1 JUMP JUMPDEST PUSH1 0x1 PUSH1 0x1 PUSH1 0xA0 SHL SUB AND DUP3 PUSH1 0x40 MLOAD PUSH0 PUSH1 0x40 MLOAD DUP1 DUP4 SUB DUP2 DUP6 DUP8 GAS CALL SWAP3 POP POP POP RETURNDATASIZE DUP1 PUSH0 DUP2 EQ PUSH2 0x15F2 JUMPI PUSH1 0x40 MLOAD SWAP2 POP PUSH1 0x1F NOT PUSH1 0x3F RETURNDATASIZE ADD AND DUP3 ADD PUSH1 0x40 MSTORE RETURNDATASIZE DUP3 MSTORE RETURNDATASIZE PUSH0 PUSH1 0x20 DUP5 ADD RETURNDATACOPY PUSH2 0x15F7 JUMP JUMPDEST PUSH1 0x60 SWAP2 POP JUMPDEST POP POP SWAP1 POP DUP1 PUSH2 0xCA1 JUMPI PUSH1 0x40 MLOAD PUSH3 0x461BCD PUSH1 0xE5 SHL DUP2 MSTORE PUSH1 0x20 PUSH1 0x4 DUP3 ADD MSTORE PUSH1 0xF PUSH1 0x24 DUP3 ADD MSTORE PUSH15 0x15DA5D1A191C985DC819985A5B1959 PUSH1 0x8A SHL PUSH1 0x44 DUP3 ADD MSTORE PUSH1 0x64 ADD PUSH2 0xA20 JUMP JUMPDEST PUSH0 DUP1 PUSH0 PUSH2 0x1646 DUP5 PUSH2 0xCCD JUMP JUMPDEST SWAP1 POP PUSH2 0x2710 PUSH2 0x1657 PUSH2 0x1F4 DUP4 PUSH2 0x2238 JUMP JUMPDEST PUSH2 0x1661 SWAP2 SWAP1 PUSH2 0x224F JUMP JUMPDEST SWAP2 POP PUSH2 0x166D DUP3 DUP3 PUSH2 0x2225 JUMP JUMPDEST SWAP3 POP POP SWAP2 POP SWAP2 JUMP JUMPDEST PUSH1 0x1 PUSH1 0x1 PUSH1 0xA0 SHL SUB DUP2 AND PUSH0 SWAP1 DUP2 MSTORE PUSH1 0x8 PUSH1 0x20 SWAP1 DUP2 MSTORE PUSH1 0x40 SWAP2 DUP3 SWAP1 KECCAK256 DUP3 MLOAD PUSH1 0x60 DUP2 DUP2 ADD DUP6 MSTORE DUP3 SLOAD DUP3 MSTORE PUSH1 0x1 DUP4 ADD SLOAD SWAP4 DUP3 ADD SWAP4 SWAP1 SWAP4 MSTORE PUSH1 0x2 SWAP1 SWAP2 ADD SLOAD PUSH1 0xFF AND ISZERO ISZERO SWAP3 DUP2 ADD DUP4 SWAP1 MSTORE SWAP1 SWAP2 PUSH2 0x16E2 JUMPI POP POP PUSH1 0x40 DUP1 MLOAD DUP1 DUP3 ADD SWAP1 SWAP2 MSTORE PUSH1 0x4 DUP2 MSTORE PUSH4 0x4E6F6E65 PUSH1 0xE0 SHL PUSH1 0x20 DUP3 ADD MSTORE SWAP2 SWAP1 POP JUMP JUMPDEST PUSH0 DUP2 PUSH1 0x20 ADD MLOAD TIMESTAMP PUSH2 0x16F3 SWAP2 SWAP1 PUSH2 0x2225 JUMP JUMPDEST SWAP1 POP PUSH3 0x278D00 DUP2 LT PUSH2 0x1722 JUMPI POP POP PUSH1 0x40 DUP1 MLOAD DUP1 DUP3 ADD SWAP1 SWAP2 MSTORE PUSH1 0x4 DUP2 MSTORE PUSH4 0x11DBDB19 PUSH1 0xE2 SHL PUSH1 0x20 DUP3 ADD MSTORE SWAP3 SWAP2 POP POP JUMP JUMPDEST PUSH3 0x93A80 DUP2 LT PUSH2 0x1751 JUMPI POP POP PUSH1 0x40 DUP1 MLOAD DUP1 DUP3 ADD SWAP1 SWAP2 MSTORE PUSH1 0x6 DUP2 MSTORE PUSH6 0x29B4B63B32B9 PUSH1 0xD1 SHL PUSH1 0x20 DUP3 ADD MSTORE SWAP3 SWAP2 POP POP JUMP JUMPDEST POP POP PUSH1 0x40 DUP1 MLOAD DUP1 DUP3 ADD SWAP1 SWAP2 MSTORE PUSH1 0x6 DUP2 MSTORE PUSH6 0x42726F6E7A65 PUSH1 0xD0 SHL PUSH1 0x20 DUP3 ADD MSTORE SWAP3 SWAP2 POP POP JUMP JUMPDEST PUSH2 0x177E PUSH2 0x18F4 JUMP JUMPDEST PUSH0 PUSH2 0x178B PUSH1 0x12 PUSH1 0xA PUSH2 0x23AE JUMP JUMPDEST PUSH2 0x1795 SWAP1 DUP4 PUSH2 0x2238 JUMP JUMPDEST SWAP1 POP PUSH0 DUP3 GT PUSH2 0x17B6 JUMPI PUSH1 0x40 MLOAD PUSH3 0x461BCD PUSH1 0xE5 SHL DUP2 MSTORE PUSH1 0x4 ADD PUSH2 0xA20 SWAP1 PUSH2 0x21E5 JUMP JUMPDEST PUSH11 0x84595161401484A000000 DUP2 PUSH2 0x17CC PUSH1 0x2 SLOAD SWAP1 JUMP JUMPDEST PUSH2 0x17D6 SWAP2 SWAP1 PUSH2 0x226E JUMP JUMPDEST GT ISZERO PUSH2 0x17F4 JUMPI PUSH1 0x40 MLOAD PUSH3 0x461BCD PUSH1 0xE5 SHL DUP2 MSTORE PUSH1 0x4 ADD PUSH2 0xA20 SWAP1 PUSH2 0x2281 JUMP JUMPDEST PUSH2 0x17FE DUP4 DUP3 PUSH2 0x1921 JUMP JUMPDEST PUSH1 0x40 DUP1 MLOAD DUP3 DUP2 MSTORE TIMESTAMP PUSH1 0x20 DUP3 ADD MSTORE PUSH1 0x1 PUSH1 0x1 PUSH1 0xA0 SHL SUB DUP6 AND SWAP2 PUSH32 0x2E8AC5177A616F2AEC08C3048F5021E4E9743ECE034E8D83BA5CAF76688BB475 SWAP2 ADD PUSH2 0xEEA JUMP JUMPDEST PUSH2 0x1846 PUSH2 0x18F4 JUMP JUMPDEST PUSH1 0x1 PUSH1 0x1 PUSH1 0xA0 SHL SUB DUP2 AND PUSH2 0x188B JUMPI PUSH1 0x40 MLOAD PUSH3 0x461BCD PUSH1 0xE5 SHL DUP2 MSTORE PUSH1 0x20 PUSH1 0x4 DUP3 ADD MSTORE PUSH1 0xC PUSH1 0x24 DUP3 ADD MSTORE PUSH12 0x5A65726F2061646472657373 PUSH1 0xA0 SHL PUSH1 0x44 DUP3 ADD MSTORE PUSH1 0x64 ADD PUSH2 0xA20 JUMP JUMPDEST PUSH1 0x7 DUP1 SLOAD PUSH1 0x1 PUSH1 0x1 PUSH1 0xA0 SHL SUB NOT AND PUSH1 0x1 PUSH1 0x1 PUSH1 0xA0 SHL SUB SWAP3 SWAP1 SWAP3 AND SWAP2 SWAP1 SWAP2 OR SWAP1 SSTORE JUMP JUMPDEST PUSH2 0x18B5 PUSH2 0x18F4 JUMP JUMPDEST PUSH1 0x1 PUSH1 0x1 PUSH1 0xA0 SHL SUB DUP2 AND PUSH2 0x18DE JUMPI PUSH1 0x40 MLOAD PUSH4 0x1E4FBDF7 PUSH1 0xE0 SHL DUP2 MSTORE PUSH0 PUSH1 0x4 DUP3 ADD MSTORE PUSH1 0x24 ADD PUSH2 0xA20 JUMP JUMPDEST PUSH2 0xA3D DUP2 PUSH2 0x1CA4 JUMP JUMPDEST PUSH2 0x13F5 DUP4 DUP4 DUP4 PUSH1 0x1 PUSH2 0x1D38 JUMP JUMPDEST PUSH1 0x5 SLOAD PUSH1 0x1 PUSH1 0x1 PUSH1 0xA0 SHL SUB AND CALLER EQ PUSH2 0xB1E JUMPI PUSH1 0x40 MLOAD PUSH4 0x118CDAA7 PUSH1 0xE0 SHL DUP2 MSTORE CALLER PUSH1 0x4 DUP3 ADD MSTORE PUSH1 0x24 ADD PUSH2 0xA20 JUMP JUMPDEST PUSH1 0x1 PUSH1 0x1 PUSH1 0xA0 SHL SUB DUP3 AND PUSH2 0x194A JUMPI PUSH1 0x40 MLOAD PUSH4 0xEC442F05 PUSH1 0xE0 SHL DUP2 MSTORE PUSH0 PUSH1 0x4 DUP3 ADD MSTORE PUSH1 0x24 ADD PUSH2 0xA20 JUMP JUMPDEST PUSH2 0xCA1 PUSH0 DUP4 DUP4 PUSH2 0x1E0A JUMP JUMPDEST PUSH1 0x1 PUSH1 0x1 PUSH1 0xA0 SHL SUB DUP4 DUP2 AND PUSH0 SWAP1 DUP2 MSTORE PUSH1 0x1 PUSH1 0x20 SWAP1 DUP2 MSTORE PUSH1 0x40 DUP1 DUP4 KECCAK256 SWAP4 DUP7 AND DUP4 MSTORE SWAP3 SWAP1 MSTORE KECCAK256 SLOAD PUSH0 NOT DUP2 LT ISZERO PUSH2 0x13F3 JUMPI DUP2 DUP2 LT ISZERO PUSH2 0x19BD JUMPI PUSH1 0x40 MLOAD PUSH4 0x7DC7A0D9 PUSH1 0xE1 SHL DUP2 MSTORE PUSH1 0x1 PUSH1 0x1 PUSH1 0xA0 SHL SUB DUP5 AND PUSH1 0x4 DUP3 ADD MSTORE PUSH1 0x24 DUP2 ADD DUP3 SWAP1 MSTORE PUSH1 0x44 DUP2 ADD DUP4 SWAP1 MSTORE PUSH1 0x64 ADD PUSH2 0xA20 JUMP JUMPDEST PUSH2 0x13F3 DUP5 DUP5 DUP5 DUP5 SUB PUSH0 PUSH2 0x1D38 JUMP JUMPDEST PUSH1 0x1 PUSH1 0x1 PUSH1 0xA0 SHL SUB DUP4 AND PUSH2 0x19F4 JUMPI PUSH1 0x40 MLOAD PUSH4 0x4B637E8F PUSH1 0xE1 SHL DUP2 MSTORE PUSH0 PUSH1 0x4 DUP3 ADD MSTORE PUSH1 0x24 ADD PUSH2 0xA20 JUMP JUMPDEST PUSH1 0x1 PUSH1 0x1 PUSH1 0xA0 SHL SUB DUP3 AND PUSH2 0x1A1D JUMPI PUSH1 0x40 MLOAD PUSH4 0xEC442F05 PUSH1 0xE0 SHL DUP2 MSTORE PUSH0 PUSH1 0x4 DUP3 ADD MSTORE PUSH1 0x24 ADD PUSH2 0xA20 JUMP JUMPDEST PUSH2 0x13F5 DUP4 DUP4 DUP4 PUSH2 0x1E0A JUMP JUMPDEST PUSH1 0x5 SLOAD PUSH1 0x1 PUSH1 0xA0 SHL SWAP1 DIV PUSH1 0xFF AND ISZERO PUSH2 0xB1E JUMPI PUSH1 0x40 MLOAD PUSH4 0xD93C0665 PUSH1 0xE0 SHL DUP2 MSTORE PUSH1 0x4 ADD PUSH1 0x40 MLOAD DUP1 SWAP2 SUB SWAP1 REVERT JUMPDEST PUSH1 0x2 PUSH1 0x6 SLOAD SUB PUSH2 0x1A76 JUMPI PUSH1 0x40 MLOAD PUSH4 0x3EE5AEB5 PUSH1 0xE0 SHL DUP2 MSTORE PUSH1 0x4 ADD PUSH1 0x40 MLOAD DUP1 SWAP2 SUB SWAP1 REVERT JUMPDEST PUSH1 0x2 PUSH1 0x6 SSTORE JUMP JUMPDEST PUSH0 PUSH2 0x1A87 DUP3 PUSH2 0xCCD JUMP JUMPDEST SWAP1 POP DUP1 PUSH0 SUB PUSH2 0x1A94 JUMPI POP POP JUMP JUMPDEST PUSH0 PUSH2 0x2710 PUSH2 0x1AA4 PUSH2 0x1F4 DUP5 PUSH2 0x2238 JUMP JUMPDEST PUSH2 0x1AAE SWAP2 SWAP1 PUSH2 0x224F JUMP JUMPDEST SWAP1 POP PUSH0 PUSH2 0x1ABB DUP3 DUP5 PUSH2 0x2225 JUMP JUMPDEST PUSH1 0x1 PUSH1 0x1 PUSH1 0xA0 SHL SUB DUP6 AND PUSH0 SWAP1 DUP2 MSTORE PUSH1 0x8 PUSH1 0x20 MSTORE PUSH1 0x40 DUP2 KECCAK256 TIMESTAMP PUSH1 0x1 SWAP1 SWAP2 ADD SSTORE PUSH1 0xD DUP1 SLOAD SWAP3 SWAP4 POP DUP5 SWAP3 SWAP1 SWAP2 SWAP1 PUSH2 0x1AF0 SWAP1 DUP5 SWAP1 PUSH2 0x226E JUMP JUMPDEST SWAP1 SWAP2 SSTORE POP POP DUP2 ISZERO DUP1 ISZERO SWAP1 PUSH2 0x1B22 JUMPI POP PUSH11 0x84595161401484A000000 DUP3 PUSH2 0x1B15 PUSH1 0x2 SLOAD SWAP1 JUMP JUMPDEST PUSH2 0x1B1F SWAP2 SWAP1 PUSH2 0x226E JUMP JUMPDEST GT ISZERO JUMPDEST ISZERO PUSH2 0x1B85 JUMPI PUSH1 0x7 SLOAD PUSH2 0x1B3D SWAP1 PUSH1 0x1 PUSH1 0x1 PUSH1 0xA0 SHL SUB AND DUP4 PUSH2 0x1921 JUMP JUMPDEST PUSH1 0x7 SLOAD PUSH1 0x40 DUP1 MLOAD DUP5 DUP2 MSTORE TIMESTAMP PUSH1 0x20 DUP3 ADD MSTORE PUSH1 0x1 PUSH1 0x1 PUSH1 0xA0 SHL SUB SWAP1 SWAP3 AND SWAP2 PUSH32 0x6C067797988A2DD3BD54CB977E9C67EFE4C19657B78B2FAB848E46A571375C84 SWAP2 ADD PUSH1 0x40 MLOAD DUP1 SWAP2 SUB SWAP1 LOG2 JUMPDEST PUSH0 DUP2 GT DUP1 ISZERO PUSH2 0x1BB2 JUMPI POP PUSH11 0x84595161401484A000000 DUP2 PUSH2 0x1BA5 PUSH1 0x2 SLOAD SWAP1 JUMP JUMPDEST PUSH2 0x1BAF SWAP2 SWAP1 PUSH2 0x226E JUMP JUMPDEST GT ISZERO JUMPDEST ISZERO PUSH2 0x1BC1 JUMPI PUSH2 0x1BC1 DUP5 DUP3 PUSH2 0x1921 JUMP JUMPDEST PUSH1 0x40 DUP1 MLOAD DUP3 DUP2 MSTORE PUSH1 0x20 DUP2 ADD DUP5 SWAP1 MSTORE TIMESTAMP DUP2 DUP4 ADD MSTORE SWAP1 MLOAD PUSH1 0x1 PUSH1 0x1 PUSH1 0xA0 SHL SUB DUP7 AND SWAP2 PUSH32 0x56253D287EFACDB2C4CD76DD03624A4821C1CE721D1152E8F5F5718F6087C9BF SWAP2 SWAP1 DUP2 SWAP1 SUB PUSH1 0x60 ADD SWAP1 LOG2 POP POP POP POP JUMP JUMPDEST PUSH2 0x1C1A PUSH2 0x1F30 JUMP JUMPDEST PUSH1 0x5 DUP1 SLOAD PUSH1 0xFF PUSH1 0xA0 SHL NOT AND SWAP1 SSTORE PUSH32 0x5DB9EE0A495BF2E6FF9C91A7834C1BA4FDD244A5E8AA4E537BD38AEAE4B073AA CALLER JUMPDEST PUSH1 0x40 MLOAD PUSH1 0x1 PUSH1 0x1 PUSH1 0xA0 SHL SUB SWAP1 SWAP2 AND DUP2 MSTORE PUSH1 0x20 ADD PUSH1 0x40 MLOAD DUP1 SWAP2 SUB SWAP1 LOG1 JUMP JUMPDEST PUSH0 DUP1 PUSH2 0x1C73 DUP4 TIMESTAMP PUSH2 0x2225 JUMP JUMPDEST SWAP1 POP PUSH3 0x278D00 DUP2 LT PUSH2 0x1C88 JUMPI POP PUSH1 0x14 SWAP3 SWAP2 POP POP JUMP JUMPDEST PUSH3 0x93A80 DUP2 LT PUSH2 0x1C9B JUMPI POP PUSH1 0xF SWAP3 SWAP2 POP POP JUMP JUMPDEST POP PUSH1 0xA SWAP3 SWAP2 POP POP JUMP JUMPDEST PUSH1 0x5 DUP1 SLOAD PUSH1 0x1 PUSH1 0x1 PUSH1 0xA0 SHL SUB DUP4 DUP2 AND PUSH1 0x1 PUSH1 0x1 PUSH1 0xA0 SHL SUB NOT DUP4 AND DUP2 OR SWAP1 SWAP4 SSTORE PUSH1 0x40 MLOAD SWAP2 AND SWAP2 SWAP1 DUP3 SWAP1 PUSH32 0x8BE0079C531659141344CD1FD0A4F28419497F9722A3DAAFE3B4186F6B6457E0 SWAP1 PUSH0 SWAP1 LOG3 POP POP JUMP JUMPDEST PUSH2 0x1CFD PUSH2 0x1A28 JUMP JUMPDEST PUSH1 0x5 DUP1 SLOAD PUSH1 0xFF PUSH1 0xA0 SHL NOT AND PUSH1 0x1 PUSH1 0xA0 SHL OR SWAP1 SSTORE PUSH32 0x62E78CEA01BEE320CD4E420270B5EA74000D11B0C9F74754EBDBFC544B05A258 PUSH2 0x1C4A CALLER SWAP1 JUMP JUMPDEST PUSH1 0x1 PUSH1 0x1 PUSH1 0xA0 SHL SUB DUP5 AND PUSH2 0x1D61 JUMPI PUSH1 0x40 MLOAD PUSH4 0xE602DF05 PUSH1 0xE0 SHL DUP2 MSTORE PUSH0 PUSH1 0x4 DUP3 ADD MSTORE PUSH1 0x24 ADD PUSH2 0xA20 JUMP JUMPDEST PUSH1 0x1 PUSH1 0x1 PUSH1 0xA0 SHL SUB DUP4 AND PUSH2 0x1D8A JUMPI PUSH1 0x40 MLOAD PUSH4 0x4A1406B1 PUSH1 0xE1 SHL DUP2 MSTORE PUSH0 PUSH1 0x4 DUP3 ADD MSTORE PUSH1 0x24 ADD PUSH2 0xA20 JUMP JUMPDEST PUSH1 0x1 PUSH1 0x1 PUSH1 0xA0 SHL SUB DUP1 DUP6 AND PUSH0 SWAP1 DUP2 MSTORE PUSH1 0x1 PUSH1 0x20 SWAP1 DUP2 MSTORE PUSH1 0x40 DUP1 DUP4 KECCAK256 SWAP4 DUP8 AND DUP4 MSTORE SWAP3 SWAP1 MSTORE KECCAK256 DUP3 SWAP1 SSTORE DUP1 ISZERO PUSH2 0x13F3 JUMPI DUP3 PUSH1 0x1 PUSH1 0x1 PUSH1 0xA0 SHL SUB AND DUP5 PUSH1 0x1 PUSH1 0x1 PUSH1 0xA0 SHL SUB AND PUSH32 0x8C5BE1E5EBEC7D5BD14F71427D1E84F3DD0314C0F7B2291E5B200AC8C7C3B925 DUP5 PUSH1 0x40 MLOAD PUSH2 0x1DFC SWAP2 DUP2 MSTORE PUSH1 0x20 ADD SWAP1 JUMP JUMPDEST PUSH1 0x40 MLOAD DUP1 SWAP2 SUB SWAP1 LOG3 POP POP POP POP JUMP JUMPDEST PUSH1 0x1 PUSH1 0x1 PUSH1 0xA0 SHL SUB DUP4 AND PUSH2 0x1E34 JUMPI DUP1 PUSH1 0x2 PUSH0 DUP3 DUP3 SLOAD PUSH2 0x1E29 SWAP2 SWAP1 PUSH2 0x226E JUMP JUMPDEST SWAP1 SWAP2 SSTORE POP PUSH2 0x1EA4 SWAP1 POP JUMP JUMPDEST PUSH1 0x1 PUSH1 0x1 PUSH1 0xA0 SHL SUB DUP4 AND PUSH0 SWAP1 DUP2 MSTORE PUSH1 0x20 DUP2 SWAP1 MSTORE PUSH1 0x40 SWAP1 KECCAK256 SLOAD DUP2 DUP2 LT ISZERO PUSH2 0x1E86 JUMPI PUSH1 0x40 MLOAD PUSH4 0x391434E3 PUSH1 0xE2 SHL DUP2 MSTORE PUSH1 0x1 PUSH1 0x1 PUSH1 0xA0 SHL SUB DUP6 AND PUSH1 0x4 DUP3 ADD MSTORE PUSH1 0x24 DUP2 ADD DUP3 SWAP1 MSTORE PUSH1 0x44 DUP2 ADD DUP4 SWAP1 MSTORE PUSH1 0x64 ADD PUSH2 0xA20 JUMP JUMPDEST PUSH1 0x1 PUSH1 0x1 PUSH1 0xA0 SHL SUB DUP5 AND PUSH0 SWAP1 DUP2 MSTORE PUSH1 0x20 DUP2 SWAP1 MSTORE PUSH1 0x40 SWAP1 KECCAK256 SWAP1 DUP3 SWAP1 SUB SWAP1 SSTORE JUMPDEST PUSH1 0x1 PUSH1 0x1 PUSH1 0xA0 SHL SUB DUP3 AND PUSH2 0x1EC0 JUMPI PUSH1 0x2 DUP1 SLOAD DUP3 SWAP1 SUB SWAP1 SSTORE PUSH2 0x1EDE JUMP JUMPDEST PUSH1 0x1 PUSH1 0x1 PUSH1 0xA0 SHL SUB DUP3 AND PUSH0 SWAP1 DUP2 MSTORE PUSH1 0x20 DUP2 SWAP1 MSTORE PUSH1 0x40 SWAP1 KECCAK256 DUP1 SLOAD DUP3 ADD SWAP1 SSTORE JUMPDEST DUP2 PUSH1 0x1 PUSH1 0x1 PUSH1 0xA0 SHL SUB AND DUP4 PUSH1 0x1 PUSH1 0x1 PUSH1 0xA0 SHL SUB AND PUSH32 0xDDF252AD1BE2C89B69C2B068FC378DAA952BA7F163C4A11628F55A4DF523B3EF DUP4 PUSH1 0x40 MLOAD PUSH2 0x1F23 SWAP2 DUP2 MSTORE PUSH1 0x20 ADD SWAP1 JUMP JUMPDEST PUSH1 0x40 MLOAD DUP1 SWAP2 SUB SWAP1 LOG3 POP POP POP JUMP JUMPDEST PUSH1 0x5 SLOAD PUSH1 0x1 PUSH1 0xA0 SHL SWAP1 DIV PUSH1 0xFF AND PUSH2 0xB1E JUMPI PUSH1 0x40 MLOAD PUSH4 0x8DFC202B PUSH1 0xE0 SHL DUP2 MSTORE PUSH1 0x4 ADD PUSH1 0x40 MLOAD DUP1 SWAP2 SUB SWAP1 REVERT JUMPDEST DUP1 CALLDATALOAD PUSH1 0x1 PUSH1 0x1 PUSH1 0xA0 SHL SUB DUP2 AND DUP2 EQ PUSH2 0x1F70 JUMPI PUSH0 DUP1 REVERT JUMPDEST SWAP2 SWAP1 POP JUMP JUMPDEST PUSH0 PUSH1 0x20 DUP3 DUP5 SUB SLT ISZERO PUSH2 0x1F85 JUMPI PUSH0 DUP1 REVERT JUMPDEST PUSH2 0x1F8E DUP3 PUSH2 0x1F5A JUMP JUMPDEST SWAP4 SWAP3 POP POP POP JUMP JUMPDEST PUSH0 DUP2 MLOAD DUP1 DUP5 MSTORE PUSH0 JUMPDEST DUP2 DUP2 LT ISZERO PUSH2 0x1FB9 JUMPI PUSH1 0x20 DUP2 DUP6 ADD DUP2 ADD MLOAD DUP7 DUP4 ADD DUP3 ADD MSTORE ADD PUSH2 0x1F9D JUMP JUMPDEST POP PUSH0 PUSH1 0x20 DUP3 DUP7 ADD ADD MSTORE PUSH1 0x20 PUSH1 0x1F NOT PUSH1 0x1F DUP4 ADD AND DUP6 ADD ADD SWAP2 POP POP SWAP3 SWAP2 POP POP JUMP JUMPDEST PUSH1 0x20 DUP2 MSTORE PUSH0 PUSH2 0x1F8E PUSH1 0x20 DUP4 ADD DUP5 PUSH2 0x1F95 JUMP JUMPDEST PUSH0 DUP1 PUSH1 0x40 DUP4 DUP6 SUB SLT ISZERO PUSH2 0x1FFB JUMPI PUSH0 DUP1 REVERT JUMPDEST PUSH2 0x2004 DUP4 PUSH2 0x1F5A JUMP JUMPDEST SWAP5 PUSH1 0x20 SWAP4 SWAP1 SWAP4 ADD CALLDATALOAD SWAP4 POP POP POP JUMP JUMPDEST PUSH0 DUP1 PUSH0 PUSH1 0x60 DUP5 DUP7 SUB SLT ISZERO PUSH2 0x2024 JUMPI PUSH0 DUP1 REVERT JUMPDEST PUSH2 0x202D DUP5 PUSH2 0x1F5A JUMP JUMPDEST SWAP3 POP PUSH2 0x203B PUSH1 0x20 DUP6 ADD PUSH2 0x1F5A JUMP JUMPDEST SWAP2 POP PUSH1 0x40 DUP5 ADD CALLDATALOAD SWAP1 POP SWAP3 POP SWAP3 POP SWAP3 JUMP JUMPDEST PUSH4 0x4E487B71 PUSH1 0xE0 SHL PUSH0 MSTORE PUSH1 0x41 PUSH1 0x4 MSTORE PUSH1 0x24 PUSH0 REVERT JUMPDEST PUSH0 DUP1 PUSH0 PUSH1 0x60 DUP5 DUP7 SUB SLT ISZERO PUSH2 0x2071 JUMPI PUSH0 DUP1 REVERT JUMPDEST PUSH2 0x207A DUP5 PUSH2 0x1F5A JUMP JUMPDEST SWAP3 POP PUSH1 0x20 DUP5 ADD CALLDATALOAD SWAP2 POP PUSH1 0x40 DUP5 ADD CALLDATALOAD PUSH8 0xFFFFFFFFFFFFFFFF DUP1 DUP3 GT ISZERO PUSH2 0x209D JUMPI PUSH0 DUP1 REVERT JUMPDEST DUP2 DUP7 ADD SWAP2 POP DUP7 PUSH1 0x1F DUP4 ADD SLT PUSH2 0x20B0 JUMPI PUSH0 DUP1 REVERT JUMPDEST DUP2 CALLDATALOAD DUP2 DUP2 GT ISZERO PUSH2 0x20C2 JUMPI PUSH2 0x20C2 PUSH2 0x204B JUMP JUMPDEST PUSH1 0x40 MLOAD PUSH1 0x1F DUP3 ADD PUSH1 0x1F NOT SWAP1 DUP2 AND PUSH1 0x3F ADD AND DUP2 ADD SWAP1 DUP4 DUP3 GT DUP2 DUP4 LT OR ISZERO PUSH2 0x20EA JUMPI PUSH2 0x20EA PUSH2 0x204B JUMP JUMPDEST DUP2 PUSH1 0x40 MSTORE DUP3 DUP2 MSTORE DUP10 PUSH1 0x20 DUP5 DUP8 ADD ADD GT ISZERO PUSH2 0x2102 JUMPI PUSH0 DUP1 REVERT JUMPDEST DUP3 PUSH1 0x20 DUP7 ADD PUSH1 0x20 DUP4 ADD CALLDATACOPY PUSH0 PUSH1 0x20 DUP5 DUP4 ADD ADD MSTORE DUP1 SWAP6 POP POP POP POP POP POP SWAP3 POP SWAP3 POP SWAP3 JUMP JUMPDEST DUP8 DUP2 MSTORE DUP7 PUSH1 0x20 DUP3 ADD MSTORE DUP6 PUSH1 0x40 DUP3 ADD MSTORE DUP5 ISZERO ISZERO PUSH1 0x60 DUP3 ADD MSTORE PUSH1 0xE0 PUSH1 0x80 DUP3 ADD MSTORE PUSH0 PUSH2 0x214F PUSH1 0xE0 DUP4 ADD DUP7 PUSH2 0x1F95 JUMP JUMPDEST PUSH1 0xA0 DUP4 ADD SWAP5 SWAP1 SWAP5 MSTORE POP PUSH1 0xC0 ADD MSTORE SWAP6 SWAP5 POP POP POP POP POP JUMP JUMPDEST PUSH0 PUSH1 0x20 DUP3 DUP5 SUB SLT ISZERO PUSH2 0x2175 JUMPI PUSH0 DUP1 REVERT JUMPDEST POP CALLDATALOAD SWAP2 SWAP1 POP JUMP JUMPDEST PUSH0 DUP1 PUSH1 0x40 DUP4 DUP6 SUB SLT ISZERO PUSH2 0x218D JUMPI PUSH0 DUP1 REVERT JUMPDEST PUSH2 0x2196 DUP4 PUSH2 0x1F5A JUMP JUMPDEST SWAP2 POP PUSH2 0x21A4 PUSH1 0x20 DUP5 ADD PUSH2 0x1F5A JUMP JUMPDEST SWAP1 POP SWAP3 POP SWAP3 SWAP1 POP JUMP JUMPDEST PUSH1 0x1 DUP2 DUP2 SHR SWAP1 DUP3 AND DUP1 PUSH2 0x21C1 JUMPI PUSH1 0x7F DUP3 AND SWAP2 POP JUMPDEST PUSH1 0x20 DUP3 LT DUP2 SUB PUSH2 0x21DF JUMPI PUSH4 0x4E487B71 PUSH1 0xE0 SHL PUSH0 MSTORE PUSH1 0x22 PUSH1 0x4 MSTORE PUSH1 0x24 PUSH0 REVERT JUMPDEST POP SWAP2 SWAP1 POP JUMP JUMPDEST PUSH1 0x20 DUP1 DUP3 MSTORE PUSH1 0x12 SWAP1 DUP3 ADD MSTORE PUSH18 0x416D6F756E74206D757374206265203E203 PUSH1 0x74 SHL PUSH1 0x40 DUP3 ADD MSTORE PUSH1 0x60 ADD SWAP1 JUMP JUMPDEST PUSH4 0x4E487B71 PUSH1 0xE0 SHL PUSH0 MSTORE PUSH1 0x11 PUSH1 0x4 MSTORE PUSH1 0x24 PUSH0 REVERT JUMPDEST DUP2 DUP2 SUB DUP2 DUP2 GT ISZERO PUSH2 0x9D0 JUMPI PUSH2 0x9D0 PUSH2 0x2211 JUMP JUMPDEST DUP1 DUP3 MUL DUP2 ISZERO DUP3 DUP3 DIV DUP5 EQ OR PUSH2 0x9D0 JUMPI PUSH2 0x9D0 PUSH2 0x2211 JUMP JUMPDEST PUSH0 DUP3 PUSH2 0x2269 JUMPI PUSH4 0x4E487B71 PUSH1 0xE0 SHL PUSH0 MSTORE PUSH1 0x12 PUSH1 0x4 MSTORE PUSH1 0x24 PUSH0 REVERT JUMPDEST POP DIV SWAP1 JUMP JUMPDEST DUP1 DUP3 ADD DUP1 DUP3 GT ISZERO PUSH2 0x9D0 JUMPI PUSH2 0x9D0 PUSH2 0x2211 JUMP JUMPDEST PUSH1 0x20 DUP1 DUP3 MSTORE PUSH1 0x13 SWAP1 DUP3 ADD MSTORE PUSH19 0x13585E081CDD5C1C1B1E48195E18D959591959 PUSH1 0x6A SHL PUSH1 0x40 DUP3 ADD MSTORE PUSH1 0x60 ADD SWAP1 JUMP JUMPDEST DUP3 DUP2 MSTORE PUSH1 0x40 PUSH1 0x20 DUP3 ADD MSTORE PUSH0 PUSH2 0x22C6 PUSH1 0x40 DUP4 ADD DUP5 PUSH2 0x1F95 JUMP JUMPDEST SWAP5 SWAP4 POP POP POP POP JUMP JUMPDEST PUSH1 0x1 DUP2 DUP2 JUMPDEST DUP1 DUP6 GT ISZERO PUSH2 0x2308 JUMPI DUP2 PUSH0 NOT DIV DUP3 GT ISZERO PUSH2 0x22EE JUMPI PUSH2 0x22EE PUSH2 0x2211 JUMP JUMPDEST DUP1 DUP6 AND ISZERO PUSH2 0x22FB JUMPI SWAP2 DUP2 MUL SWAP2 JUMPDEST SWAP4 DUP5 SHR SWAP4 SWAP1 DUP1 MUL SWAP1 PUSH2 0x22D3 JUMP JUMPDEST POP SWAP3 POP SWAP3 SWAP1 POP JUMP JUMPDEST PUSH0 DUP3 PUSH2 0x231E JUMPI POP PUSH1 0x1 PUSH2 0x9D0 JUMP JUMPDEST DUP2 PUSH2 0x232A JUMPI POP PUSH0 PUSH2 0x9D0 JUMP JUMPDEST DUP2 PUSH1 0x1 DUP2 EQ PUSH2 0x2340 JUMPI PUSH1 0x2 DUP2 EQ PUSH2 0x234A JUMPI PUSH2 0x2366 JUMP JUMPDEST PUSH1 0x1 SWAP2 POP POP PUSH2 0x9D0 JUMP JUMPDEST PUSH1 0xFF DUP5 GT ISZERO PUSH2 0x235B JUMPI PUSH2 0x235B PUSH2 0x2211 JUMP JUMPDEST POP POP PUSH1 0x1 DUP3 SHL PUSH2 0x9D0 JUMP JUMPDEST POP PUSH1 0x20 DUP4 LT PUSH2 0x133 DUP4 LT AND PUSH1 0x4E DUP5 LT PUSH1 0xB DUP5 LT AND OR ISZERO PUSH2 0x2389 JUMPI POP DUP2 DUP2 EXP PUSH2 0x9D0 JUMP JUMPDEST PUSH2 0x2393 DUP4 DUP4 PUSH2 0x22CE JUMP JUMPDEST DUP1 PUSH0 NOT DIV DUP3 GT ISZERO PUSH2 0x23A6 JUMPI PUSH2 0x23A6 PUSH2 0x2211 JUMP JUMPDEST MUL SWAP4 SWAP3 POP POP POP JUMP JUMPDEST PUSH0 PUSH2 0x1F8E PUSH1 0xFF DUP5 AND DUP4 PUSH2 0x2310 JUMP INVALID LOG2 PUSH5 0x6970667358 0x22 SLT KECCAK256 0xC3 PUSH6 0x24378322AE5B COINBASE STATICCALL 0xE1 CALLDATASIZE PUSH20 0x3FE5A84DFA5B872D7EC9371B9C8354919A6C6164 PUSH20 0x6F6C634300081700330000000000000000000000 "},"methodIdentifiers":{"BPS_DENOMINATOR()":"e1a45218","BRONZE_APY()":"8dc9c26b","GOLD_APY()":"e3b1a1f4","GOLD_THRESHOLD()":"56973974","INITIAL_SUPPLY()":"2ff2e9dc","MAX_MULTIPLIER()":"5d6a618d","MAX_SUPPLY()":"32cb6b0c","MINT_PRICE()":"c002d23d","REWARD_INTERVAL()":"5dbdda69","SILVER_APY()":"6d0efaeb","SILVER_THRESHOLD()":"c1a0db30","TREASURY_FEE_BPS()":"d642aa02","addGameContract(address)":"81cd08ee","allowance(address,address)":"dd62ed3e","approve(address,uint256)":"095ea7b3","balanceOf(address)":"70a08231","calculateNetRewards(address)":"b273890b","calculateRewards(address)":"64ab8675","claimRewards()":"372500ab","decimals()":"313ce567","earnGameReward(address,uint256,string)":"6aa679d4","gameContracts(address)":"6ddd474d","gameRewards(address)":"023b14a5","getStakerInfo(address)":"733bdef0","getStakerTier(address)":"f06d3d31","initializeSupply(address)":"0bdc0cda","mintTokens(address,uint256)":"f0dda65c","mintWithAVAX(uint256)":"8f5b8ee2","name()":"06fdde03","owner()":"8da5cb5b","pause()":"8456cb59","paused()":"5c975abb","removeGameContract(address)":"5c74e025","renounceOwnership()":"715018a6","scoreMultiplierBps(address)":"6e6bab4b","setPlayerScoreMultiplier(address,uint256)":"39b6ae94","setTreasury(address)":"f0f44260","spendGameTokens(address,uint256)":"46565bed","stakeTokens(uint256)":"7547c7a3","stakers(address)":"9168ae72","symbol()":"95d89b41","totalStaked()":"817b1cd2","totalSupply()":"18160ddd","totalTreasuryCollected()":"9bcf2f61","transfer(address,uint256)":"a9059cbb","transferFrom(address,address,uint256)":"23b872dd","transferOwnership(address)":"f2fde38b","treasury()":"61d027b3","unpause()":"3f4ba83a","unstakeTokens()":"a5ce413b","withdrawAVAX()":"abce145b"}}}}}