{
  "_format": "hh3-artifact-1",
  "contractName": "CryptoIslandNFT",
  "sourceName": "contracts/CryptoIslandNFT.sol",
  "abi": [
    {
      "inputs": [
        {
          "internalType": "address",
          "name": "_treasury",
          "type": "address"
        }
      ],
      "stateMutability": "nonpayable",
      "type": "constructor"
    },
    {
      "anonymous": false,
      "inputs": [
        {
          "indexed": true,
          "internalType": "address",
          "name": "to",
          "type": "address"
        },
        {
          "indexed": false,
          "internalType": "uint256",
          "name": "tokenId",
          "type": "uint256"
        },
        {
          "indexed": false,
          "internalType": "uint256",
          "name": "timestamp",
          "type": "uint256"
        }
      ],
      "name": "NFTMinted",
      "type": "event"
    },
    {
      "anonymous": false,
      "inputs": [
        {
          "indexed": true,
          "internalType": "address",
          "name": "from",
          "type": "address"
        },
        {
          "indexed": true,
          "internalType": "address",
          "name": "to",
          "type": "address"
        },
        {
          "indexed": true,
          "internalType": "uint256",
          "name": "tokenId",
          "type": "uint256"
        }
      ],
      "name": "Transfer",
      "type": "event"
    },
    {
      "anonymous": false,
      "inputs": [
        {
          "indexed": true,
          "internalType": "address",
          "name": "treasury",
          "type": "address"
        },
        {
          "indexed": false,
          "internalType": "uint256",
          "name": "amount",
          "type": "uint256"
        },
        {
          "indexed": false,
          "internalType": "uint256",
          "name": "timestamp",
          "type": "uint256"
        }
      ],
      "name": "TreasuryFeeCollected",
      "type": "event"
    },
    {
      "inputs": [],
      "name": "BPS_DENOMINATOR",
      "outputs": [
        {
          "internalType": "uint256",
          "name": "",
          "type": "uint256"
        }
      ],
      "stateMutability": "view",
      "type": "function"
    },
    {
      "inputs": [],
      "name": "MAX_SUPPLY",
      "outputs": [
        {
          "internalType": "uint256",
          "name": "",
          "type": "uint256"
        }
      ],
      "stateMutability": "view",
      "type": "function"
    },
    {
      "inputs": [],
      "name": "MINT_PRICE",
      "outputs": [
        {
          "internalType": "uint256",
          "name": "",
          "type": "uint256"
        }
      ],
      "stateMutability": "view",
      "type": "function"
    },
    {
      "inputs": [],
      "name": "TREASURY_FEE_BPS",
      "outputs": [
        {
          "internalType": "uint256",
          "name": "",
          "type": "uint256"
        }
      ],
      "stateMutability": "view",
      "type": "function"
    },
    {
      "inputs": [
        {
          "internalType": "address",
          "name": "account",
          "type": "address"
        }
      ],
      "name": "balanceOf",
      "outputs": [
        {
          "internalType": "uint256",
          "name": "",
          "type": "uint256"
        }
      ],
      "stateMutability": "view",
      "type": "function"
    },
    {
      "inputs": [],
      "name": "getMaxSupply",
      "outputs": [
        {
          "internalType": "uint256",
          "name": "",
          "type": "uint256"
        }
      ],
      "stateMutability": "pure",
      "type": "function"
    },
    {
      "inputs": [],
      "name": "getMintPrice",
      "outputs": [
        {
          "internalType": "uint256",
          "name": "",
          "type": "uint256"
        }
      ],
      "stateMutability": "pure",
      "type": "function"
    },
    {
      "inputs": [
        {
          "internalType": "uint256",
          "name": "tokenId",
          "type": "uint256"
        }
      ],
      "name": "getNFTMetadata",
      "outputs": [
        {
          "components": [
            {
              "internalType": "string",
              "name": "name",
              "type": "string"
            },
            {
              "internalType": "string",
              "name": "description",
              "type": "string"
            },
            {
              "internalType": "string",
              "name": "image",
              "type": "string"
            },
            {
              "internalType": "string[]",
              "name": "attributes",
              "type": "string[]"
            }
          ],
          "internalType": "struct CryptoIslandNFT.NFTMetadata",
          "name": "",
          "type": "tuple"
        }
      ],
      "stateMutability": "view",
      "type": "function"
    },
    {
      "inputs": [],
      "name": "mintNFT",
      "outputs": [],
      "stateMutability": "payable",
      "type": "function"
    },
    {
      "inputs": [
        {
          "internalType": "address",
          "name": "to",
          "type": "address"
        }
      ],
      "name": "mintTo",
      "outputs": [],
      "stateMutability": "nonpayable",
      "type": "function"
    },
    {
      "inputs": [],
      "name": "mintingPaused",
      "outputs": [
        {
          "internalType": "bool",
          "name": "",
          "type": "bool"
        }
      ],
      "stateMutability": "view",
      "type": "function"
    },
    {
      "inputs": [],
      "name": "owner",
      "outputs": [
        {
          "internalType": "address",
          "name": "",
          "type": "address"
        }
      ],
      "stateMutability": "view",
      "type": "function"
    },
    {
      "inputs": [
        {
          "internalType": "uint256",
          "name": "tokenId",
          "type": "uint256"
        }
      ],
      "name": "ownerOf",
      "outputs": [
        {
          "internalType": "address",
          "name": "",
          "type": "address"
        }
      ],
      "stateMutability": "view",
      "type": "function"
    },
    {
      "inputs": [],
      "name": "pauseMinting",
      "outputs": [],
      "stateMutability": "nonpayable",
      "type": "function"
    },
    {
      "inputs": [
        {
          "internalType": "string",
          "name": "newBaseURI",
          "type": "string"
        }
      ],
      "name": "setBaseURI",
      "outputs": [],
      "stateMutability": "nonpayable",
      "type": "function"
    },
    {
      "inputs": [
        {
          "internalType": "address",
          "name": "_treasury",
          "type": "address"
        }
      ],
      "name": "setTreasury",
      "outputs": [],
      "stateMutability": "nonpayable",
      "type": "function"
    },
    {
      "inputs": [
        {
          "internalType": "uint256",
          "name": "",
          "type": "uint256"
        }
      ],
      "name": "tokenMetadata",
      "outputs": [
        {
          "internalType": "string",
          "name": "name",
          "type": "string"
        },
        {
          "internalType": "string",
          "name": "description",
          "type": "string"
        },
        {
          "internalType": "string",
          "name": "image",
          "type": "string"
        }
      ],
      "stateMutability": "view",
      "type": "function"
    },
    {
      "inputs": [
        {
          "internalType": "uint256",
          "name": "tokenId",
          "type": "uint256"
        }
      ],
      "name": "tokenURI",
      "outputs": [
        {
          "internalType": "string",
          "name": "",
          "type": "string"
        }
      ],
      "stateMutability": "view",
      "type": "function"
    },
    {
      "inputs": [],
      "name": "totalMintRevenue",
      "outputs": [
        {
          "internalType": "uint256",
          "name": "",
          "type": "uint256"
        }
      ],
      "stateMutability": "view",
      "type": "function"
    },
    {
      "inputs": [],
      "name": "totalSupply",
      "outputs": [
        {
          "internalType": "uint256",
          "name": "",
          "type": "uint256"
        }
      ],
      "stateMutability": "view",
      "type": "function"
    },
    {
      "inputs": [],
      "name": "totalTreasuryCollected",
      "outputs": [
        {
          "internalType": "uint256",
          "name": "",
          "type": "uint256"
        }
      ],
      "stateMutability": "view",
      "type": "function"
    },
    {
      "inputs": [],
      "name": "treasury",
      "outputs": [
        {
          "internalType": "address",
          "name": "",
          "type": "address"
        }
      ],
      "stateMutability": "view",
      "type": "function"
    },
    {
      "inputs": [],
      "name": "unpauseMinting",
      "outputs": [],
      "stateMutability": "nonpayable",
      "type": "function"
    },
    {
      "inputs": [],
      "name": "withdraw",
      "outputs": [],
      "stateMutability": "nonpayable",
      "type": "function"
    },
    {
      "stateMutability": "payable",
      "type": "receive"
    }
  ],
  "bytecode": "0x60c0604052601760809081527f43727970746f2049736c616e6420416476656e7475726500000000000000000060a0526004906200003e9082620001c0565b5060408051808201909152600381526243494160e81b6020820152600590620000689082620001c0565b506040518060600160405280602d8152602001620021c3602d9139600690620000929082620001c0565b506008805460ff19169055348015620000a9575f80fd5b50604051620021f0380380620021f0833981016040819052620000cc916200028c565b60088054610100600160a81b03191633610100021790556001600160a01b038116620000f95733620000fb565b805b600980546001600160a01b0319166001600160a01b039290921691909117905550620002bb565b634e487b7160e01b5f52604160045260245ffd5b600181811c908216806200014b57607f821691505b6020821081036200016a57634e487b7160e01b5f52602260045260245ffd5b50919050565b601f821115620001bb57805f5260205f20601f840160051c81016020851015620001975750805b601f840160051c820191505b81811015620001b8575f8155600101620001a3565b50505b505050565b81516001600160401b03811115620001dc57620001dc62000122565b620001f481620001ed845462000136565b8462000170565b602080601f8311600181146200022a575f8415620002125750858301515b5f19600386901b1c1916600185901b17855562000284565b5f85815260208120601f198616915b828110156200025a5788860151825594840194600190910190840162000239565b50858210156200027857878501515f19600388901b60f8161c191681555b505060018460011b0185555b505050505050565b5f602082840312156200029d575f80fd5b81516001600160a01b0381168114620002b4575f80fd5b9392505050565b611efa80620002c95f395ff3fe60806040526004361061014a575f3560e01c80637dbbedc4116100b3578063c87b56dd1161006d578063c87b56dd1461038b578063d642aa02146103b7578063da8fbf2a146103cc578063e1a283d6146103e0578063e1a4521814610182578063f0f4426014610409575f80fd5b80637dbbedc4146102f65780638da5cb5b1461030b5780639bcf2f611461032f578063a7f93ebd14610344578063ae2003221461035d578063c002d23d14610371575f80fd5b806361d027b31161010457806361d027b3146101de5780636352211e146102155780636914db60146102495780636be9a6f11461027757806370a08231146102a3578063755edd17146102d7575f80fd5b806314f710fe1461015557806318160ddd1461015f57806332cb6b0c146101825780633ccfd60b146101975780634c0f38c2146101ab57806355f804b3146101bf575f80fd5b3661015157005b5f80fd5b61015d610428565b005b34801561016a575f80fd5b506007545b6040519081526020015b60405180910390f35b34801561018d575f80fd5b5061016f61271081565b3480156101a2575f80fd5b5061015d610858565b3480156101b6575f80fd5b5061271061016f565b3480156101ca575f80fd5b5061015d6101d9366004611801565b610967565b3480156101e9575f80fd5b506009546101fd906001600160a01b031681565b6040516001600160a01b039091168152602001610179565b348015610220575f80fd5b506101fd61022f3660046118ac565b5f908152602081905260409020546001600160a01b031690565b348015610254575f80fd5b506102686102633660046118ac565b6109a2565b60405161017993929190611910565b348015610282575f80fd5b506102966102913660046118ac565b610b55565b6040516101799190611952565b3480156102ae575f80fd5b5061016f6102bd366004611a0b565b6001600160a01b03165f9081526001602052604090205490565b3480156102e2575f80fd5b5061015d6102f1366004611a0b565b610e7b565b348015610301575f80fd5b5061016f600b5481565b348015610316575f80fd5b506008546101fd9061010090046001600160a01b031681565b34801561033a575f80fd5b5061016f600a5481565b34801561034f575f80fd5b506601c6bf5263400061016f565b348015610368575f80fd5b5061015d611047565b34801561037c575f80fd5b5061016f6601c6bf5263400081565b348015610396575f80fd5b506103aa6103a53660046118ac565b611082565b6040516101799190611a31565b3480156103c2575f80fd5b5061016f6101f481565b3480156103d7575f80fd5b5061015d611111565b3480156103eb575f80fd5b506008546103f99060ff1681565b6040519015158152602001610179565b348015610414575f80fd5b5061015d610423366004611a0b565b61114f565b60085460ff16156104805760405162461bcd60e51b815260206004820152601b60248201527f4d696e74696e672069732063757272656e746c7920706175736564000000000060448201526064015b60405180910390fd5b6601c6bf526340003410156104d75760405162461bcd60e51b815260206004820181905260248201527f496e73756666696369656e74207061796d656e7420666f72206d696e74696e676044820152606401610477565b6127106007541061051f5760405162461bcd60e51b815260206004820152601260248201527113585e081cdd5c1c1b1e481c995858da195960721b6044820152606401610477565b600780549081905f61053083611a57565b919050555061053f33826111e5565b60405180608001604052806105538361130d565b6040516020016105639190611a6f565b60405160208183030381529060405281526020016040518060a00160405280606f8152602001611e56606f9139815260200160066105a08461130d565b6040516020016105b1929190611b50565b60405160208183030381529060405281526020016105ce83611412565b90525f828152600c60205260409020815181906105eb9082611bcf565b50602082015160018201906106009082611bcf565b50604082015160028201906106159082611bcf565b506060820151805161063191600384019160209091019061172f565b505f9150612710905061064d6101f46601c6bf52634000611c8f565b6106579190611cc0565b905080600a5f82825461066a9190611cd3565b9250508190555034600b5f8282546106829190611cd3565b90915550508015610776576009546040515f916001600160a01b03169083908381818185875af1925050503d805f81146106d7576040519150601f19603f3d011682016040523d82523d5f602084013e6106dc565b606091505b505090508061072d5760405162461bcd60e51b815260206004820152601c60248201527f547265617375727920666565207472616e73666572206661696c6564000000006044820152606401610477565b600954604080518481524260208201526001600160a01b03909216917f6c067797988a2dd3bd54cb977e9c67efe4c19657b78b2fab848e46a571375c84910160405180910390a2505b6601c6bf52634000341115610819575f336107986601c6bf5263400034611ce6565b6040515f81818185875af1925050503d805f81146107d1576040519150601f19603f3d011682016040523d82523d5f602084013e6107d6565b606091505b50509050806108175760405162461bcd60e51b815260206004820152600d60248201526c1499599d5b990819985a5b1959609a1b6044820152606401610477565b505b6040805183815242602082015233917f3a8a89b59a31c39a36febecb987e0657ab7b7c73b60ebacb44dcb9886c2d5c8a91015b60405180910390a25050565b60085461010090046001600160a01b031633146108875760405162461bcd60e51b815260040161047790611cf9565b47806108cc5760405162461bcd60e51b81526020600482015260146024820152734e6f2066756e647320746f20776974686472617760601b6044820152606401610477565b6008546040515f9161010090046001600160a01b03169083908381818185875af1925050503d805f811461091b576040519150601f19603f3d011682016040523d82523d5f602084013e610920565b606091505b50509050806109635760405162461bcd60e51b815260206004820152600f60248201526e151c985b9cd9995c8819985a5b1959608a1b6044820152606401610477565b5050565b60085461010090046001600160a01b031633146109965760405162461bcd60e51b815260040161047790611cf9565b60066109638282611bcf565b600c6020525f90815260409020805481906109bc90611aa9565b80601f01602080910402602001604051908101604052809291908181526020018280546109e890611aa9565b8015610a335780601f10610a0a57610100808354040283529160200191610a33565b820191905f5260205f20905b815481529060010190602001808311610a1657829003601f168201915b505050505090806001018054610a4890611aa9565b80601f0160208091040260200160405190810160405280929190818152602001828054610a7490611aa9565b8015610abf5780601f10610a9657610100808354040283529160200191610abf565b820191905f5260205f20905b815481529060010190602001808311610aa257829003601f168201915b505050505090806002018054610ad490611aa9565b80601f0160208091040260200160405190810160405280929190818152602001828054610b0090611aa9565b8015610b4b5780601f10610b2257610100808354040283529160200191610b4b565b820191905f5260205f20905b815481529060010190602001808311610b2e57829003601f168201915b5050505050905083565b610b806040518060800160405280606081526020016060815260200160608152602001606081525090565b5f828152602081905260409020546001600160a01b0316610bda5760405162461bcd60e51b8152602060048201526014602482015273151bdad95b88191bd95cc81b9bdd08195e1a5cdd60621b6044820152606401610477565b5f828152600c602052604090819020815160808101909252805482908290610c0190611aa9565b80601f0160208091040260200160405190810160405280929190818152602001828054610c2d90611aa9565b8015610c785780601f10610c4f57610100808354040283529160200191610c78565b820191905f5260205f20905b815481529060010190602001808311610c5b57829003601f168201915b50505050508152602001600182018054610c9190611aa9565b80601f0160208091040260200160405190810160405280929190818152602001828054610cbd90611aa9565b8015610d085780601f10610cdf57610100808354040283529160200191610d08565b820191905f5260205f20905b815481529060010190602001808311610ceb57829003601f168201915b50505050508152602001600282018054610d2190611aa9565b80601f0160208091040260200160405190810160405280929190818152602001828054610d4d90611aa9565b8015610d985780601f10610d6f57610100808354040283529160200191610d98565b820191905f5260205f20905b815481529060010190602001808311610d7b57829003601f168201915b5050505050815260200160038201805480602002602001604051908101604052809291908181526020015f905b82821015610e6d578382905f5260205f20018054610de290611aa9565b80601f0160208091040260200160405190810160405280929190818152602001828054610e0e90611aa9565b8015610e595780601f10610e3057610100808354040283529160200191610e59565b820191905f5260205f20905b815481529060010190602001808311610e3c57829003601f168201915b505050505081526020019060010190610dc5565b505050915250909392505050565b60085461010090046001600160a01b03163314610eaa5760405162461bcd60e51b815260040161047790611cf9565b61271060075410610ef25760405162461bcd60e51b815260206004820152601260248201527113585e081cdd5c1c1b1e481c995858da195960721b6044820152606401610477565b600780549081905f610f0383611a57565b9190505550610f1282826111e5565b6040518060800160405280610f268361130d565b604051602001610f369190611a6f565b60405160208183030381529060405281526020016040518060a00160405280606f8152602001611e56606f913981526020016006610f738461130d565b604051602001610f84929190611b50565b6040516020818303038152906040528152602001610fa183611412565b90525f828152600c6020526040902081518190610fbe9082611bcf565b5060208201516001820190610fd39082611bcf565b5060408201516002820190610fe89082611bcf565b506060820151805161100491600384019160209091019061172f565b5050604080518381524260208201526001600160a01b03851692507f3a8a89b59a31c39a36febecb987e0657ab7b7c73b60ebacb44dcb9886c2d5c8a910161084c565b60085461010090046001600160a01b031633146110765760405162461bcd60e51b815260040161047790611cf9565b6008805460ff19169055565b5f818152602081905260409020546060906001600160a01b03166110df5760405162461bcd60e51b8152602060048201526014602482015273151bdad95b88191bd95cc81b9bdd08195e1a5cdd60621b6044820152606401610477565b60066110ea8361130d565b6040516020016110fb929190611d3a565b6040516020818303038152906040529050919050565b60085461010090046001600160a01b031633146111405760405162461bcd60e51b815260040161047790611cf9565b6008805460ff19166001179055565b60085461010090046001600160a01b0316331461117e5760405162461bcd60e51b815260040161047790611cf9565b6001600160a01b0381166111c35760405162461bcd60e51b815260206004820152600c60248201526b5a65726f206164647265737360a01b6044820152606401610477565b600980546001600160a01b0319166001600160a01b0392909216919091179055565b6001600160a01b0382166112325760405162461bcd60e51b81526020600482015260146024820152734d696e7420746f207a65726f206164647265737360601b6044820152606401610477565b5f818152602081905260409020546001600160a01b03161561128d5760405162461bcd60e51b8152602060048201526014602482015273151bdad95b88185b1c9958591e481b5a5b9d195960621b6044820152606401610477565b6001600160a01b0382165f9081526001602052604081208054916112b083611a57565b90915550505f8181526020819052604080822080546001600160a01b0319166001600160a01b03861690811790915590518392907fddf252ad1be2c89b69c2b068fc378daa952ba7f163c4a11628f55a4df523b3ef908290a45050565b6060815f036113335750506040805180820190915260018152600360fc1b602082015290565b815f5b811561135c578061134681611a57565b91506113559050600a83611cc0565b9150611336565b5f8167ffffffffffffffff811115611376576113766117ed565b6040519080825280601f01601f1916602001820160405280156113a0576020820181803683370190505b5090505b841561140a576113b5600183611ce6565b91506113c2600a86611d6e565b6113cd906030611cd3565b60f81b8183815181106113e2576113e2611d81565b60200101906001600160f81b03191690815f1a905350611403600a86611cc0565b94506113a4565b949350505050565b60408051600480825260a082019092526060915f9190816020015b606081526020019060019003908161142d57905050905061144d83611561565b60405160200161145d9190611d95565b604051602081830303815290604052815f8151811061147e5761147e611d81565b602002602001018190525061149283611645565b6040516020016114a29190611dc4565b604051602081830303815290604052816001815181106114c4576114c4611d81565b60200260200101819052506114d883611670565b6040516020016114e89190611df2565b6040516020818303038152906040528160028151811061150a5761150a611d81565b602002602001018190525061151e83611720565b60405160200161152e9190611e22565b6040516020818303038152906040528160038151811061155057611550611d81565b602090810291909101015292915050565b60605f61156f600584611d6e565b9050805f0361159c57505060408051808201909152600681526521b7b6b6b7b760d11b6020820152919050565b806001036115ca5750506040805180820190915260088152672ab731b7b6b6b7b760c11b6020820152919050565b806002036115f45750506040805180820190915260048152635261726560e01b6020820152919050565b8060030361161e5750506040805180820190915260048152634570696360e01b6020820152919050565b50506040805180820190915260098152684c6567656e6461727960b81b6020820152919050565b60605f611653606484611d6e565b61165e906001611cd3565b90506116698161130d565b9392505050565b60605f61167e600484611d6e565b9050805f036116a95750506040805180820190915260048152634669726560e01b6020820152919050565b806001036116d45750506040805180820190915260058152642bb0ba32b960d91b6020820152919050565b806002036116ff57505060408051808201909152600581526408ac2e4e8d60db1b6020820152919050565b505060408051808201909152600381526220b4b960e91b6020820152919050565b60605f6116536103e884611cc0565b828054828255905f5260205f20908101928215611773579160200282015b8281111561177357825182906117639082611bcf565b509160200191906001019061174d565b5061177f929150611783565b5090565b8082111561177f575f611796828261179f565b50600101611783565b5080546117ab90611aa9565b5f825580601f106117ba575050565b601f0160209004905f5260205f20908101906117d691906117d9565b50565b5b8082111561177f575f81556001016117da565b634e487b7160e01b5f52604160045260245ffd5b5f60208284031215611811575f80fd5b813567ffffffffffffffff80821115611828575f80fd5b818401915084601f83011261183b575f80fd5b81358181111561184d5761184d6117ed565b604051601f8201601f19908116603f01168101908382118183101715611875576118756117ed565b8160405282815287602084870101111561188d575f80fd5b826020860160208301375f928101602001929092525095945050505050565b5f602082840312156118bc575f80fd5b5035919050565b5f5b838110156118dd5781810151838201526020016118c5565b50505f910152565b5f81518084526118fc8160208601602086016118c3565b601f01601f19169290920160200192915050565b606081525f61192260608301866118e5565b828103602084015261193481866118e5565b9050828103604084015261194881856118e5565b9695505050505050565b5f6020808352835160808285015261196d60a08501826118e5565b905081850151601f198086840301604087015261198a83836118e5565b925060408701519150808684030160608701526119a783836118e5565b60608801518782038301608089015280518083529194508501925084840190600581901b850186015f5b828110156119fd57848783030184526119eb8287516118e5565b958801959388019391506001016119d1565b509998505050505050505050565b5f60208284031215611a1b575f80fd5b81356001600160a01b0381168114611669575f80fd5b602081525f61166960208301846118e5565b634e487b7160e01b5f52601160045260245ffd5b5f60018201611a6857611a68611a43565b5060010190565b7243727970746f2049736c616e64204e4654202360681b81525f8251611a9c8160138501602087016118c3565b9190910160130192915050565b600181811c90821680611abd57607f821691505b602082108103611adb57634e487b7160e01b5f52602260045260245ffd5b50919050565b5f8154611aed81611aa9565b60018281168015611b055760018114611b1a57611b46565b60ff1984168752821515830287019450611b46565b855f526020805f205f5b85811015611b3d5781548a820152908401908201611b24565b50505082870194505b5050505092915050565b5f611b5b8285611ae1565b8351611b6b8183602088016118c3565b632e706e6760e01b9101908152600401949350505050565b601f821115611bca57805f5260205f20601f840160051c81016020851015611ba85750805b601f840160051c820191505b81811015611bc7575f8155600101611bb4565b50505b505050565b815167ffffffffffffffff811115611be957611be96117ed565b611bfd81611bf78454611aa9565b84611b83565b602080601f831160018114611c30575f8415611c195750858301515b5f19600386901b1c1916600185901b178555611c87565b5f85815260208120601f198616915b82811015611c5e57888601518255948401946001909101908401611c3f565b5085821015611c7b57878501515f19600388901b60f8161c191681555b505060018460011b0185555b505050505050565b8082028115828204841417611ca657611ca6611a43565b92915050565b634e487b7160e01b5f52601260045260245ffd5b5f82611cce57611cce611cac565b500490565b80820180821115611ca657611ca6611a43565b81810381811115611ca657611ca6611a43565b60208082526021908201527f4f6e6c79206f776e65722063616e2063616c6c20746869732066756e6374696f6040820152603760f91b606082015260800190565b5f611d458285611ae1565b8351611d558183602088016118c3565b64173539b7b760d91b9101908152600501949350505050565b5f82611d7c57611d7c611cac565b500690565b634e487b7160e01b5f52603260045260245ffd5b6702930b934ba3c9d160c51b81525f8251611db78160088501602087016118c3565b9190910160080192915050565b6602837bbb2b91d160cd1b81525f8251611de58160078501602087016118c3565b9190910160070192915050565b68022b632b6b2b73a1d160bd1b81525f8251611e158160098501602087016118c3565b9190910160090192915050565b6b023b2b732b930ba34b7b71d160a51b81525f8251611e4881600c8501602087016118c3565b91909101600c019291505056fe4120756e69717565204e46542066726f6d207468652043727970746f2049736c616e6420416476656e747572652067616d652e2054686973204e465420726570726573656e747320796f7572206a6f75726e657920696e20746865206469676974616c207265766f6c7574696f6e2ea26469706673582212202a53b5005f99c0a815f724fd914ca8e3ab1eb8b6d176787124ddbef86325055364736f6c6343000817003368747470733a2f2f63727970746f2d69736c616e642d616476656e747572652e636f6d2f6d657461646174612f",
  "linkReferences": {},
  "deployedLinkReferences": {},
  "immutableReferences": {},
  "inputSourceName": "project/contracts/CryptoIslandNFT.sol",
  "buildInfoId": "solc-0_8_23-fc480622ca93bcdf9c55ed6f28f9292c9947f182"
}