{
  "_format": "hh3-artifact-1",
  "contractName": "CryptoIslandToken",
  "sourceName": "contracts/CryptoIslandToken.sol",
  "abi": [
    {
      "inputs": [
        {
          "internalType": "address",
          "name": "_treasury",
          "type": "address"
        }
      ],
      "stateMutability": "nonpayable",
      "type": "constructor"
    },
    {
      "inputs": [
        {
          "internalType": "address",
          "name": "spender",
          "type": "address"
        },
        {
          "internalType": "uint256",
          "name": "allowance",
          "type": "uint256"
        },
        {
          "internalType": "uint256",
          "name": "needed",
          "type": "uint256"
        }
      ],
      "name": "ERC20InsufficientAllowance",
      "type": "error"
    },
    {
      "inputs": [
        {
          "internalType": "address",
          "name": "sender",
          "type": "address"
        },
        {
          "internalType": "uint256",
          "name": "balance",
          "type": "uint256"
        },
        {
          "internalType": "uint256",
          "name": "needed",
          "type": "uint256"
        }
      ],
      "name": "ERC20InsufficientBalance",
      "type": "error"
    },
    {
      "inputs": [
        {
          "internalType": "address",
          "name": "approver",
          "type": "address"
        }
      ],
      "name": "ERC20InvalidApprover",
      "type": "error"
    },
    {
      "inputs": [
        {
          "internalType": "address",
          "name": "receiver",
          "type": "address"
        }
      ],
      "name": "ERC20InvalidReceiver",
      "type": "error"
    },
    {
      "inputs": [
        {
          "internalType": "address",
          "name": "sender",
          "type": "address"
        }
      ],
      "name": "ERC20InvalidSender",
      "type": "error"
    },
    {
      "inputs": [
        {
          "internalType": "address",
          "name": "spender",
          "type": "address"
        }
      ],
      "name": "ERC20InvalidSpender",
      "type": "error"
    },
    {
      "inputs": [],
      "name": "EnforcedPause",
      "type": "error"
    },
    {
      "inputs": [],
      "name": "ExpectedPause",
      "type": "error"
    },
    {
      "inputs": [
        {
          "internalType": "address",
          "name": "owner",
          "type": "address"
        }
      ],
      "name": "OwnableInvalidOwner",
      "type": "error"
    },
    {
      "inputs": [
        {
          "internalType": "address",
          "name": "account",
          "type": "address"
        }
      ],
      "name": "OwnableUnauthorizedAccount",
      "type": "error"
    },
    {
      "inputs": [],
      "name": "ReentrancyGuardReentrantCall",
      "type": "error"
    },
    {
      "anonymous": false,
      "inputs": [
        {
          "indexed": true,
          "internalType": "address",
          "name": "owner",
          "type": "address"
        },
        {
          "indexed": true,
          "internalType": "address",
          "name": "spender",
          "type": "address"
        },
        {
          "indexed": false,
          "internalType": "uint256",
          "name": "value",
          "type": "uint256"
        }
      ],
      "name": "Approval",
      "type": "event"
    },
    {
      "anonymous": false,
      "inputs": [
        {
          "indexed": true,
          "internalType": "address",
          "name": "player",
          "type": "address"
        },
        {
          "indexed": false,
          "internalType": "uint256",
          "name": "amount",
          "type": "uint256"
        },
        {
          "indexed": false,
          "internalType": "string",
          "name": "gameAction",
          "type": "string"
        }
      ],
      "name": "GameRewardEarned",
      "type": "event"
    },
    {
      "anonymous": false,
      "inputs": [
        {
          "indexed": true,
          "internalType": "address",
          "name": "previousOwner",
          "type": "address"
        },
        {
          "indexed": true,
          "internalType": "address",
          "name": "newOwner",
          "type": "address"
        }
      ],
      "name": "OwnershipTransferred",
      "type": "event"
    },
    {
      "anonymous": false,
      "inputs": [
        {
          "indexed": false,
          "internalType": "address",
          "name": "account",
          "type": "address"
        }
      ],
      "name": "Paused",
      "type": "event"
    },
    {
      "anonymous": false,
      "inputs": [
        {
          "indexed": true,
          "internalType": "address",
          "name": "staker",
          "type": "address"
        },
        {
          "indexed": false,
          "internalType": "uint256",
          "name": "netReward",
          "type": "uint256"
        },
        {
          "indexed": false,
          "internalType": "uint256",
          "name": "fee",
          "type": "uint256"
        },
        {
          "indexed": false,
          "internalType": "uint256",
          "name": "timestamp",
          "type": "uint256"
        }
      ],
      "name": "RewardsClaimed",
      "type": "event"
    },
    {
      "anonymous": false,
      "inputs": [
        {
          "indexed": true,
          "internalType": "address",
          "name": "player",
          "type": "address"
        },
        {
          "indexed": false,
          "internalType": "uint256",
          "name": "multiplierBps",
          "type": "uint256"
        }
      ],
      "name": "ScoreMultiplierUpdated",
      "type": "event"
    },
    {
      "anonymous": false,
      "inputs": [
        {
          "indexed": true,
          "internalType": "address",
          "name": "to",
          "type": "address"
        },
        {
          "indexed": false,
          "internalType": "uint256",
          "name": "amount",
          "type": "uint256"
        },
        {
          "indexed": false,
          "internalType": "uint256",
          "name": "timestamp",
          "type": "uint256"
        }
      ],
      "name": "TokensMinted",
      "type": "event"
    },
    {
      "anonymous": false,
      "inputs": [
        {
          "indexed": true,
          "internalType": "address",
          "name": "staker",
          "type": "address"
        },
        {
          "indexed": false,
          "internalType": "uint256",
          "name": "amount",
          "type": "uint256"
        },
        {
          "indexed": false,
          "internalType": "uint256",
          "name": "timestamp",
          "type": "uint256"
        }
      ],
      "name": "TokensStaked",
      "type": "event"
    },
    {
      "anonymous": false,
      "inputs": [
        {
          "indexed": true,
          "internalType": "address",
          "name": "staker",
          "type": "address"
        },
        {
          "indexed": false,
          "internalType": "uint256",
          "name": "amount",
          "type": "uint256"
        },
        {
          "indexed": false,
          "internalType": "uint256",
          "name": "timestamp",
          "type": "uint256"
        }
      ],
      "name": "TokensUnstaked",
      "type": "event"
    },
    {
      "anonymous": false,
      "inputs": [
        {
          "indexed": true,
          "internalType": "address",
          "name": "from",
          "type": "address"
        },
        {
          "indexed": true,
          "internalType": "address",
          "name": "to",
          "type": "address"
        },
        {
          "indexed": false,
          "internalType": "uint256",
          "name": "value",
          "type": "uint256"
        }
      ],
      "name": "Transfer",
      "type": "event"
    },
    {
      "anonymous": false,
      "inputs": [
        {
          "indexed": true,
          "internalType": "address",
          "name": "treasury",
          "type": "address"
        },
        {
          "indexed": false,
          "internalType": "uint256",
          "name": "amount",
          "type": "uint256"
        },
        {
          "indexed": false,
          "internalType": "uint256",
          "name": "timestamp",
          "type": "uint256"
        }
      ],
      "name": "TreasuryFeeCollected",
      "type": "event"
    },
    {
      "anonymous": false,
      "inputs": [
        {
          "indexed": false,
          "internalType": "address",
          "name": "account",
          "type": "address"
        }
      ],
      "name": "Unpaused",
      "type": "event"
    },
    {
      "inputs": [],
      "name": "BPS_DENOMINATOR",
      "outputs": [
        {
          "internalType": "uint256",
          "name": "",
          "type": "uint256"
        }
      ],
      "stateMutability": "view",
      "type": "function"
    },
    {
      "inputs": [],
      "name": "BRONZE_APY",
      "outputs": [
        {
          "internalType": "uint256",
          "name": "",
          "type": "uint256"
        }
      ],
      "stateMutability": "view",
      "type": "function"
    },
    {
      "inputs": [],
      "name": "GOLD_APY",
      "outputs": [
        {
          "internalType": "uint256",
          "name": "",
          "type": "uint256"
        }
      ],
      "stateMutability": "view",
      "type": "function"
    },
    {
      "inputs": [],
      "name": "GOLD_THRESHOLD",
      "outputs": [
        {
          "internalType": "uint256",
          "name": "",
          "type": "uint256"
        }
      ],
      "stateMutability": "view",
      "type": "function"
    },
    {
      "inputs": [],
      "name": "INITIAL_SUPPLY",
      "outputs": [
        {
          "internalType": "uint256",
          "name": "",
          "type": "uint256"
        }
      ],
      "stateMutability": "view",
      "type": "function"
    },
    {
      "inputs": [],
      "name": "MAX_MULTIPLIER",
      "outputs": [
        {
          "internalType": "uint256",
          "name": "",
          "type": "uint256"
        }
      ],
      "stateMutability": "view",
      "type": "function"
    },
    {
      "inputs": [],
      "name": "MAX_SUPPLY",
      "outputs": [
        {
          "internalType": "uint256",
          "name": "",
          "type": "uint256"
        }
      ],
      "stateMutability": "view",
      "type": "function"
    },
    {
      "inputs": [],
      "name": "MINT_PRICE",
      "outputs": [
        {
          "internalType": "uint256",
          "name": "",
          "type": "uint256"
        }
      ],
      "stateMutability": "view",
      "type": "function"
    },
    {
      "inputs": [],
      "name": "REWARD_INTERVAL",
      "outputs": [
        {
          "internalType": "uint256",
          "name": "",
          "type": "uint256"
        }
      ],
      "stateMutability": "view",
      "type": "function"
    },
    {
      "inputs": [],
      "name": "SILVER_APY",
      "outputs": [
        {
          "internalType": "uint256",
          "name": "",
          "type": "uint256"
        }
      ],
      "stateMutability": "view",
      "type": "function"
    },
    {
      "inputs": [],
      "name": "SILVER_THRESHOLD",
      "outputs": [
        {
          "internalType": "uint256",
          "name": "",
          "type": "uint256"
        }
      ],
      "stateMutability": "view",
      "type": "function"
    },
    {
      "inputs": [],
      "name": "TREASURY_FEE_BPS",
      "outputs": [
        {
          "internalType": "uint256",
          "name": "",
          "type": "uint256"
        }
      ],
      "stateMutability": "view",
      "type": "function"
    },
    {
      "inputs": [
        {
          "internalType": "address",
          "name": "gameContract",
          "type": "address"
        }
      ],
      "name": "addGameContract",
      "outputs": [],
      "stateMutability": "nonpayable",
      "type": "function"
    },
    {
      "inputs": [
        {
          "internalType": "address",
          "name": "owner",
          "type": "address"
        },
        {
          "internalType": "address",
          "name": "spender",
          "type": "address"
        }
      ],
      "name": "allowance",
      "outputs": [
        {
          "internalType": "uint256",
          "name": "",
          "type": "uint256"
        }
      ],
      "stateMutability": "view",
      "type": "function"
    },
    {
      "inputs": [
        {
          "internalType": "address",
          "name": "spender",
          "type": "address"
        },
        {
          "internalType": "uint256",
          "name": "value",
          "type": "uint256"
        }
      ],
      "name": "approve",
      "outputs": [
        {
          "internalType": "bool",
          "name": "",
          "type": "bool"
        }
      ],
      "stateMutability": "nonpayable",
      "type": "function"
    },
    {
      "inputs": [
        {
          "internalType": "address",
          "name": "account",
          "type": "address"
        }
      ],
      "name": "balanceOf",
      "outputs": [
        {
          "internalType": "uint256",
          "name": "",
          "type": "uint256"
        }
      ],
      "stateMutability": "view",
      "type": "function"
    },
    {
      "inputs": [
        {
          "internalType": "address",
          "name": "stakerAddr",
          "type": "address"
        }
      ],
      "name": "calculateNetRewards",
      "outputs": [
        {
          "internalType": "uint256",
          "name": "net",
          "type": "uint256"
        },
        {
          "internalType": "uint256",
          "name": "fee",
          "type": "uint256"
        }
      ],
      "stateMutability": "view",
      "type": "function"
    },
    {
      "inputs": [
        {
          "internalType": "address",
          "name": "stakerAddr",
          "type": "address"
        }
      ],
      "name": "calculateRewards",
      "outputs": [
        {
          "internalType": "uint256",
          "name": "",
          "type": "uint256"
        }
      ],
      "stateMutability": "view",
      "type": "function"
    },
    {
      "inputs": [],
      "name": "claimRewards",
      "outputs": [],
      "stateMutability": "nonpayable",
      "type": "function"
    },
    {
      "inputs": [],
      "name": "decimals",
      "outputs": [
        {
          "internalType": "uint8",
          "name": "",
          "type": "uint8"
        }
      ],
      "stateMutability": "view",
      "type": "function"
    },
    {
      "inputs": [
        {
          "internalType": "address",
          "name": "player",
          "type": "address"
        },
        {
          "internalType": "uint256",
          "name": "amount",
          "type": "uint256"
        },
        {
          "internalType": "string",
          "name": "gameAction",
          "type": "string"
        }
      ],
      "name": "earnGameReward",
      "outputs": [],
      "stateMutability": "nonpayable",
      "type": "function"
    },
    {
      "inputs": [
        {
          "internalType": "address",
          "name": "",
          "type": "address"
        }
      ],
      "name": "gameContracts",
      "outputs": [
        {
          "internalType": "bool",
          "name": "",
          "type": "bool"
        }
      ],
      "stateMutability": "view",
      "type": "function"
    },
    {
      "inputs": [
        {
          "internalType": "address",
          "name": "",
          "type": "address"
        }
      ],
      "name": "gameRewards",
      "outputs": [
        {
          "internalType": "uint256",
          "name": "",
          "type": "uint256"
        }
      ],
      "stateMutability": "view",
      "type": "function"
    },
    {
      "inputs": [
        {
          "internalType": "address",
          "name": "stakerAddr",
          "type": "address"
        }
      ],
      "name": "getStakerInfo",
      "outputs": [
        {
          "internalType": "uint256",
          "name": "stakedAmount",
          "type": "uint256"
        },
        {
          "internalType": "uint256",
          "name": "stakingTimestamp",
          "type": "uint256"
        },
        {
          "internalType": "uint256",
          "name": "pendingRewards",
          "type": "uint256"
        },
        {
          "internalType": "bool",
          "name": "isStaking",
          "type": "bool"
        },
        {
          "internalType": "string",
          "name": "tier",
          "type": "string"
        },
        {
          "internalType": "uint256",
          "name": "multiplierBps_",
          "type": "uint256"
        },
        {
          "internalType": "uint256",
          "name": "currentAPY",
          "type": "uint256"
        }
      ],
      "stateMutability": "view",
      "type": "function"
    },
    {
      "inputs": [
        {
          "internalType": "address",
          "name": "stakerAddr",
          "type": "address"
        }
      ],
      "name": "getStakerTier",
      "outputs": [
        {
          "internalType": "string",
          "name": "",
          "type": "string"
        }
      ],
      "stateMutability": "view",
      "type": "function"
    },
    {
      "inputs": [
        {
          "internalType": "address",
          "name": "to",
          "type": "address"
        }
      ],
      "name": "initializeSupply",
      "outputs": [],
      "stateMutability": "nonpayable",
      "type": "function"
    },
    {
      "inputs": [
        {
          "internalType": "address",
          "name": "to",
          "type": "address"
        },
        {
          "internalType": "uint256",
          "name": "amount",
          "type": "uint256"
        }
      ],
      "name": "mintTokens",
      "outputs": [],
      "stateMutability": "nonpayable",
      "type": "function"
    },
    {
      "inputs": [
        {
          "internalType": "uint256",
          "name": "amount",
          "type": "uint256"
        }
      ],
      "name": "mintWithAVAX",
      "outputs": [],
      "stateMutability": "payable",
      "type": "function"
    },
    {
      "inputs": [],
      "name": "name",
      "outputs": [
        {
          "internalType": "string",
          "name": "",
          "type": "string"
        }
      ],
      "stateMutability": "view",
      "type": "function"
    },
    {
      "inputs": [],
      "name": "owner",
      "outputs": [
        {
          "internalType": "address",
          "name": "",
          "type": "address"
        }
      ],
      "stateMutability": "view",
      "type": "function"
    },
    {
      "inputs": [],
      "name": "pause",
      "outputs": [],
      "stateMutability": "nonpayable",
      "type": "function"
    },
    {
      "inputs": [],
      "name": "paused",
      "outputs": [
        {
          "internalType": "bool",
          "name": "",
          "type": "bool"
        }
      ],
      "stateMutability": "view",
      "type": "function"
    },
    {
      "inputs": [
        {
          "internalType": "address",
          "name": "gameContract",
          "type": "address"
        }
      ],
      "name": "removeGameContract",
      "outputs": [],
      "stateMutability": "nonpayable",
      "type": "function"
    },
    {
      "inputs": [],
      "name": "renounceOwnership",
      "outputs": [],
      "stateMutability": "nonpayable",
      "type": "function"
    },
    {
      "inputs": [
        {
          "internalType": "address",
          "name": "",
          "type": "address"
        }
      ],
      "name": "scoreMultiplierBps",
      "outputs": [
        {
          "internalType": "uint256",
          "name": "",
          "type": "uint256"
        }
      ],
      "stateMutability": "view",
      "type": "function"
    },
    {
      "inputs": [
        {
          "internalType": "address",
          "name": "player",
          "type": "address"
        },
        {
          "internalType": "uint256",
          "name": "multiplierBps",
          "type": "uint256"
        }
      ],
      "name": "setPlayerScoreMultiplier",
      "outputs": [],
      "stateMutability": "nonpayable",
      "type": "function"
    },
    {
      "inputs": [
        {
          "internalType": "address",
          "name": "_treasury",
          "type": "address"
        }
      ],
      "name": "setTreasury",
      "outputs": [],
      "stateMutability": "nonpayable",
      "type": "function"
    },
    {
      "inputs": [
        {
          "internalType": "address",
          "name": "player",
          "type": "address"
        },
        {
          "internalType": "uint256",
          "name": "amount",
          "type": "uint256"
        }
      ],
      "name": "spendGameTokens",
      "outputs": [],
      "stateMutability": "nonpayable",
      "type": "function"
    },
    {
      "inputs": [
        {
          "internalType": "uint256",
          "name": "amount",
          "type": "uint256"
        }
      ],
      "name": "stakeTokens",
      "outputs": [],
      "stateMutability": "nonpayable",
      "type": "function"
    },
    {
      "inputs": [
        {
          "internalType": "address",
          "name": "",
          "type": "address"
        }
      ],
      "name": "stakers",
      "outputs": [
        {
          "internalType": "uint256",
          "name": "stakedAmount",
          "type": "uint256"
        },
        {
          "internalType": "uint256",
          "name": "stakingTimestamp",
          "type": "uint256"
        },
        {
          "internalType": "bool",
          "name": "isStaking",
          "type": "bool"
        }
      ],
      "stateMutability": "view",
      "type": "function"
    },
    {
      "inputs": [],
      "name": "symbol",
      "outputs": [
        {
          "internalType": "string",
          "name": "",
          "type": "string"
        }
      ],
      "stateMutability": "view",
      "type": "function"
    },
    {
      "inputs": [],
      "name": "totalStaked",
      "outputs": [
        {
          "internalType": "uint256",
          "name": "",
          "type": "uint256"
        }
      ],
      "stateMutability": "view",
      "type": "function"
    },
    {
      "inputs": [],
      "name": "totalSupply",
      "outputs": [
        {
          "internalType": "uint256",
          "name": "",
          "type": "uint256"
        }
      ],
      "stateMutability": "view",
      "type": "function"
    },
    {
      "inputs": [],
      "name": "totalTreasuryCollected",
      "outputs": [
        {
          "internalType": "uint256",
          "name": "",
          "type": "uint256"
        }
      ],
      "stateMutability": "view",
      "type": "function"
    },
    {
      "inputs": [
        {
          "internalType": "address",
          "name": "to",
          "type": "address"
        },
        {
          "internalType": "uint256",
          "name": "value",
          "type": "uint256"
        }
      ],
      "name": "transfer",
      "outputs": [
        {
          "internalType": "bool",
          "name": "",
          "type": "bool"
        }
      ],
      "stateMutability": "nonpayable",
      "type": "function"
    },
    {
      "inputs": [
        {
          "internalType": "address",
          "name": "from",
          "type": "address"
        },
        {
          "internalType": "address",
          "name": "to",
          "type": "address"
        },
        {
          "internalType": "uint256",
          "name": "value",
          "type": "uint256"
        }
      ],
      "name": "transferFrom",
      "outputs": [
        {
          "internalType": "bool",
          "name": "",
          "type": "bool"
        }
      ],
      "stateMutability": "nonpayable",
      "type": "function"
    },
    {
      "inputs": [
        {
          "internalType": "address",
          "name": "newOwner",
          "type": "address"
        }
      ],
      "name": "transferOwnership",
      "outputs": [],
      "stateMutability": "nonpayable",
      "type": "function"
    },
    {
      "inputs": [],
      "name": "treasury",
      "outputs": [
        {
          "internalType": "address",
          "name": "",
          "type": "address"
        }
      ],
      "stateMutability": "view",
      "type": "function"
    },
    {
      "inputs": [],
      "name": "unpause",
      "outputs": [],
      "stateMutability": "nonpayable",
      "type": "function"
    },
    {
      "inputs": [],
      "name": "unstakeTokens",
      "outputs": [],
      "stateMutability": "nonpayable",
      "type": "function"
    },
    {
      "inputs": [],
      "name": "withdrawAVAX",
      "outputs": [],
      "stateMutability": "nonpayable",
      "type": "function"
    }
  ],
  "bytecode": "0x608060405234801562000010575f80fd5b506040516200271138038062002711833981016040819052620000339162000178565b336040518060400160405280601381526020017f43727970746f2049736c616e6420546f6b656e000000000000000000000000008152506040518060400160405280600381526020016210d25560ea1b815250816003908162000097919062000245565b506004620000a6828262000245565b5050506001600160a01b038116620000d757604051631e4fbdf760e01b81525f600482015260240160405180910390fd5b620000e28162000127565b5060016006556001600160a01b038116620000fe573362000100565b805b600780546001600160a01b0319166001600160a01b03929092169190911790555062000311565b600580546001600160a01b038381166001600160a01b0319831681179093556040519116919082907f8be0079c531659141344cd1fd0a4f28419497f9722a3daafe3b4186f6b6457e0905f90a35050565b5f6020828403121562000189575f80fd5b81516001600160a01b0381168114620001a0575f80fd5b9392505050565b634e487b7160e01b5f52604160045260245ffd5b600181811c90821680620001d057607f821691505b602082108103620001ef57634e487b7160e01b5f52602260045260245ffd5b50919050565b601f8211156200024057805f5260205f20601f840160051c810160208510156200021c5750805b601f840160051c820191505b818110156200023d575f815560010162000228565b50505b505050565b81516001600160401b03811115620002615762000261620001a7565b6200027981620002728454620001bb565b84620001f5565b602080601f831160018114620002af575f8415620002975750858301515b5f19600386901b1c1916600185901b17855562000309565b5f85815260208120601f198616915b82811015620002df57888601518255948401946001909101908401620002be565b5085821015620002fd57878501515f19600388901b60f8161c191681555b505060018460011b0185555b505050505050565b6123f2806200031f5f395ff3fe6080604052600436106102d9575f3560e01c8063715018a611610189578063a9059cbb116100d8578063dd62ed3e11610092578063f06d3d311161006d578063f06d3d31146108b1578063f0dda65c146108d0578063f0f44260146108ef578063f2fde38b1461090e575f80fd5b8063dd62ed3e14610844578063e1a4521814610888578063e3b1a1f41461089d575f80fd5b8063a9059cbb14610798578063abce145b146107b7578063b273890b146107cb578063c002d23d146107ff578063c1a0db3014610819578063d642aa021461082f575f80fd5b80638da5cb5b116101435780639168ae721161011e5780639168ae721461070157806395d89b411461075b5780639bcf2f611461076f578063a5ce413b14610784575f80fd5b80638da5cb5b146106bd5780638dc9c26b146106da5780638f5b8ee2146106ee575f80fd5b8063715018a614610610578063733bdef0146106245780637547c7a314610656578063817b1cd21461067557806381cd08ee1461068a5780638456cb59146106a9575f80fd5b806346565bed1161024557806361d027b3116101ff5780636d0efaeb116101da5780636d0efaeb1461056f5780636ddd474d146105835780636e6bab4b146105b157806370a08231146105dc575f80fd5b806361d027b3146104fa57806364ab8675146105315780636aa679d414610550575f80fd5b806346565bed1461045c578063569739741461047b5780635c74e025146104915780635c975abb146104b05780635d6a618d146104ce5780635dbdda69146104e3575f80fd5b80632ff2e9dc116102965780632ff2e9dc146103bf578063313ce567146103dc57806332cb6b0c146103f7578063372500ab1461041557806339b6ae94146104295780633f4ba83a14610448575f80fd5b8063023b14a5146102dd57806306fdde031461031b578063095ea7b31461033c5780630bdc0cda1461036b57806318160ddd1461038c57806323b872dd146103a0575b5f80fd5b3480156102e8575f80fd5b506103086102f7366004611f75565b600b6020525f908152604090205481565b6040519081526020015b60405180910390f35b348015610326575f80fd5b5061032f61092d565b6040516103129190611fd8565b348015610347575f80fd5b5061035b610356366004611fea565b6109bd565b6040519015158152602001610312565b348015610376575f80fd5b5061038a610385366004611f75565b6109d6565b005b348015610397575f80fd5b50600254610308565b3480156103ab575f80fd5b5061035b6103ba366004612012565b610a40565b3480156103ca575f80fd5b5061030869d3c21bcecceda100000081565b3480156103e7575f80fd5b5060405160128152602001610312565b348015610402575f80fd5b506103086a084595161401484a00000081565b348015610420575f80fd5b5061038a610a63565b348015610434575f80fd5b5061038a610443366004611fea565b610b20565b348015610453575f80fd5b5061038a610c13565b348015610467575f80fd5b5061038a610476366004611fea565b610c23565b348015610486575f80fd5b5061030862278d0081565b34801561049c575f80fd5b5061038a6104ab366004611f75565b610ca5565b3480156104bb575f80fd5b50600554600160a01b900460ff1661035b565b3480156104d9575f80fd5b50610308614e2081565b3480156104ee575f80fd5b506103086301e1338081565b348015610505575f80fd5b50600754610519906001600160a01b031681565b6040516001600160a01b039091168152602001610312565b34801561053c575f80fd5b5061030861054b366004611f75565b610ccd565b34801561055b575f80fd5b5061038a61056a36600461205f565b610dc6565b34801561057a575f80fd5b50610308600f81565b34801561058e575f80fd5b5061035b61059d366004611f75565b600a6020525f908152604090205460ff1681565b3480156105bc575f80fd5b506103086105cb366004611f75565b60096020525f908152604090205481565b3480156105e7575f80fd5b506103086105f6366004611f75565b6001600160a01b03165f9081526020819052604090205490565b34801561061b575f80fd5b5061038a610ef7565b34801561062f575f80fd5b5061064361063e366004611f75565b610f08565b6040516103129796959493929190612123565b348015610661575f80fd5b5061038a610670366004612165565b6110a3565b348015610680575f80fd5b50610308600c5481565b348015610695575f80fd5b5061038a6106a4366004611f75565b6111fb565b3480156106b4575f80fd5b5061038a611226565b3480156106c8575f80fd5b506005546001600160a01b0316610519565b3480156106e5575f80fd5b50610308600a81565b61038a6106fc366004612165565b611236565b34801561070c575f80fd5b5061073e61071b366004611f75565b60086020525f908152604090208054600182015460029092015490919060ff1683565b604080519384526020840192909252151590820152606001610312565b348015610766575f80fd5b5061032f6113fa565b34801561077a575f80fd5b50610308600d5481565b34801561078f575f80fd5b5061038a611409565b3480156107a3575f80fd5b5061035b6107b2366004611fea565b61154b565b3480156107c2575f80fd5b5061038a611558565b3480156107d6575f80fd5b506107ea6107e5366004611f75565b61163a565b60408051928352602083019190915201610312565b34801561080a575f80fd5b5061030866038d7ea4c6800081565b348015610824575f80fd5b5061030862093a8081565b34801561083a575f80fd5b506103086101f481565b34801561084f575f80fd5b5061030861085e36600461217c565b6001600160a01b039182165f90815260016020908152604080832093909416825291909152205490565b348015610893575f80fd5b5061030861271081565b3480156108a8575f80fd5b50610308601481565b3480156108bc575f80fd5b5061032f6108cb366004611f75565b611675565b3480156108db575f80fd5b5061038a6108ea366004611fea565b611776565b3480156108fa575f80fd5b5061038a610909366004611f75565b61183e565b348015610919575f80fd5b5061038a610928366004611f75565b6118ad565b60606003805461093c906121ad565b80601f0160208091040260200160405190810160405280929190818152602001828054610968906121ad565b80156109b35780601f1061098a576101008083540402835291602001916109b3565b820191905f5260205f20905b81548152906001019060200180831161099657829003601f168201915b5050505050905090565b5f336109ca8185856118e7565b60019150505b92915050565b6109de6118f4565b60025415610a295760405162461bcd60e51b8152602060048201526013602482015272105b1c9958591e481a5b9a5d1a585b1a5e9959606a1b60448201526064015b60405180910390fd5b610a3d8169d3c21bcecceda1000000611921565b50565b5f33610a4d858285611955565b610a588585856119cb565b506001949350505050565b610a6b611a28565b610a73611a53565b335f9081526008602052604090206002015460ff16610ac25760405162461bcd60e51b815260206004820152600b60248201526a4e6f74207374616b696e6760a81b6044820152606401610a20565b5f610acc33610ccd565b90505f8111610b0a5760405162461bcd60e51b815260206004820152600a6024820152694e6f207265776172647360b01b6044820152606401610a20565b610b1333611a7d565b50610b1e6001600655565b565b610b286118f4565b612710811015610b725760405162461bcd60e51b81526020600482015260156024820152744d757374206265203e3d203178202831303030302960581b6044820152606401610a20565b614e20811115610bbb5760405162461bcd60e51b8152602060048201526014602482015273436170706564206174203278202832303030302960601b6044820152606401610a20565b6001600160a01b0382165f8181526009602052604090819020839055517ffb12832a43f90dcf2e6eb6ea0b977f34217c2802c7bab9c6a387d8f52ce8e3d190610c079084815260200190565b60405180910390a25050565b610c1b6118f4565b610b1e611c12565b335f908152600a602052604090205460ff16610c775760405162461bcd60e51b81526020600482015260136024820152724f6e6c792067616d6520636f6e74726163747360681b6044820152606401610a20565b5f8111610c965760405162461bcd60e51b8152600401610a20906121e5565b610ca18230836119cb565b5050565b610cad6118f4565b6001600160a01b03165f908152600a60205260409020805460ff19169055565b6001600160a01b0381165f9081526008602090815260408083208151606081018352815481526001820154938101939093526002015460ff161580159183019190915280610d1a57508051155b15610d2757505f92915050565b5f816020015142610d389190612225565b90505f610d488360200151611c67565b6001600160a01b0386165f90815260096020526040812054919250819003610d6f57506127105b5f610d7f6301e133806064612238565b85518590610d8e908690612238565b610d989190612238565b610da2919061224f565b9050612710610db18383612238565b610dbb919061224f565b979650505050505050565b335f908152600a602052604090205460ff16610e1a5760405162461bcd60e51b81526020600482015260136024820152724f6e6c792067616d6520636f6e74726163747360681b6044820152606401610a20565b5f8211610e395760405162461bcd60e51b8152600401610a20906121e5565b6a084595161401484a00000082610e4f60025490565b610e59919061226e565b1115610e775760405162461bcd60e51b8152600401610a2090612281565b610e818383611921565b6001600160a01b0383165f908152600b602052604081208054849290610ea890849061226e565b92505081905550826001600160a01b03167f9dfcf239a23b6ad6a240ce003294522254489e0b77b4a2b547169aab4240a9cc8383604051610eea9291906122ae565b60405180910390a2505050565b610eff6118f4565b610b1e5f611ca4565b6001600160a01b0381165f9081526008602090815260408083208151606081810184528254808352600184015495830186905260029093015460ff16151593820193909352909391829182908190610f5f89610ccd565b6040808301516001600160a01b038c165f90815260096020529190912054919750955015610fa4576001600160a01b0389165f90815260096020526040902054610fa8565b6127105b92508060400151610fb9575f610fc6565b610fc68160200151611c67565b91505f8160400151610fd8575f610fe7565b6020820151610fe79042612225565b9050816040015161101657604051806040016040528060048152602001634e6f6e6560e01b8152509450611096565b62278d008110611044576040518060400160405280600481526020016311dbdb1960e21b8152509450611096565b62093a808110611074576040518060400160405280600681526020016529b4b63b32b960d11b8152509450611096565b6040518060400160405280600681526020016542726f6e7a6560d01b81525094505b5050919395979092949650565b6110ab611a28565b6110b3611a53565b5f81116110d25760405162461bcd60e51b8152600401610a20906121e5565b335f908152602081905260409020548111156111275760405162461bcd60e51b8152602060048201526014602482015273496e73756666696369656e742062616c616e636560601b6044820152606401610a20565b335f9081526008602052604090206002015460ff161561114a5761114a33611a7d565b6111553330836119cb565b335f908152600860205260408120805483929061117390849061226e565b9091555050335f908152600860205260408120426001808301919091556002909101805460ff19169091179055600c80548392906111b290849061226e565b90915550506040805182815242602082015233917fdd2a19c3bdd089cbe77c04f5655f83de0504d6140d12c8667646f55d0557c4dc910160405180910390a2610a3d6001600655565b6112036118f4565b6001600160a01b03165f908152600a60205260409020805460ff19166001179055565b61122e6118f4565b610b1e611cf5565b61123e611a28565b5f61124b6012600a6123ae565b6112559083612238565b90505f82116112765760405162461bcd60e51b8152600401610a20906121e5565b6a084595161401484a0000008161128c60025490565b611296919061226e565b11156112b45760405162461bcd60e51b8152600401610a2090612281565b6112c566038d7ea4c6800083612238565b3410156113085760405162461bcd60e51b8152602060048201526011602482015270092dce6eaccccd2c6d2cadce84082ac82b607b1b6044820152606401610a20565b6113123382611921565b6040805182815242602082015233917f2e8ac5177a616f2aec08c3048f5021e4e9743ece034e8d83ba5caf76688bb475910160405180910390a25f61135e66038d7ea4c6800084612238565b9050803411156113f5575f336113748334612225565b6040515f81818185875af1925050503d805f81146113ad576040519150601f19603f3d011682016040523d82523d5f602084013e6113b2565b606091505b50509050806113f35760405162461bcd60e51b815260206004820152600d60248201526c1499599d5b990819985a5b1959609a1b6044820152606401610a20565b505b505050565b60606004805461093c906121ad565b611411611a28565b611419611a53565b335f9081526008602052604090206002015460ff166114685760405162461bcd60e51b815260206004820152600b60248201526a4e6f74207374616b696e6760a81b6044820152606401610a20565b335f90815260086020526040902054806114b75760405162461bcd60e51b815260206004820152601060248201526f139bc81d1bdad95b9cc81cdd185ad95960821b6044820152606401610a20565b6114c033611a7d565b335f90815260086020526040812081815560018101829055600201805460ff19169055600c80548392906114f5908490612225565b9091555061150690503033836119cb565b6040805182815242602082015233917f6f2d3e000c89d37446b7c0374c0125068ff316d1e3ee302336478a8cd03c2336910160405180910390a250610b1e6001600655565b5f336109ca8185856119cb565b6115606118f4565b47806115985760405162461bcd60e51b815260206004820152600760248201526609cde4082ac82b60cb1b6044820152606401610a20565b5f6115ab6005546001600160a01b031690565b6001600160a01b0316826040515f6040518083038185875af1925050503d805f81146115f2576040519150601f19603f3d011682016040523d82523d5f602084013e6115f7565b606091505b5050905080610ca15760405162461bcd60e51b815260206004820152600f60248201526e15da5d1a191c985dc819985a5b1959608a1b6044820152606401610a20565b5f805f61164684610ccd565b90506127106116576101f483612238565b611661919061224f565b915061166d8282612225565b925050915091565b6001600160a01b0381165f908152600860209081526040918290208251606081810185528254825260018301549382019390935260029091015460ff16151592810183905290916116e25750506040805180820190915260048152634e6f6e6560e01b6020820152919050565b5f8160200151426116f39190612225565b905062278d00811061172257505060408051808201909152600481526311dbdb1960e21b602082015292915050565b62093a80811061175157505060408051808201909152600681526529b4b63b32b960d11b602082015292915050565b505060408051808201909152600681526542726f6e7a6560d01b602082015292915050565b61177e6118f4565b5f61178b6012600a6123ae565b6117959083612238565b90505f82116117b65760405162461bcd60e51b8152600401610a20906121e5565b6a084595161401484a000000816117cc60025490565b6117d6919061226e565b11156117f45760405162461bcd60e51b8152600401610a2090612281565b6117fe8382611921565b604080518281524260208201526001600160a01b038516917f2e8ac5177a616f2aec08c3048f5021e4e9743ece034e8d83ba5caf76688bb4759101610eea565b6118466118f4565b6001600160a01b03811661188b5760405162461bcd60e51b815260206004820152600c60248201526b5a65726f206164647265737360a01b6044820152606401610a20565b600780546001600160a01b0319166001600160a01b0392909216919091179055565b6118b56118f4565b6001600160a01b0381166118de57604051631e4fbdf760e01b81525f6004820152602401610a20565b610a3d81611ca4565b6113f58383836001611d38565b6005546001600160a01b03163314610b1e5760405163118cdaa760e01b8152336004820152602401610a20565b6001600160a01b03821661194a5760405163ec442f0560e01b81525f6004820152602401610a20565b610ca15f8383611e0a565b6001600160a01b038381165f908152600160209081526040808320938616835292905220545f198110156113f357818110156119bd57604051637dc7a0d960e11b81526001600160a01b03841660048201526024810182905260448101839052606401610a20565b6113f384848484035f611d38565b6001600160a01b0383166119f457604051634b637e8f60e11b81525f6004820152602401610a20565b6001600160a01b038216611a1d5760405163ec442f0560e01b81525f6004820152602401610a20565b6113f5838383611e0a565b600554600160a01b900460ff1615610b1e5760405163d93c066560e01b815260040160405180910390fd5b600260065403611a7657604051633ee5aeb560e01b815260040160405180910390fd5b6002600655565b5f611a8782610ccd565b9050805f03611a94575050565b5f612710611aa46101f484612238565b611aae919061224f565b90505f611abb8284612225565b6001600160a01b0385165f90815260086020526040812042600190910155600d80549293508492909190611af090849061226e565b90915550508115801590611b2257506a084595161401484a00000082611b1560025490565b611b1f919061226e565b11155b15611b8557600754611b3d906001600160a01b031683611921565b600754604080518481524260208201526001600160a01b03909216917f6c067797988a2dd3bd54cb977e9c67efe4c19657b78b2fab848e46a571375c84910160405180910390a25b5f81118015611bb257506a084595161401484a00000081611ba560025490565b611baf919061226e565b11155b15611bc157611bc18482611921565b6040805182815260208101849052428183015290516001600160a01b038616917f56253d287efacdb2c4cd76dd03624a4821c1ce721d1152e8f5f5718f6087c9bf919081900360600190a250505050565b611c1a611f30565b6005805460ff60a01b191690557f5db9ee0a495bf2e6ff9c91a7834c1ba4fdd244a5e8aa4e537bd38aeae4b073aa335b6040516001600160a01b03909116815260200160405180910390a1565b5f80611c738342612225565b905062278d008110611c885750601492915050565b62093a808110611c9b5750600f92915050565b50600a92915050565b600580546001600160a01b038381166001600160a01b0319831681179093556040519116919082907f8be0079c531659141344cd1fd0a4f28419497f9722a3daafe3b4186f6b6457e0905f90a35050565b611cfd611a28565b6005805460ff60a01b1916600160a01b1790557f62e78cea01bee320cd4e420270b5ea74000d11b0c9f74754ebdbfc544b05a258611c4a3390565b6001600160a01b038416611d615760405163e602df0560e01b81525f6004820152602401610a20565b6001600160a01b038316611d8a57604051634a1406b160e11b81525f6004820152602401610a20565b6001600160a01b038085165f90815260016020908152604080832093871683529290522082905580156113f357826001600160a01b0316846001600160a01b03167f8c5be1e5ebec7d5bd14f71427d1e84f3dd0314c0f7b2291e5b200ac8c7c3b92584604051611dfc91815260200190565b60405180910390a350505050565b6001600160a01b038316611e34578060025f828254611e29919061226e565b90915550611ea49050565b6001600160a01b0383165f9081526020819052604090205481811015611e865760405163391434e360e21b81526001600160a01b03851660048201526024810182905260448101839052606401610a20565b6001600160a01b0384165f9081526020819052604090209082900390555b6001600160a01b038216611ec057600280548290039055611ede565b6001600160a01b0382165f9081526020819052604090208054820190555b816001600160a01b0316836001600160a01b03167fddf252ad1be2c89b69c2b068fc378daa952ba7f163c4a11628f55a4df523b3ef83604051611f2391815260200190565b60405180910390a3505050565b600554600160a01b900460ff16610b1e57604051638dfc202b60e01b815260040160405180910390fd5b80356001600160a01b0381168114611f70575f80fd5b919050565b5f60208284031215611f85575f80fd5b611f8e82611f5a565b9392505050565b5f81518084525f5b81811015611fb957602081850181015186830182015201611f9d565b505f602082860101526020601f19601f83011685010191505092915050565b602081525f611f8e6020830184611f95565b5f8060408385031215611ffb575f80fd5b61200483611f5a565b946020939093013593505050565b5f805f60608486031215612024575f80fd5b61202d84611f5a565b925061203b60208501611f5a565b9150604084013590509250925092565b634e487b7160e01b5f52604160045260245ffd5b5f805f60608486031215612071575f80fd5b61207a84611f5a565b925060208401359150604084013567ffffffffffffffff8082111561209d575f80fd5b818601915086601f8301126120b0575f80fd5b8135818111156120c2576120c261204b565b604051601f8201601f19908116603f011681019083821181831017156120ea576120ea61204b565b81604052828152896020848701011115612102575f80fd5b826020860160208301375f6020848301015280955050505050509250925092565b878152866020820152856040820152841515606082015260e060808201525f61214f60e0830186611f95565b60a08301949094525060c0015295945050505050565b5f60208284031215612175575f80fd5b5035919050565b5f806040838503121561218d575f80fd5b61219683611f5a565b91506121a460208401611f5a565b90509250929050565b600181811c908216806121c157607f821691505b6020821081036121df57634e487b7160e01b5f52602260045260245ffd5b50919050565b6020808252601290820152710416d6f756e74206d757374206265203e20360741b604082015260600190565b634e487b7160e01b5f52601160045260245ffd5b818103818111156109d0576109d0612211565b80820281158282048414176109d0576109d0612211565b5f8261226957634e487b7160e01b5f52601260045260245ffd5b500490565b808201808211156109d0576109d0612211565b60208082526013908201527213585e081cdd5c1c1b1e48195e18d959591959606a1b604082015260600190565b828152604060208201525f6122c66040830184611f95565b949350505050565b600181815b8085111561230857815f19048211156122ee576122ee612211565b808516156122fb57918102915b93841c93908002906122d3565b509250929050565b5f8261231e575060016109d0565b8161232a57505f6109d0565b8160018114612340576002811461234a57612366565b60019150506109d0565b60ff84111561235b5761235b612211565b50506001821b6109d0565b5060208310610133831016604e8410600b8410161715612389575081810a6109d0565b61239383836122ce565b805f19048211156123a6576123a6612211565b029392505050565b5f611f8e60ff84168361231056fea2646970667358221220c36524378322ae5b41fae136733fe5a84dfa5b872d7ec9371b9c8354919a6c6164736f6c63430008170033",
  "linkReferences": {},
  "deployedLinkReferences": {},
  "immutableReferences": {},
  "inputSourceName": "project/contracts/CryptoIslandToken.sol",
  "buildInfoId": "solc-0_8_23-9ac0f8ccb508896529b41d554172ecc0354adb4c"
}